:020000040800F2
:10000000A0580020E90200080F230008AD1F0008D7
:100010000D23000841060008252A00080000000002
:10002000000000000000000000000000290200089D
:1000300079070008000000008502000885260008F6
:100040000303000803030008030300080303000878
:1000500003030008030300087B07000803030008EC
:10006000030300088107000887070008030300084E
:10007000CD0600080303000803030008030300087B
:1000800003030008030300080303000851060008E7
:100090004506000803030008030300088D07000855
:1000A0000303000803030008030300080303000818
:1000B0000303000803030008030300080303000808
:1000C00003030008030300080303000803030008F8
:1000D0000303000803030008030300086D29000858
:1000E00003030008030300080303000803030008D8
:1000F00003030008030300080303000803030008C8
:1001000003030008030300080303000803030008B7
:1001100003030008030300080303000803030008A7
:1001200003030008D90600080303000803030008BE
:10013000030300080303000803030008690600081E
:100140005D0600080303000803030008030300081A
:10015000E5060008F106000803030008192A000854
:100160000303000803030008030300080303000857
:100170000303000803030008030300080000000055
:10018000030300080303000800F002F800F03CF845
:100190000AA090E8000C82448344AAF10107DA45E2
:1001A00001D100F031F8AFF2090EBAE80F0013F0F8
:1001B000010F18BFFB1A43F001031847587A0000DB
:1001C000787A0000103A24BF78C878C1FAD852076C
:1001D00024BF30C830C144BF04680C6070470000C1
:1001E0000023002400250026103A28BF78C1FBD840
:1001F000520728BF30C148BF0B6070471FB507F0DA
:1002000056FB1FBD10B510BD00F0E5F91146FFF714
:10021000F5FF04F03BFC00F003FA03B4FFF7F2FF34
:1002200003BC00F007FA00002C4B19680868B0E81E
:10023000F04F80F30988BFF36F8F4FF0000080F319
:10024000118870470000000008480068006880F3CB
:1002500008884FF0000080F3148862B661B6BFF3DF
:100260004F8FBFF36F8F00DF00BF00BF08ED00E0CE
:10027000DFF80C00016841F470010160704700BFB5
:1002800088ED00E0EFF30980BFF36F8F134B1A681E
:100290001EF0100F08BF20ED108A20E9F04F10600B
:1002A00009B44FF0500080F31188BFF34F8FBFF3B4
:1002B0006F8F05F0D7FE4FF0000080F3118809BC66
:1002C00019680868B0E8F04F1EF0100F08BFB0ECD6
:1002D000108A80F30988BFF36F8F704720000020D9
:1002E000EFF3058070470000094880470948004740
:1002F000FEE7FEE7FEE7FEE7FEE7FEE7FEE7FEE7D6
:10030000FEE7FEE704480549054A064B7047000032
:100310003127000889010008A0520020A0580020C1
:10032000A0540020A054002053EA020C00F0698081
:100330002DE9F04B4FF00006002B1FBFB3FA83F5F9
:1003400003FA05F424FA05F65E4012BF1643B2FA2A
:1003500082F502FA05F4C5F120051EBF22FA05FC5C
:1003600044EA0C04203556EA044C4FEA144418BF02
:10037000641C4FF000084FF00009904271EB030C31
:1003800039D3002919BFB1FA81F701FA07F6B0FA9B
:1003900080F700FA07F6C7F120071EBF20FA07FC16
:1003A00046EA0C062037B6FBF4FCA7EB0507103F26
:1003B00007F01F0BCBF120060CFA0BFB2CFA06F60C
:1003C00044BFB3460026202FA4BF5E464FF0000B6B
:1003D0005BEA060C08BF4FF0010B19EB0B09ABFBF6
:1003E000027C48EB0608C01B06FB02CC0BFB03CCCF
:1003F00071EB0C01C1E70B46024641464846BDE899
:10040000F08B13B54FF000004FF00001AFF3008008
:10041000BDE81C407047032A40F2308010F0030C06
:1004200000F0158011F8013BBCF1020F624498BF47
:1004300011F801CB00F8013B38BF11F8013BA2F1E4
:10044000040298BF00F801CB38BF00F8013B11F05F
:10045000030300F02580083AC0F0088051F8043BFF
:10046000083A51F804CBA0E80810F5E7121D5CBF6C
:1004700051F8043B40F8043BAFF30080D20724BF9F
:1004800011F8013B11F801CB48BF11F8012B24BF33
:1004900000F8013B00F801CB48BF00F8012B704782
:1004A00010B5203AC0F00B80B1E81850203AA0E80F
:1004B0001850B1E81850A0E81850BFF4F5AF5FEA43
:1004C000027C24BFB1E81850A0E8185044BF18C9F6
:1004D00018C0BDE810405FEA827C24BF51F8043B9D
:1004E00040F8043B08BF7047D20728BF31F8023BF1
:1004F00048BF11F8012B28BF20F8023B48BF00F885
:10050000012B704702F0FF0343EA032242EA024252
:1005100000F037B84FF0000200B5134694469646F7
:10052000203922BFA0E80C50A0E80C50B1F1200106
:10053000BFF4F7AF090728BFA0E80C5048BF0CC0B4
:100540005DF804EB890028BF40F8042B08BF704712
:1005500048BF20F8022B11F0804F18BF00F8012B84
:10056000704770477047704710B500F02FF800686B
:1005700010BD10B5044600F029F8046010BD4FF01E
:1005800000020429C0F0128010F0030C3FF4C4AF45
:10059000CCF1040CBCF1020F18BF00F8012BA8BF6E
:1005A00020F8022BA1EB0C01FFF7B6BF5FEAC17C7C
:1005B00024BF00F8012B00F8012B48BF00F8012BE5
:1005C00070470000004870474052002000487047C4
:1005D0004052002070477546FFF7F4FFAE46050015
:1005E0006946534620F00700854618B020B5FFF74E
:1005F00089FEBDE820404FF000064FF000074FF0A5
:1006000000084FF0000B21F00701AC46ACE8C00930
:10061000ACE8C009ACE8C009ACE8C0098D46704739
:1006200010B50446AFF300802046BDE81040FFF748
:10063000F4BD000001491820ABBEFEE72600020011
:10064000FEE70000014800F089B90000E00000204A
:10065000014800F083B90000E0000020014800F0EC
:100660007DB9000008010020014800F077B90000C2
:10067000080100200FB4134A08B56B460D991060AD
:1006800000209060D060082010610888020A0E489F
:1006900002700A7842704A88120A82708A78C270A0
:1006A0008A88120A02710A794271CA88120A827112
:1006B0008979C1710246034903A800F06CF801B0C2
:1006C0005DF814FB504C0020A1000020014800F010
:1006D00035BC00005C020020014800F02FBC000087
:1006E000BC020020014800F029BC0000FC010020F1
:1006F000014800F023BC00001C03002001681823FF
:10070000CAB2103AB2FBF3F2054B6FF30901032AA8
:100710009B5CC36500D9091D8165084670470000D0
:10072000207A000810B5014600208B698A6A4FF0D4
:10073000C07453B1B3F5005F15D072B1012A0CD06B
:10074000022A0AD0032A09D104E01AB1012A06D0EC
:10075000022A03D1C96AC90100D5012010BDC96AA6
:10076000A142FAD010BD002AF7D0012AF2D0022A05
:10077000F3D0032AF3D010BD7047012000F01ABD5A
:10078000082000F017BD102000F014BD202000F05C
:1007900011BD72B6FEE7F0B590F820500468A46869
:1007A000012D05D0022D03D0416A41F480215DE086
:1007B00014F0406F01D1E50055D5C4F30164022C5B
:1007C00003D9416A41F4000150E00125A5401D60B4
:1007D0008D684FF4C0739DB1CE6835434E6845EACD
:1007E000C605066803EB0417F5514FF4C275076898
:1007F00005EB04150E697E51097D012905D009E03C
:100800000E88CD6845EA4655EBE701684E5946F437
:1008100080764E511179D579567941EA05619579FD
:100820002D0445EA062529434FF4C676056806EBF4
:100830000416A9511178D57841EA05619578527866
:100840002D0445EA022211434FF4C475026805EBFA
:1008500004155151006803EB0411425842F00102A3
:1008600042500020F0BD416A41F400114162012074
:10087000F0BD704730B590F82040012C05D0022C17
:1008800003D0416A41F480215DE00468002955D01D
:100890002469A40754D04FF4D874056804EB0114FC
:1008A0002D5915F00405956005682D594ED0ED08B9
:1008B000556005682C5904F00204D4604FF4DA74D2
:1008C000056804EB01142D5905F00F051561056845
:1008D0002D59C5F30725956105682C59240C5461E1
:1008E0004FF4DC72046802EB0112A4581C70046817
:1008F000A458240A5C700468A458240C9C700468F2
:10090000A258120EDA704FF4DE72046802EB011284
:10091000A4581C710468A458240A5C710468A45883
:10092000240C9C710468A258120EDA71006881B11F
:10093000016941F020010161002030BDE468A8E7B1
:10094000416A41F400114162012030BD6D0D156016
:10095000AFE7C16841F02001C160EDE72DE9F05F2C
:100960000546006800244669D0F804908768D0F8EE
:100970000CB0D0F810A0D0F81880F10748D0F907D3
:1009800014D001218160B80703D5284600F074FA1D
:100990000CE0780702D54FF4006407E0380702D571
:1009A0004FF4805402E0284600F065FAF80516D5A9
:1009B00029684FF480708860B80503D5284600F098
:1009C0005DFA0CE0780502D544F4005407E03805E0
:1009D00002D544F4804402E0284600F04EFAF803C1
:1009E00016D529684FF480308860B80303D52846AF
:1009F00000F046FA0CE0780302D544F4004407E026
:100A0000380302D544F4803402E0284600F037FA77
:100A1000300707D55FEACB6004D52968102044F47D
:100A20000074C86070074FF0080707D55FEA0B70C5
:100A300004D52868C760284600F0AAF9B00706D593
:100A40002868C068800702D0284600F0A3F9700625
:100A500007D55FEACA6004D52968102044F4806491
:100A60000861B00607D55FEA0A7004D528680761F7
:100A7000284600F0FDF9F00606D5286800698007D1
:100A800002D0284600F0F5F9B00308D55FEAC96046
:100A900005D5296810204860284600F0EBF9F003DE
:100AA00007D55FEA097004D528684760284600F03A
:100AB000E8F9300446D55FEA497040D5F00504D521
:100AC0005FEAC87001D044F00104B00504D55FEAC4
:100AD000887001D544F00204700504D55FEA4870BF
:100AE00001D544F00404300529D518F0700F26D044
:100AF00008F07000402815D006DC102809D0202806
:100B00000AD0302816D10AE050280ED0602811D122
:100B10000EE044F008040DE044F010040AE044F054
:100B2000200407E044F0400404E044F0800401E0C5
:100B300044F480742868816921F07001816129681A
:100B400004204860002C05D0686A2043686228466B
:100B5000FFF78FFEBDE8F09F70B5040003D094F856
:100B6000200010B104E0012070BD204600F082F8A2
:100B70002068016841F00101016000F025FC054694
:100B8000052604E000F020FC401B0A2811D820684C
:100B90004068C007F6D02068016821F002010160BA
:100BA00000F012FC05460BE000F00EFC401B0A288A
:100BB00006D9606A40F40030606284F82060D2E7B1
:100BC000206840688007EFD4207E012820680168F3
:100BD0003DD021F080010160607E0128206801681D
:100BE00038D021F040010160A07E01282068016812
:100BF00033D021F020010160E07E012820680168E7
:100C00002ED041F010010160207F0128206801688A
:100C100029D021F008010160607F01282068016867
:100C200024D021F004010160D4E902010843D4E991
:100C30000412114308436168491E08432168C861D2
:100C400000206062012084F82000002070BD41F087
:100C50008001C0E741F04001C5E741F02001CAE74B
:100C600021F01001CFE741F00801D4E741F0040181
:100C7000D9E70000F0B587B0044614216846FFF7B5
:100C800049FC3E4B3E48DFF8F0E01968D4F800C05C
:100C90003B4A03250226092710300024491CF4454D
:100CA0002AD11960012907D1016841F00071016062
:100CB000006800F000700590106840F008001060B7
:100CC0001068CDE9005600F00800CDE904706946CF
:100CD0002C48CDE9024500F079FA002205211320C5
:100CE00000F0E4FB132000F0D3FB002205211420C8
:100CF00000F0DCFB14203AE0DFF88CE0F44538D15A
:100D0000D0F800C04CF0806CC0F800C0D0F800C033
:100D100001290CF0806CCDF814C0196007D101686E
:100D200041F000710160006800F0007005901068EB
:100D300040F002001060106802AB00F00200059065
:100D40006020CDE9000683E8B00069460F4800F056
:100D50003DFA002205213F2000F0A8FB3F2000F0D3
:100D600097FB00220521402000F0A0FB402000F06E
:100D70008FFB07B0F0BD0000006400400C000020B5
:100D800030380240000C024000680040000402407D
:100D90007047000010B58AB004466B4602AA0021D5
:100DA000FFF768FD29492068884218D10298A0F50C
:100DB0000070013810D0042802D0052807D102E0C5
:100DC0006946234801E06946224803F05FFC224956
:100DD000012008700AB010BD69462048F5E7204997
:100DE0008842F7D1029840F20322A0F203219042F8
:100DF0001FD00CDCA0F5807081381DD0802814D065
:100E00008128E7D16946174803F040FCE2E77E29D4
:100E100017D0A1F500717E39DCD11349684603F083
:100E200011FF114803F04EFFD4E70E4869466C38B5
:100E3000EAE769460D48E7E70B49684603F030FFEB
:100E4000C8E70949684603F085FFC3E7006400402E
:100E5000CC4D0020604D0020A0000020005000205C
:100E600000680040944F0020004D00206C5000208E
:100E700070477047704770477047704770477047BA
:100E8000704770472DE9F0410446876D00F09CFAE9
:100E9000064694F835000025022806D080206065BB
:100EA00084F834500120BDE8F0812068016821F009
:100EB000160101602068416921F080014161206CC8
:100EC00008B9A06C20B12068016821F00801016018
:100ED0002068016821F0010101600CE000F074FA63
:100EE000801B052807D920206065032084F8350081
:100EF00084F83450D7E720680068C007EED194F832
:100F00005C103F208840B860012084F8350084F8E8
:100F100034500020C7E790F83510022903D0802113
:100F2000416501207047052180F83510006801688F
:100F300021F0010101600020704700002DE9F84315
:100F400004464FF00009CDF8009063484FF4165165
:100F5000A56D0068B0FBF1F72E6894F85C100820CE
:100F600000FA01F131420FD021680A6852070BD50F
:100F70000A6822F004020A6094F85C108840A860B5
:100F8000606D40F00100606594F85C104FF001085E
:100F900008FA01F0304208D021684969090604D5F1
:100FA000A860606D40F00200606594F85C10042059
:100FB0008840304208D021680968890704D5A860B4
:100FC000606D40F00400606594F85C10102088406B
:100FD000304218D021680968090714D5A860206834
:100FE0000168490304D50068000308D5A16C07E037
:100FF0000168C90503D4016821F008010160216C72
:1010000009B12046884794F85C102020884030427F
:1010100031D021680968C9062DD5A86094F835003B
:1010200005282068016806D0490347D500680003F9
:101030001DD4616C1CE021F016010160206841693B
:1010400021F080014161206C08B9A06C20B12068BA
:10105000016821F00801016094F85C103F2088408D
:10106000A86084F8358084F83490216D1FE0E16B2E
:1010700009B120468847606D00282BD0606DC007FD
:1010800014D0052084F835002068016821F00101A2
:1010900001600098401C0090B84203D820680068A6
:1010A000C007F6D184F8358084F83490E16C0029CB
:1010B00010D001B02046BDE8F04308470168C905DB
:1010C000D5D4016821F01001016084F8358084F8DE
:1010D0003490CCE7BDE8F8831C0000202DE9F041F6
:1010E000044600F071F906465CB1022084F8350030
:1010F000002584F834502068016821F00101016066
:101100000DE00120BDE8F08100F05EF9801B0528AC
:1011100005D920206065032084F83500F2E72068B7
:101120000068C007F0D12268116820480140D4E966
:1011300001031843D4E90336334318436369184362
:10114000A3691843E3691843236A18430843616A93
:10115000042903D1D4E90B13194308431060206814
:101160004069666A20F0070130460E4301270428D3
:101170000CD1A06A0643E06A40B12046FFF7D2FADC
:1011800020B14020606584F83570BAE72068466178
:101190002046FFF7B3FA94F85C203F21914081602C
:1011A000656584F835700020ACE700003F8010F0E2
:1011B00070470000044910B50A68024202D0086076
:1011C000FFF7F6FF10BD0000143C01402DE9F84F79
:1011D000DFF8BCA1002201250AF1040B03264FF021
:1011E0000F090BF1040E00BF0B6805FA02F423404F
:1011F000A34270D10F7907F00307012F01D0022F0E
:1012000016D187684FEA420806FA08FC27EA0C075D
:10121000D1F80CC00CFA08FC4CEA070CC0F808C066
:101220004768A7430C79C4F3001494403C434460DE
:101230000C79E443A4070AD0C4684FEA420C06FACA
:101240000CF7BC438F6807FA0CF72743C7600C798B
:1012500004F00304022C12D1D40800EB840CDCF857
:1012600020405707FF0E09FA07F824EA0804D1F8CE
:10127000108008FA07F848EA0408CCF820800468CF
:101280004FEA420C06FA0CF7BC430F7907F003074C
:1012900007FA0CF7274307604C6814F4403F70D0FE
:1012A0003C4C276847F480472760246822F00307F6
:1012B00004F480440094384C07EB040CDCF8084834
:1012C00097074FEA177809FA08F7BC43334FB8423B
:1012D00002D1002724E054E0314FB84201D1012768
:1012E0001EE0304FB84201D1022719E02E4FB8421C
:1012F00001D1032714E02D4FB84201D104270FE09C
:101300002B4FB84201D105270AE02A4FB84201D13C
:10131000062705E0284FB84201D1072700E008273B
:1013200007FA08F72743CCF80878DAF80040574660
:10133000D1F804C09C435FEACC3C00D51C433C6020
:10134000DBF800405F46D1F804C09C435FEA8C3C68
:1013500000D51C433C60DEF800407746D1F804C05D
:101360009C435FEACC2C00D51C433C60084F0C37F3
:101370003C68D1F804C09C435FEA8C2C00D51C4328
:101380003C60521C102AFFF42FAFBDE8F88F00001C
:10139000003C01404438024000300140000002405F
:1013A0000004024000080240000C0240001002400D
:1013B0000014024000180240001C02400AB1816182
:1013C00070470904FBE7000001488068704700008F
:1013D0001000002002488168027811448160704743
:1013E000100000200B4810B5016841F40071016045
:1013F000016841F480610160016841F4807101601D
:10140000032000F073F80F2000F006F800F024F835
:10141000002010BD003C024070B50D4D04464FF455
:101420007A712878B1FBF0F00A490968B1FBF0F055
:1014300000F010FB48B9102C07D200222146501EA4
:1014400000F034F800206C6070BD012070BD000019
:10145000100000201C0000200C4882B0016841F4FC
:1014600080410160006800F4804000900748001F40
:10147000016841F0805101600068002200F0805056
:1014800000900F21901E02B000F010B844380240C6
:10149000002809DB00F01F02012191404009800073
:1014A00000F1E020C0F8001170470000F0B40E4BCE
:1014B0001B680C46C3F30223C3F10705042D00D9B2
:1014C0000425191D072901D2002300E0DB1E012697
:1014D00006FA05F1491E214099409E40761E1640AD
:1014E0003143F0BC01F0CABA0CED00E0064900F04F
:1014F000070208684FF6FF03184040EA0220034A3B
:1015000010430860704700000CED00E00000FA0591
:101510002DE9F0470E46050065D0DFF81481D8F8B4
:101520000000F7B200F00700B04207D288F8007060
:10153000D8F8000000F00700B04254D128683D4CB4
:10154000810712D5400703D5206840F4E0502060A1
:101550002878000703D5206840F4604020602068A8
:10156000A96820F0F000084320602878C0072DD03B
:10157000304968680839012812D0022813D003289E
:1015800011D00968890700292DDA216821F00301AB
:1015900001432160FFF718FF814641F2883A0EE0CF
:1015A00009688903EFE709688901ECE7FFF70CFF99
:1015B000A0EB0901514502D90320BDE8F08720685E
:1015C000696800F00C00B0EB810FEFD1D8F8001083
:1015D000404601F00701B14207D90770006800F0EA
:1015E0000700B04201D00120E7E72878400705D581
:1015F0002068E96820F4E05008432060287800075C
:1016000006D52068296920F4604040EAC1002060C6
:1016100000F038F82168084AC1F30311515CC84052
:101620000649086006480068FFF7F6FE0020C4E798
:10163000003C024008380240287A00081C000020C4
:10164000140000200448054900680968044AC1F3F1
:101650008221515CC84070471C00002008380240BD
:10166000387A00080448054900680968044AC1F34B
:101670004231515CC84070471C00002008380240CD
:10168000387A0008154810B5006810F00C021448AC
:1016900013D01449042A0FD0082A0ED10F4C241F4E
:1016A0002268236802F03F025B0207D52068C0F37E
:1016B0008810A0FB010106E0084610BD2168C1F3B7
:1016C0008811A1FB00010023FEF72EFE2168C1F363
:1016D0000141491C4900B0FBF1F010BD083802403F
:1016E0000024F400001BB7002DE9F84F04006ED071
:1016F0002078DFF84C93C007A9F104054AD009F11E
:1017000004000168C1F38101012908D00068C0F319
:10171000810002280AD1D9F80000400206D52868C5
:10172000800337D560680028E1D033E06068B0F509
:10173000803F10D0B0F5A02F286810D020F4803062
:101740002860286820F4802028606068A8B1FFF72E
:101750003BFE06460DE0286840F48030F4E740F494
:1017600080202860F7E700BFFFF72EFE801B64286B
:1017700073D828688003F7D50CE0FFF725FE0646EE
:1017800005E000BFFFF720FE801B6428F0D8286822
:101790008003F7D42078DFF8AC8280074FF0000A8E
:1017A0003ED5A748001D016811F00C0F08D0006855
:1017B000C0F3810002280BD1D9F80000400207D401
:1017C0002868800716D5E068012800D112E033E1CF
:1017D000E068B8B10120C8F80000FFF7F5FD064643
:1017E00005E000BFFFF7F0FD801B0228C0D8286885
:1017F0008007F7D52868216920F0F80040EAC10089
:1018000028600DE0C8F800A0FFF7DEFD064604E002
:10181000FFF7DAFD801B02281FD828688007F7D45D
:101820002078000722D5864F87486169703771B1EB
:1018300001210160FFF7C8FD064604E0FFF7C4FD83
:10184000801B022809D838688007F7D50EE0C0F859
:1018500000A0FFF7B9FD064605E082E0FFF7B4FD02
:10186000801B02287DD838688007F7D4207840078D
:1018700068D5DFF8CCB100270BF13C0BDBF800009A
:10188000C0000BD4DBF8001041F08051CBF8001001
:10189000DBF80000012700F0805000906B4E3068AC
:1018A000C00510D4306840F480703060FFF78CFDC4
:1018B000009005E0FFF788FD0099401A022850D8F3
:1018C0003068C005F6D55E4EA0686C3601280FD092
:1018D0000528306810D020F001003060306820F01A
:1018E00004003060A068B8B1FFF76EFD00900FE013
:1018F000306840F00100F4E740F004003060F7E7A2
:10190000FFF762FD0099411A41F28830814266D8A2
:1019100030688007F4D50EE0FFF756FD009007E031
:10192000FFF752FD0099411A41F28830814256D8A2
:1019300030688007F4D42FB1DBF8001021F080511B
:10194000CBF80010A069C8B33D49091D0968C1F36F
:10195000810102294AD00228504607D0C8F8600009
:1019600000E03CE0FFF730FD04463BE04746C8F8A6
:101970006000FFF729FD064605E000BFFFF724FDE4
:10198000801B02282BD828688001F7D4D4E90701EE
:101990000843A16A2E4A490802EB0141626A41EA02
:1019A0008211084394F82C1040EA0161C9F8001034
:1019B00001203866FFF708FD044606E03EE000BF60
:1019C000FFF702FD001B022809D828688001F7D51F
:1019D00034E000BFFFF7F8FC001B022802D9032007
:1019E000BDE8F88F28688001F4D427E00128F7D0FB
:1019F000D9F80000E26900F4800191421CD1226A0A
:101A000000F03F01914217D147F6C071626A014070
:101A1000B1EB821F10D1A26A4FF0FF3300F44031C6
:101A200003EB5202B1EB024F06D194F82C1000F0F8
:101A30007060B0EB016F01D00120D1E70020CFE74B
:101A40000438024000004742800E474200700040C8
:101A50000000FFFF10B5401EB0F1807F01D30120D0
:101A600010BD4FF0E02460610F21601701F006F80F
:101A70000020A06107202061002010BD7047704742
:101A8000F8B5016804460868CA684B6910F00F0F82
:101A90004FF0000559D003F0010602F49077374368
:101AA00065D0C10705D0D10503D5216C41F00101F6
:101AB0002164410705D5D90703D0216C41F002010B
:101AC0002164810705D5D90703D0216C41F00401B9
:101AD0002164010707D502F02001314303D0216CB6
:101AE00041F008012164216C00293AD0800604D518
:101AF000900602D5204600F052FE20684069216C15
:101B0000C0F38010090700D460B3204600F020FE27
:101B100020684069400621D52068143050E8001F35
:101B200021F0400140E80012002AF5D1A06BA8B1D5
:101B30006C490165A06BFFF7EEF9002811D0A06B8E
:101B4000016D01B0BDE8F040084783060FD593064C
:101B50000DD52046BDE8F84000F021BE2046FFF735
:101B60008EFFF8BD2046FFF78AFF2564F8BD266B7F
:101B70002023012E79D1C60677D5D60675D50868FB
:101B8000486800904869400640D5A16B08684068E5
:101B90000004000CEAD0A28D8242E7D9E085C86932
:101BA000B0F5807F2DD020680C3050E8001F21F464
:101BB000807140E80012002AF5D12068143050E806
:101BC000001F21F0010140E80012002AF5D1206831
:101BD000143050E8001F21F0400140E80012002AB4
:101BE000F5D184F83E30256320680C3050E8001FA2
:101BF00021F0100140E80012002AF5D1A06BFFF798
:101C000041F9A08DE18D401A81B229E0A08DE18DCE
:101C1000401A81B2E08D0028A8D00029A6D0206803
:101C20000C3050E8002F22F4907240E80026002E7D
:101C3000F5D12068143050E8002F22F0010240E86E
:101C40000026002EF5D184F83E30256320680C3044
:101C500050E8002F22F0100240E80023002BF5D1BD
:101C60002046FFF70BFFF8BDFFE705062BD515064D
:101C700029D594F83D002128F5D1A068B0F5805F02
:101C800001D12069B0B1206A411C2162216800782D
:101C90004860E08C401E0004000CE084E3D1206822
:101CA000C16821F08001C1602068C16841F0400135
:101CB000C160D8E7206A0088C0F308004860206A45
:101CC000801C2062E5E74006CDD55006CBD5CA681A
:101CD000204622F04002CA6084F83D3000F065F9E9
:101CE000C1E700004127000870B5040004D094F853
:101CF0003D00002510B106E0012070BD84F83C5085
:101D0000204600F023F8242084F83D002068C168B4
:101D100021F40051C160204600F0A2FD2068016955
:101D200021F4904101612068416921F02A0141615B
:101D30002068C16841F40051C1602564202084F806
:101D40003D0084F83E00002070BD00002DE9F04FFA
:101D500087B0054614216846FEF7DCFB8748DFF8AC
:101D600018821438D5F800C0844B022103220024C5
:101D7000071586154FF0070E4FF44039C4454FD173
:101D8000D3F800C04CF0100CC3F800C01B6803F07F
:101D900010030593036843F002030360036803F034
:101DA00002030593036843F00103036000688B4658
:101DB00000F0010005908020CDE9000BCDE9024242
:101DC0009246F0466946CDF810E06D48FFF7FEF9FF
:101DD0007000CDE9000BCDE9024A6946CDF81080CC
:101DE0006848FFF7F3F9DFF8A4816749404602C06D
:101DF000F104E0E80214E0E8034740F8044C80E80E
:101E000050024046C8F82440FFF768F908B1FEF7D1
:101E1000C0FCC5F83880C8F8385007B0BDE8F08F6E
:101E2000DFF86C81C44541D1544B1B1FD3F800C06F
:101E30004CF4802CC3F800C01B6803F48023059386
:101E4000036843F004030360006800F00400059099
:101E50004FF440608DE81300CDE9032E69464D48EC
:101E6000FFF7B4F9DFF824814B4908F160084046D8
:101E700002C04FF00061E0E80214E0E8034740F8D8
:101E8000044C80E850024046C8F82440FFF726F989
:101E900008B1FEF77EFCC5F8388000220521272016
:101EA000C8F83850FFF702FB272062E0DFF8EC802B
:101EB000C445B2D1D3F800C0A2464CF0200CC3F800
:101EC00000C01B6803F020030593036843F0400340
:101ED0000360006800F0400005904FF484408DE8F6
:101EE00013000820CDE9032069462D48FFF76EF95D
:101EF000DFF89880244908F1C0084046603902C0E4
:101F00008905E0E80214BB46E0E803474F4640F885
:101F1000044C80E8D0004046C8F82440FFF7DEF8C3
:101F200008B1FEF736FC18481E4CC5F8388018304A
:101F3000C8F8385020604FF0206060604020A060FA
:101F4000C4E903AB04F118015046C4F814A081E8B9
:101F5000C1002046C4F824A0FFF7C0F808B1FEF77E
:101F600018FC6C63002205214720A563FFF79EFA49
:101F70004720FFF78DFA50E7001001404438024037
:101F8000000402400000024088640240FC0100207E
:101F90000048004000080240286002400014014050
:101FA000001802401C03002070477047FEE7000045
:101FB0000F4810B50D4901600321416000214FF425
:101FC00010228160C0E903124FF4001242610176D1
:101FD00041768176C17601774177FEF7BDFD002815
:101FE00003D0BDE81040FEF7D4BB10BD0064004034
:101FF000E00000200F4810B50D4901600321416049
:1020000000214FF410228160C0E903124FF4001246
:102010004261017641768176C17601774177FEF79C
:102020009BFD002803D0BDE81040FEF7B2BB10BDF9
:102030000068004008010020194808B5016841F413
:1020400080010160016801F480010091016841F4A0
:10205000001101600068002200F4001000900521CA
:102060000C20FFF723FA0C20FFF712FA00220521BB
:102070003920FFF71BFA3920FFF70AFA0022052161
:102080004420FFF713FA4420FFF702FA002205214B
:102090004520FFF70BFABDE808404520FFF7F8B9E7
:1020A0003038024010B50B4A00210B4802F09EFE6A
:1020B0000A4C084A002120602432094802F096FEAA
:1020C000044A606048320021064802F08FFEA0609A
:1020D00010BD0000B4790008354900080000002058
:1020E00075470008C96000082DE9F04387B0142146
:1020F0006846FEF70FFA5448016841F0020101609A
:10210000016801F002010591016841F040010160A0
:10211000016801F040010591016841F00101016091
:10212000016801F001010591016841F008010160B9
:10213000016801F008010591016841F004010160A6
:10214000016801F004010591016841F0800101601E
:10215000016801F080010591016841F020010160F2
:1021600000683A4F00F020000590012240213846D7
:10217000FFF724F9DFF8D880012210214046FFF74D
:102180001DF9DFF8D090012211464846FFF716F9F5
:1021900001244025CDE90054029469463846039451
:1021A000FFF714F800950225CDE901540320CDE98D
:1021B000035069462848FFF709F809204FF4041630
:1021C000CDE90006694602943846FEF7FFFF10206D
:1021D000CDE9000469464046CDE90245FEF7F6FF29
:1021E0003020CDE90006694602941C48FEF7EEFF58
:1021F0000094694648460194CDE90245FEF7E6FFA2
:10220000062100220846FFF751F90620FFF740F9A2
:10221000002205210920FFF749F90920FFF738F9C5
:10222000002205210A20FFF741F90A20FFF730F9C3
:10223000002205211720FFF739F91720FFF728F9A9
:1022400007B0BDE8F08300003038024000180240BB
:102250000000024000040240001402400008024056
:102260000C4810B50A4901604FF46121416000211A
:1022700081600C22C160C0E904128161C161FFF775
:1022800033FD002803D0BDE81040FEF782BA10BD30
:1022900000100140300100200C4810B50A490160CF
:1022A0000B494160002181600C22C160C0E9041229
:1022B0008161C161FFF718FD002803D0BDE810401F
:1022C000FEF767BA10BD000000480040740100200E
:1022D000A08601000C4810B50A4901604FF4E131B5
:1022E0004160002181600C22C160C0E9041281615B
:1022F000C161FFF7F9FC002803D0BDE81040FEF7EC
:1023000048BA10BD00140140B8010020FEE7FEE706
:1023100090ED032A80ED022A90EC021A31EE611A48
:1023200080ED031ADFED451AB4EEE01AF1EE10FA73
:1023300002DD71EE610A08E0F1EE600AB4EEE01A27
:10234000F1EE10FA03D271EE210AC0ED030AD0EDCE
:10235000040AD0ED031A60EEA10AC0ED070A90ED61
:10236000051A61EE212A90ED081A71EEC21A02EEEA
:10237000801A80ED081A90ED062A61EE821A21EE8D
:10238000800A80ED090AD0ED0A1AB1EE612AF4EE56
:10239000C20AF1EE10FA02D2F0EE420A06E0F4EEC2
:1023A000E10AF1EE10FA01DDF0EE610AC0ED070A74
:1023B000D0ED0B1AB1EE612AB4EEC21AF1EE10FAAA
:1023C00002D2B0EE421A06E0B4EEE11AF1EE10FAD3
:1023D00001DDB0EE611A80ED081AD0ED0C1AB1EEF5
:1023E000612AB4EEC20AF1EE10FA02D2B0EE420A4D
:1023F00006E0B4EEE10AF1EE10FA01DDB0EE610A9A
:1024000070EE810A80ED090A30EE800A80ED0D0A37
:10241000D0ED0E0AB1EE601AB4EEC10AF1EE10FA78
:1024200002D2B0EE410A06E0B4EEE00AF1EE10FA94
:1024300001DDB0EE600A80ED0D0A70470000B44384
:1024400090ED032A80ED022AD0EC020A70EEC11A48
:10245000C0ED031AD0ED040A60EEA10AC0ED070A30
:1024600090ED051A61EE212A90ED081A71EEC21A5C
:1024700002EE801A80ED081A90ED062A61EE821AAB
:1024800021EE800A80ED090AD0ED0A1AB1EE612A28
:10249000F4EEC20AF1EE10FA02D2F0EE420A06E0C1
:1024A000F4EEE10AF1EE10FA01DDF0EE610AC0EDA2
:1024B000070AD0ED0B1AB1EE612AB4EEC21AF1EEA2
:1024C00010FA02D2B0EE421A06E0B4EEE11AF1EED2
:1024D00010FA01DDB0EE611A80ED081AD0ED0C1A89
:1024E000B1EE612AB4EEC20AF1EE10FA02D2B0EEF9
:1024F000420A06E0B4EEE10AF1EE10FA01DDB0EEB8
:10250000610A70EE810A80ED090A30EE800A80EDE2
:102510000D0AD0ED0E0AB1EE601AB4EEC10AF1EE6A
:1025200010FA02D2B0EE410A06E0B4EEE00AF1EE93
:1025300010FA01DDB0EE600A80ED0D0A7047000070
:102540002DE9F04116460C4605007DD0002C7BD0CD
:102550004A49162201F11600FDF75DFF4749112295
:102560002C3101F11100FDF756FF2888C0F30A0352
:1025700023806878A978C00840EA4110C0F30A07B0
:102580006780A878E978800940EA81002979A3F575
:10259000806340EA8120C0F30A01A18028796A792A
:1025A000400840EAC210C0F30A00E0806A79A7F54B
:1025B0008067C2F30112E2726A79A1F58061920923
:1025C000A272EA88A2812A89E2816A8922822A7B10
:1025D000A2746A7BE274B5F80EC0A4F814C02A8A0B
:1025E00023806780A180A0F58060E080A2F58062F2
:1025F00022810CF001007070207DC0F34000F0706B
:10260000207DC0F38000B070207DC0F3C000307129
:10261000207DC0F300103072207DC0F34010F071B7
:10262000207DC0F380107071207DC0F3C010B071A8
:10263000A08AC0F300207072A08AC0F34020B0725C
:10264000A08AC0F3802000E016E0F072A08A0C4956
:10265000C0F3C0203073A08AC0F300307073A08A2A
:10266000C0F34030B073A08AC0F38030F073A08A0A
:10267000C00B307401204860BDE8F081684C002038
:10268000AC00002010B5FEF7A5FE04F00BF9012800
:1026900003D0BDE8104003F039BE10BD30B593B093
:1026A00030216846FDF736FF14210CA8FDF732FFF4
:1026B0001D480025016841F080510160006800F06C
:1026C000805011901948016841F480410160006810
:1026D000022400F480401190012000900004019039
:1026E0008001CDE9064006200890A820CDE9090424
:1026F00004200B906846FEF7F7FF08B172B6FEE7BC
:102700000CA90F2081E831004FF4A0500F904FF436
:102710008050109005210CA8FEF7FAFE002801D089
:1027200072B6FEE713B030BD403802400070004082
:102730000248016841F470010160704788ED00E0D3
:1027400010B5806B0021C185C184FFF798F910BDD9
:1027500001680C3151E8002F22F4907241E8002307
:10276000002BF5D10168143151E8002F22F001024D
:1027700041E80023002BF5D1016B012909D1016843
:102780000C3151E8002F22F0100241E80023002B09
:10279000F5D1202180F83E1000210163704708B573
:1027A00090F83E10222901D0022008BD82684FF423
:1027B00080539A4201D1016921B1816A9A421BD0AA
:1027C0004AB10AE00268816A5268C2F308020A80CC
:1027D000816A891C08E0026972B10268526802F0DD
:1027E0007F020A70816A491C8162C18D491E0904F9
:1027F000090CC18503D019E002685268F1E701684D
:10280000CA6822F02002CA600168CA6822F4807295
:10281000CA6001684A6922F001024A61202180F8F9
:102820003E10016B012903D0FFF7BEFB002008BD5D
:102830000021016301680C3151E8002F22F01002E1
:1028400041E80023002BF5D101680A68D20602D5C1
:102850000A6849680091818DFFF710F9E6E70000EA
:1028600070B5044600680169E26821F440511143E3
:1028700001612169A068E269084361691143084365
:102880002168CA6849F20C639A430243CA6020680F
:102890004169A26921F440711143416131492068C5
:1028A000884202D03049884202D1FEF7DBFE01E0C7
:1028B000FEF7C8FEE2690023192164253226B2F52D
:1028C000004F626828D0A0FB0101930F9200FDF732
:1028D0002BFD0146B0FBF5F06FF01802504301EB01
:1028E000800006EB0010B0FBF5F000F0F002B1FB49
:1028F000F5F002EB0012B1FBF5F06FF0180358434E
:1029000001EB800006EB0010B0FBF5F000F00F00CB
:1029100021681044886070BDA0FB010192185B41E2
:10292000FDF702FD0146B0FBF5F00201B1FBF5F049
:102930006FF01803584301EB800006EBC000B0FBBA
:10294000F5F000F0F80002EB4002B1FBF5F058435F
:1029500001EB800006EBC000B0FBF5F000F00700D3
:10296000D6E70000001001400014014010B50348F4
:10297000FFF786F8BDE8104000F002B874010020AF
:10298000204882B0006801688906016803D5406864
:10299000009002B07047C906FBD5016840681A4A2A
:1029A000009010684168194BC1F1240189B2198067
:1029B00024234360106803681B0310D4036843F4A6
:1029C000002303601068026842F0010202601229CD
:1029D000DFD10F4AA2F12C0101F14E000FE00D4AA8
:1029E000936A23F400239362026842F001020260BA
:1029F0001229CED1064AA2F12C0101F1720002B0D7
:102A0000FFF79EBD740100205C020020AC00002096
:102A1000944C0020006002400148FFF731B80000EC
:102A2000B8010020FEE703B401984100009850EA85
:102A3000C12018BF04204A0D18BF40F0010040F229
:102A4000FF72B2EB515F08BF40F00200012808BFDF
:102A5000052002B070474100080218BF04200A0E8A
:102A600018BF40F001004FF07F4232EA010108BF79
:102A700040F00200012808BF052070470907090E31
:102A8000002804DB00F1E02080F80014704700F01B
:102A90000F0000F1E02080F8141D704710B54FF0D2
:102AA0000E402DED028BB0EE408A18EE104A00EB7E
:102AB0004400B0F1506F4AD84FF0FC40B0EB440FE7
:102AC00022D2B0EEC80AF7EE000A30EEC00AF6EEE7
:102AD000000A60EE208A18EE900A03F0BCF801EEBE
:102AE000100A14F0004F1DBFDFED2D0A9FED2D0AD7
:102AF000B1EE411ADFED2C0A08BF9FED2C0AF8EE6B
:102B0000001A21EE218A05E0DFED290A68EE088A25
:102B1000B0EE600A9FED271ADFED271A30EE080AA3
:102B200048EE811A9FED251A08EEA11ADFED241A4E
:102B300048EE811A9FED231A08EEA11A68EE281AB2
:102B4000BDEC028B01EE810A30EE200A10BD4FF081
:102B5000E440B0EB440F0CD918EE100AFFF77BFFEE
:102B6000042808BF01F00AFDB0EE480ABDEC028B54
:102B700010BD4FF07F40B0EB440F07D2B0EE480AD3
:102B8000BDEC028BBDE8104001F0EABC0120FDF76E
:102B9000F0FCBDEC028BBDE8104001F0E7BC00008A
:102BA0000000C9BF22AAFDB90000C93F22AAFD3911
:102BB0000000000024FE1C3DC78AD83C1E67383D3B
:102BC0001B93993DAFAA2A3E70B54FF068422DED98
:102BD000048BF0EE408A18EE900AB0EE608A18EE90
:102BE000101A02EB4003B3F1654F3CBF02EB410208
:102BF000B2F1654F7DD200BFC0F3C753C1F3C752D6
:102C00009A1A1B2A09DD10F0004F14BF9FED830AAA
:102C10009FED830ABDEC048B70BD12F11A0F36DAFA
:102C200011F0004F09D010F0004F0CBF9FED7D0A4E
:102C30009FED7D0ABDEC048B70BD88EE889A19EE7D
:102C4000100AFFF708FF042808BF01F097FC18EEF0
:102C5000900AFFF700FF054618EE100AFFF7FBFE8B
:102C6000044619EE100AFFF7F6FE042D18BF052DD5
:102C700008D1042C18BF052C04D1002804BF022061
:102C8000FDF777FCB0EE490ABDEC048B70BD420045
:102C9000B2EB410F3AD910F0004F19BFDFED630AD4
:102CA0009FED630ADFED630A9FED630AB0EE481AF9
:102CB0000A46B1EE688A80F00041F0EE418A104683
:102CC0000A1A5200B2F1807F34D2484010F0004F0F
:102CD000DFED5A1A9FED5A2A1DBFBEEE001A70EEA4
:102CE000E10A30EE420AB6EE001A08BF70EEA10A01
:102CF00000E040E008BF30EE020AB0EE682A01EEC4
:102D0000482A08EE818AC2EE081A15E011F0004F39
:102D100004BF9FED4C0AF0EE400AD1D010F0004FF6
:102D200019BFDFED490A9FED490ADFED490A9FED22
:102D3000490AC5E7C8EE881A21EEA11A9FED462A76
:102D4000DFED462A41EE022A9FED452A01EE222AB6
:102D5000DFED442A41EE022A9FED432ABDEC048BAD
:102D600001EE222A21EE811A01EE020A30EE210A3A
:102D700030EE200A70BD4FF07F42B2EB400F28BF0B
:102D8000B2EB410F09D2F0EE480AB0EE680ABDEC92
:102D9000048BBDE8704001F0E6BB40EA01035B0034
:102DA00008BF41F0FF410BD0B2EB400F08BFB2EBC0
:102DB000410F08D120F0804008EE900A21F08041B8
:102DC00008EE101A18E7B2EB400F12BF5FEA41039A
:102DD00040F0FF4001F000413FF40EAFB2EB410F75
:102DE00012BF5FEA400200F0004041F0FF413FF4B3
:102DF00003AF4A0092EA40033FF5FEAE002AACBFA3
:102E00009FED1A0A9FED1A0A68EE808A28EE008A62
:102E100018EE900A18EE101AEEE60000DB0FC9BF9C
:102E2000DB0FC93FDB0F4940DB0F49C00000C9BFC2
:102E300022AAFDB90000C93F22AAFD390060ED3E7B
:102E4000C30ACE3700000000000049C022AA7DBAA4
:102E50000000494022AA7D3A2DAD65BD8FB8D53D11
:102E60000FB511BE61C84C3EA8AAAABE0000804F93
:102E70000000802F0000000010B52F499FED2C1B93
:102E80002DED020B84B0059820F000408842D8BF99
:102E90009DED040B2DDD2949884209D1049840B9E4
:102EA0004FF00100FDF765FB01F02AFB06B010BDF5
:102EB00005DB9DED040B01F00FFB06B010BD68466D
:102EC0009DED040B00F008FF10F0030004BF9DED22
:102ED000021B9DED000B0CD001280ED09DED021BB6
:102EE0009DED000B022817D0012001F045FA06B035
:102EF00010BD01F00DF906B010BD9DED021B9DED5A
:102F0000000B012001F038FA51EC100B03F080FEA9
:102F100006B041EC100B10BD01F0FAF851EC100BAB
:102F200003F076FE06B041EC100B10BD000000006F
:102F30000000000000000000FB21E93F0000F07FDE
:102F40002DE9F04D2DED040B2DED0E8B96B0DDE946
:102F50002550279CDDF890A025F0004624F000487D
:102F6000BAF1000F14BF0121002101EB4502FC4919
:102F700053184A1093422AD3002814BF0123002378
:102F800003EB44030B44F7498B4220D358EA00017A
:102F90009FEDF59B76D0DFF8D8B35D4503D1BAF14C
:102FA000000F05D188E0BAF1000F08BF002100D062
:102FB000012101EB450111F5001F08D8002814BFBD
:102FC0000121002101EB440111F5001F0BD99DEDFA
:102FD000261B9DED240B16B0BDEC0E8B04B0BDE896
:102FE000F04D01F083BA0027002DBCBFE1498845B0
:102FF00021DAE1498845A8BF02271CDAC3451ADC5B
:10300000DE4901EB2851142908DDC1F1340220FA10
:1030100002F101FA02F282420DD108E058B9C1F181
:10302000140228FA02F101FA02F2424503D101F03A
:103030000101C1F1020756EA0A0124D1002C22DA6B
:10304000002D18BF022F01D0012F0AD00220FDF75A
:1030500090FA16B0BDEC0E8B04B0BDE8F04D01F057
:1030600023BA0220FDF785FA01F01EFA51EC100B8D
:1030700003F0CEFD41EC100B16B0BDEC0E8B04B08E
:10308000BDE8F08D18E09FEDBEAB9FEDBF8B002833
:1030900071D1B848804522D105F1804010F58010EB
:1030A00008BFBAF1000F07D0B3450ADC002CA8BF57
:1030B0009DED260BE0DA0DE0B0EE490AF0EE690A6C
:1030C000DAE7002C06DA9DED260B51EC100B03F02D
:1030D0009FFD6FE0AE48784490ED000BCCE7D845FB
:1030E0004DD1002C48DA2EB186423AD1BAF1000F08
:1030F00042D126E0BAF1000F13D00220FDF739FAD1
:1031000001F00EFA8DED020B9DED240B8DED000B01
:1031100010EE900A039961F31E0003909DED020BDF
:10312000AAE78DED02AB9DED240B1AEE901A10EE7E
:10313000900A8DED000B61F31E0003909DED020BD4
:103140009AE78DED028B9DED240B18EE901A10EE90
:10315000900A8DED000B61F31E0003909DED020BB4
:103160008AE709DA9DED240B51EC190B53EC102B77
:1031700003F048FE1EE020E09DED240B7CE7864234
:103180001BDAB4F1804F0DD0A4F10050B0F1FF5024
:1031900013D1002D11DB9DED240B51EC100B02F02F
:1031A00023FD07E09DED240B53EC102B51EC100B8D
:1031B00000F0C2BC41EC100B5EE79DED240B51EC1E
:1031C000100B01F0CBFABAF1000FCDE90E0142D19C
:1031D0009FED710B46B3A6F1E040B0F17F600CD0DB
:1031E0005E4538D1002D00DAA7B3022F0CBF0120B5
:1031F0004FF0FF3003F08DFFDCE7002D01DD002CE8
:103200000DDA002D01DD002C1FDB002D16DA002C5D
:1032100014DB012F08BF9FED620B3FF42DAFB0EE22
:103220004A0AF0EE6A0A27E7022F18BF002D0CD0D9
:10323000012F0AD1002DFFF61FAF06E0002DB8BF09
:10324000002C08DA012F3FF417AFB0EE480AF0EE79
:10325000680A11E71BE0012000EBE57050EA070166
:1032600015D0791EB0EE498AF0EE698A084308BF8E
:103270009FED4D8B4E480025804570DD4D494E48F1
:10328000884514DDB0420DDB002C19DB2FE0012056
:10329000FDF76FF916B0BDEC0E8B04B0BDE8F04D34
:1032A00001F02EB9B34502DC002C09DC1FE0864298
:1032B00002DA002C1BDA03E05E452BDD002C16DD64
:1032C0000220FDF756F901F02BF98DED020B53ECBE
:1032D0001A2B51EC180B03F083FFCDE90001039981
:1032E000019861F31E0003909DED020BC4E60220DD
:1032F000FDF73FF901F024F910EE901A18EE900A4C
:103300008DED020B8DED008B61F31E0003909DEDA2
:10331000020BB1E69DED0E0B53EC192B51EC100B8B
:1033200004F06AF99FED260BCDE9080153EC102B50
:103330009DED080B51EC100B03F052FF9FED221B8B
:1033400053EC112B04F080F89DED081B53EC112B6E
:1033500003F046FF9FED1E1B53EC112B3CE08CE06D
:10336000FFFF1F00FFFF0F00000000000000F03F04
:103370000000F03F0000F07F0000404301FCFFFF31
:10338000000000000000F07F0000000000000000CE
:103390001E4A000000000000000000000000008045
:1033A000000000000000F0FF000000000000F0BF7F
:1033B0000000E0410000F043FFFFEF3F000000008D
:1033C000000000000000D03F555555555555D53FDC
:1033D000000000000000E03F04F036F89DED080B0F
:1033E00041EC1A0B53EC102B51EC100B03F0F8FED0
:1033F00053EC1A2B03F0F4FE41EC1A0B9FEDFE0B7D
:1034000053EC102B9DED080B51EC100B03F0E8FE74
:1034100041EC1B0B9FEDFA0B51EC1A0B53EC102BEC
:1034200003F0DEFE41EC1A0B9FEDF70B53EC102B73
:103430009DED080B51EC100B03F0D2FE53EC1A2B50
:1034400004F0DAF841EC1A0B51EC1B0B53EC1A2B7D
:1034500003F01CFC0690CDE906519DED060B53ECE4
:103460001B2B51EC100B04F0C7F853EC1A2B03F094
:10347000EBFF41EC100B00F0A1B90020B6F5801F66
:103480000EDA9FEDE30B53EC102B9DED0E0B51EC80
:10349000100B03F0A5FECDE90E016FF034000E46CF
:1034A00000EB2650A0F2FF37C6F31300DA4940F0D4
:1034B0007F6646F040568842D8BF002408DDD749D1
:1034C0008142C8BF012403DC0024A6F580167F1CBE
:1034D000D348784400EBC4000F9690ED00CB9DEDEF
:1034E0000E0B53EC1C2B51EC100B04F085F89DEDEA
:1034F0000E0B41EC1B0B53EC1C2B51EC100B03F08F
:10350000C5FB41EC100B51EC190B53EC102B03F0E5
:1035100079FC41EC1D0B51EC1B0B53EC1D2B03F004
:103520005FFE41EC1A0BBF488DED10AB784410954F
:1035300090ED000B4FF0005040EA660000EB844035
:103540008DED080B00F5002009909DED080B53EC64
:103550001C2B51EC100B04F04FF89DED0E1B53EC9F
:10356000112B03F071FF41EC100B53EC102B9DED70
:10357000100B51EC100B03F033FE9DED080B41ECEA
:103580001C0B53EC102B9DED100B51EC100B03F0AA
:1035900027FE53EC1B2B03F057FF53EC1C2B04F0BE
:1035A0002BF853EC1D2B03F01BFE41EC1C0B53ECD2
:1035B0001A2B51EC1A0B03F013FE41EC1B0B9A482B
:1035C0000621B0EE4B0AF0EE6B0A784400F058FE8C
:1035D000B0EE401AF0EE601AB0EE41DAF0EE61DAC9
:1035E00053EC1B2B51EC1B0B03F0FAFD53EC1D2B82
:1035F00003F0F6FD9DED100B41EC1B0B53EC1A2B69
:1036000051EC100B03F042FB53EC1C2B03F0E8FDD4
:1036100053EC1B2B03F03AFB9DED100B41EC1B0B05
:1036200053EC102B51EC100B03F0DAFD41EC1D0BA9
:103630009FED7FEB53EC1E2B03F028FB53EC1B2B71
:1036400003F024FB0890CDE908519DED080B53ECE5
:103650001E2B51EC100B03F0CFFF53EC1D2B03F08E
:10366000CBFF53EC1B2B03F0EFFE9DED080B41EC61
:103670001D0B53EC102B9DED100B51EC100B03F0B8
:10368000AFFD41EC1B0B53EC1A2B51EC1D0B03F05F
:10369000A7FD9DED080B41EC1A0B53EC102B51ECE0
:1036A0001C0B03F09DFD53EC1A2B03F0EFFA41ECD9
:1036B0001A0B51EC1B0B53EC1A2B03F0E7FA0C908E
:1036C000CDE90C519DED0C0B53EC1B2B51EC100B69
:1036D00003F092FF53EC1A2B03F0B6FE41EC1B0BE8
:1036E0009FED550B53EC102B9DED0C0B51EC100B7B
:1036F00003F076FD41EC1A0B9FED510B51EC1B0BC7
:1037000053EC102B03F06CFD41EC1B0B9FED4E0BAB
:1037100053EC102B9DED0C0B51EC100B03F060FDE6
:1037200053EC1B2B03F0B2FA41EC100B48487844E1
:1037300000EBC40090ED001B51EC100B53EC112B6F
:1037400003F0A4FA41EC1B0B384603F0E2FCCDE990
:10375000080153EC1B2B51EC1A0B03F097FA41ECC8
:10376000100B3C48784400EBC40090ED00CB51ECCA
:10377000100B53EC1C2B03F089FA9DED081B53EC46
:10378000112B03F083FA0690CDE906519DED080B4D
:1037900053EC102B9DED060B51EC100B03F02CFF9E
:1037A00053EC1C2B03F028FF53EC1A2B03F024FFDF
:1037B00053EC1B2B03F048FE41EC100B9DED261B38
:1037C00053EC102B8DED001B00959DED260B51EC5D
:1037D000100B03F005FD9DED000B41EC1A0B53ECB3
:1037E000102B9DED260B51EC100B03F005FF9DED0A
:1037F000061B53EC112B2FE0000000604715F73F2C
:10380000FE822B654715F73F44DF5DF80BAE543E53
:1038100000000000000040438E9803007AB60B00C1
:103820006A450000C8450000A244000000000000F6
:103830000000000000000840000000E009C7EE3F63
:10384000FD033ADC09C7EE3FF5015B14E02F3EBEF5
:103850002E430000E842000003F0C2FC53EC1A2B98
:1038600003F014FA9DED060B41EC1A0B53EC102BF0
:103870009DED000B51EC100B03F0B2FCCDE90C01F7
:103880009DED0C0B51EC1A0B53EC102B03F0FEF9D1
:10389000CDE902010C46AA498C422FDB611A08438C
:1038A00018D19DED0C0B53EC102B9DED020B51EC40
:1038B000100B03F0A1FE41EC1B0B9FEDA30B51EC91
:1038C0001A0B53EC102B03F0E1F953EC1B2B03F014
:1038D00085FD2DD20220FCF74CFE00F021FE10EEFB
:1038E000901A18EE900A8DED020B8DED008B61F3AE
:1038F0001E0003909DED020BFFF7BEBB944A24F01F
:103900000041914214D39349214408437FF4EFAC22
:103910009DED0C0B53EC102B9DED020B51EC100B9D
:1039200003F06AFE53EC1A2B03F058FD7FF6DFAC70
:1039300024F000408849894A002601EB2051824248
:103940002BDA481C4FF4801121FA00F02044844AFD
:10395000C0F30A517A44A1F2FF3192ED000B814A83
:103960008DED080BCA4020EA0202C0F3130040F4B8
:103970008010C1F1140120FA01F60992002CB8BFA1
:1039800076429DED080B53EC102B9DED0C0B51EC8A
:10399000100B03F031FECDE90C019DED0C0B51EC49
:1039A0001A0B53EC102B03F071F99FED6F0B08907D
:1039B000CDE9085153EC102B9DED080B51EC100B89
:1039C00003F00EFC41EC1B0B9FED690B53EC102B2D
:1039D0009DED080B51EC100B03F002FC9DED0C0B60
:1039E00041EC1C0B53EC102B9DED080B51EC100B14
:1039F00003F002FE53EC1A2B03F026FD9FED5E1B35
:103A000053EC112B03F0ECFB53EC1C2B03F03EF9B1
:103A100041EC1A0B51EC1B0B53EC1A2B03F036F94B
:103A2000CDE902019DED020B53EC1B2B51EC100B69
:103A300003F0E2FD53EC1A2B03F006FD9DED020BA3
:103A400041EC1A0B53EC102B51EC100B03F0C8FB9C
:103A5000CDE908014A489DED080B0521784400F0A6
:103A60000FFC9DED081B51EC100B53EC112B03F0D8
:103A7000B7FB9DED021B53EC112B03F0E5FCCDE9E8
:103A800006019DED020B53EC1A2B51EC100B03F0C9
:103A9000A7FB53EC1A2B03F0F9F89FED3B0B41EC1D
:103AA0001A0B53EC102B9DED060B51EC100B03F091
:103AB000A3FD9DED060B41EC1B0B53EC102B9DED74
:103AC000020B51EC100B03F08BFB53EC1B2B03F0A0
:103AD00099F953EC1A2B03F08FFD9DED021B53EC6B
:103AE000112B03F089FD53EC192B03F0ADFCCDE94C
:103AF000020101EB065001150029C8BF039015DC37
:103B00009DED020B324651EC100B03F00CFFFEF75B
:103B10008AFF042808BF00F013FD32469DED020B1A
:103B200051EC100B03F0FFFECDE902019DED020BFD
:103B300051EC180B53EC102B03F052FBFFF73ABB80
:103B40000000904000000000FE822B654715973C66
:103B500000CC904000346F3F01FCFFFF0000E03FCD
:103B6000A0410000FFFF0F0000000000432EE63FD1
:103B7000396CA80C615C20BEEF39FAFE422EE63F9C
:103B80004040000000000000000000000000004075
:103B900010B52F499FED2C1B2DED020B84B005981D
:103BA00020F000408842DCBF00209DED040B32DD98
:103BB0002849884209D1049840B94FF00100FCF728
:103BC000D8FC00F09DFC06B010BD05DB9DED040B9C
:103BD00000F082FC06B010BD68469DED040B00F0BD
:103BE0007BF810F0030011D0012818D09DED021BC6
:103BF0009DED000B02281AD000F08AFA51EC100B50
:103C000003F006F806B041EC100B10BD9DED021B51
:103C10009DED000B012000F0AFFB06B010BD9DED47
:103C2000021B9DED000B00F073FA06B010BD0120E1
:103C300000F0A2FB51EC100B02F0EAFF06B041ECE1
:103C4000100B10BD0000000000000000000000008C
:103C5000FB21E93F0000F07F00B52DED048BB0EEB5
:103C6000409AF0EE609A83B051EC190B03F0F8FB28
:103C700041EC180B18EE100A18EE901A8DED008B1F
:103C8000002818BF0120084320F00040C0F17F60E9
:103C900000F1E040C00F14D019EE101A19EE900A8E
:103CA0008DED009B002918BF0121084320F0004042
:103CB000C0F17F6000F1E040C00F04BF0120FCF7BD
:103CC00058FCB0EE480A03B0F0EE680ABDEC048B75
:103CD00000BD0000000000002DE9F14F04462DED6D
:103CE000020B2DED088B8AB09FEDE70B80ED020BE8
:103CF000139EE74826F0004585420ADC9DED120B35
:103D0000002084ED000B0AB0BDEC088B03B0BDE8C9
:103D1000F08FE0489FEDE0AB9FEDE1BBA84247DDAF
:103D2000E14F9FEDE39B9FEDE48B9DED120B53EC78
:103D30001A2B51EC100B002E1CDD03F05DFC41EC46
:103D4000100BBD4208D053EC1B2B51EC100B03F0B1
:103D500053FCC4E900010BE053EC192B51EC100BA0
:103D600003F04AFC53EC182B03F046FCC4E90001B5
:103D70000120C8E702F08AFF41EC100BBD4208D0D9
:103D800053EC1B2B51EC100B02F080FFC4E9000137
:103D90000BE053EC192B51EC100B02F077FF53ECB6
:103DA000182B02F073FFC4E900014FF0FF30AAE7BF
:103DB000C348A84279DB9DED120B51EC100B00F0CB
:103DC000CDFC41EC180B9FEDC00B53EC102B03F016
:103DD00007FA9FEDBF1B53EC112B02F057FF03F0C6
:103DE00069F9074603F095F941EC190B53EC1A2BCE
:103DF00003F0F6F953EC182B03F026FB41EC180BFB
:103E000053EC1B2B51EC190B03F0EAF9DFF8C8A2B5
:103E100041EC100B4FEA15580125FA4453EC102BD6
:103E200051EC180B03F0E8FB032DC4E900013DD071
:103E3000C1F30A5005EB4511A8EB0000113981428E
:103E400034DA0AEB051BB0EE48AA9BED000BF0EE4E
:103E500068AA53EC102B51EC190B03F0C1F941EC9B
:103E60001B0B51EC1A0B53EC1B2B03F0C5FB41EC65
:103E7000180B51EC1A0B53EC182B03F0BDFB53EC51
:103E80001B2B03F0B9FB9BED020B41EC1A0B53EC1F
:103E9000102B51EC190B03F0A3F953EC1A2B03F080
:103EA000ABFB41EC100B6D1CB8E70EE0002EA8BF79
:103EB0003846BFF628AF94ED000B51EC100B02F022
:103EC000A7FEC4E9000178421DE7C6F3130040F4E1
:103ED000801EC6F30A50A0F2F530471100F01F050E
:103EE000C5F12000DDF848B008900020069007904A
:103EF0000520EC467949002D07EB0002794408BF04
:103F000051F8221009D051F8223001EB8201AB4068
:103F10004A68089922FA01F11943A1FB0E26A1FB78
:103F20000B131A449A4234BF0123002303EB060803
:103F30000CEB8003D3E901A60E448E4234BF01216D
:103F4000002192448A4411B1924502D903E092457E
:103F500001D2012100E00021C3E901A641444CF84F
:103F60002010011EA0F10100C4DC029800F10050F5
:103F7000850F0298DDE903678000DDF8148003F007
:103F8000C8F841EC1A0B304603F0DAF89FED541BE9
:103F900053EC112B03F024F941EC1B0B384603F0D2
:103FA000CFF89FED511B53EC112B03F019F941ECA5
:103FB000180B404603F0C4F89FED4D1B53EC112B3A
:103FC00003F00EF941EC190B51EC180B53EC192BC3
:103FD00002F05CFE53EC1B2B02F058FE53EC1A2B44
:103FE00002F054FECDE90801002008909DED080B79
:103FF00053EC1A2B51EC100B03F0FEFA53EC1B2B75
:1040000003F0FAFA53EC182B03F0F6FA53EC192BE1
:1040100003F01AFA9FED381B53EC112B03F0E0F874
:104020009FED370B41EC180B53EC102B9DED080B5B
:1040300051EC100B03F0D4F853EC182B02F026FED1
:104040009FED310B41EC180B53EC102B9DED080B41
:1040500051EC100B03F0C4F853EC182B02F016FED1
:1040600041EC100B139810F0004F06D06D4251EC4C
:10407000100B02F0CDFD41EC100B284684ED000B37
:1040800041E6000000000000000000000000000009
:10409000FB21E93F7CD9024000004054FB21F93F5D
:1040A0003163621A61B4D03DFB21F93F000000008A
:1040B0000000601A61B4D03D7370032E8A19A33BCF
:1040C000FB2139410000000083C8C96D305FE43F27
:1040D000000000000000E03FE23C0000303C000037
:1040E000000000000000103E000000000000103C36
:1040F000000000000000103A182D4454FB21F93D47
:104100003326A611460B113C00000054FB21F93D5B
:1041100010B52DED040B2DED088B82B0B0EE419A59
:10412000F0EE619A0B9820F000449FED4BABB4F198
:10413000795F11DA9DED0A0B51EC100B02F0BAFF1A
:10414000002801BFB0EE4A0AF0EE6A0A02B0BDECE8
:10415000088B04BF04B010BD9DED0A0B53EC102B6F
:1041600051EC100B03F03CF841EC180B3C480621D5
:10417000B0EE480AF0EE680A784400F081F853EC9B
:10418000182B51EC100B03F02BF89DED0A0B41ECB2
:104190001B0B53EC192B51EC100B03F021F841ECE5
:1041A000190B53EC1B2B51EC180B03F019F853ECC3
:1041B000192B03F021FA9FED2C0B41EC190B53EC5A
:1041C000102B51EC180B03F00BF841EC100B2848A6
:1041D000844210DA53EC192B51EC100B03F00CFA5B
:1041E00053EC1A2B03F030F941EC100B02B0BDEC8C
:1041F000088B04B010BD1F48A042BCBF9FED1E1B22
:104200008DED001B06DBA4F500100190002000904E
:104210009DED001B51EC100B53EC112B03F0ECF94E
:104220009DED000B41EC180B53EC102B51EC1A0BCD
:1042300003F0E2F941EC1A0B53EC192B51EC180B7B
:1042400003F0DAF953EC1A2B03F0FEF841EC100BF3
:10425000CCE7000000000000000000000000F03F7C
:104260004C39000000000000000000000000E03FAA
:104270003333D33F0000E93F000000000000D23F8D
:1042800070B504462DED028B4D1E00EBC500B0EE5F
:10429000408AF0EE608A90ED000B35F0060017D0F2
:1042A00053EC182B51EC100B02F09AFF41EC100B61
:1042B0006D1E04EBC50090ED001B51EC100B53EC90
:1042C000112B02F0E3FC41EC100B35F00600E7D1B6
:1042D000022D36D0042D1CD0062D1CBFBDEC028B48
:1042E00070BD53EC182B51EC100B02F079FF94EDDC
:1042F0000A1B53EC112B02F0C9FC53EC182B02F0F3
:104300006FFF94ED081B53EC112B02F0BFFC41EC46
:10431000100B53EC182B51EC100B02F061FF94EDD5
:10432000061B53EC112B02F0B1FC53EC182B02F0DE
:1043300057FF94ED040B53EC102B02F0A7FC41EC5B
:10434000100B53EC182B51EC100B02F049FF94EDBD
:10435000021B53EC112B02F099FC53EC182B02F0CA
:104360003FFF94ED001B53EC112B02F08FFCBDECD2
:10437000028B41EC100B70BD31B504462DED040BE2
:104380002DED0A8BB0EE41BAF0EE61BA0B989DEDBF
:104390000A0B20F00040B0F1795F0DDA51EC100B00
:1043A000FEF741FB042808BF00F0CAF89DED0A0B98
:1043B000BDEC0A8B05B030BD53EC102B51EC100B4B
:1043C00002F00EFF41EC180B9DED0A0B53EC182B7D
:1043D00051EC100B02F004FF41EC190B2C48B0EE2D
:1043E000480AF0EE680A05217844FFF749FF9FED7F
:1043F0002ACBB0EE40AAF0EE60AA9CB353EC1C2B83
:1044000051EC190B02F0ECFE41EC1C0B53EC1A2B97
:1044100051EC190B02F0E4FE9FED210B41EC190B5E
:1044200053EC102B51EC1B0B02F0DAFE53EC192B62
:1044300003F0E2F853EC182B02F0D2FE53EC1B2BE6
:1044400003F0DAF853EC1C2B03F0D6F89DED0A1BB1
:1044500053EC112B02F0F8FFBDEC0A8B05B041ECD8
:10446000100B30BDFFE753EC1A2B51EC180B02F088
:10447000B7FE53EC1C2B02F009FC53EC192B02F095
:10448000AFFE9DED0A1B53EC112B02F0FFFBE3E79F
:10449000DC37000000000000495555555555C5BF93
:1044A000000000000000E03F9FED070B10B553EC4B
:1044B000102B9FED070B51EC100B02F0A3FC41EC0D
:1044C000100B10BD00000000000000000000000004
:1044D000000000000000F03F10B553EC102B51EC31
:1044E000100B02F0D3FB41EC100B10BD10B553ECD8
:1044F000112B51EC100B02F0C9FB41EC100B10BD5D
:104500009FED050B10B553EC102B51EC100B02F086
:1045100079FC41EC100B10BD000000000000000011
:104520009FED050B10B553EC102B51EC100B02F066
:1045300057FE41EC100B10BD0000000000000070A1
:104540009FED050B10B553EC102B51EC100B02F046
:1045500047FE41EC100B10BD0000000000000010F1
:1045600030EE000A704730EE200A7047DFED020A95
:1045700080EEA00A70470000000000009FED020AD4
:1045800020EE000A704700000000001010EE100A34
:104590000749DFED080A884202DD30EE600A704705
:1045A00010EE100A04498842F9D930EE200A70470B
:1045B000000034430000B443000034C3DFED310A8F
:1045C00070B580EE201AB0EE000A2DED048B054682
:1045D0000C4661EE000A9FED2C0A20EE808A18EE50
:1045E000100A03F0F3F841EC100BFEF745FC51EC18
:1045F000100B02F019FB2060286803F0E7F841EC8B
:10460000190B18EE100A03F0E1F841EC100BFFF75C
:10461000BFFA53EC192B51EC100B02F0E1FD02F044
:1046200003FB6060686803F0D1F841EC190B18EEE9
:10463000100A03F0CBF841EC100BFFF7A9FA53EC8A
:10464000192B51EC100B02F0CBFD02F0EDFAA0603B
:10465000A86803F0BBF841EC190B18EE100A03F040
:10466000B5F841EC100BFFF793FA53EC192B51EC12
:10467000100B02F0B5FD02F0D7FAE060BDEC048B40
:1046800070BD00000000B443D00F494010B5034690
:104690000888DFED1A0A40BA00EE100A16480C46E8
:1046A000B8EE400A83ED100A90ED100A20EE200AC1
:1046B000DFED130A80EE201A9FED120A31EE400A58
:1046C00083ED140A6188D0ED060A49BA09B200EEFA
:1046D000101A1846B8EEC00A80EE201A83ED151A9B
:1046E00000F078FAA08840BA00B200EE100AB8EEE6
:1046F000C00A83ED160A10BDCC4D00200000B44363
:1047000000F8FF4500003443027C0A8090ED050A62
:10471000BDEEC00A10EE102A4A8090ED060ABDEEEA
:10472000C00A10EE102A8A8090ED070ABDEEC00A7A
:1047300010EE100AC880704790ED000ABDEEC00A66
:1047400010EE102A0A8090ED010ABDEEC00A10EEAC
:10475000100A488000208880C880704782B0CDE968
:10476000000121F0004001909DED000B02B051ECE2
:10477000100B70470EB50D4EA6F13C04A4F13C059C
:104780000C490B4AA1F16C0000F018F8094B0949DB
:10479000CDE900546C33084AA1F16C00029600F098
:1047A0001FF8022000F0E7FAEAE70000EC4E0020D4
:1047B000404D0020CC4D0020004D002092ED020A1B
:1047C000DFED060A80ED110AC0ED120A92ED030A30
:1047D00081ED110AC1ED120A704700000000E143AB
:1047E0002DE9F04705462DED028B1E4690ED0D0A92
:1047F000B0F92400DDE90B7900EE900ADDF828A07D
:104800009046B8EEE01A0C46F7EE000A9FED478A94
:10481000B4EEC10AF1EE10FA09D2B5EEC00AF1EE1B
:1048200010FA04DB30EE200A85ED0D0A01E085ED7B
:104830000D8AB4F9240094ED0D0A01EE100AB8EEC9
:10484000C11AB4EEC10AF1EE10FA09D2B5EEC00AEF
:10485000F1EE10FA04DB30EE200A84ED0D0A01E0DF
:1048600084ED0D8AB5F92400D5ED0D0A00EE100A8D
:10487000DFED2F8AB8EEC00AF4EE400AF1EE10FA2E
:1048800014D195ED110AF0EE680A86ED000A98ED54
:10489000050A184686ED010A95ED120A86ED0E0A04
:1048A000B7EE000AFDF734FD85ED0D8AB4F924005A
:1048B000D4ED0D0A00EE100AB8EEC00AF4EE400A7C
:1048C000F1EE10FA14D194ED110AF0EE680A87EDBA
:1048D000000A98ED040A384687ED010A94ED120AA1
:1048E00087ED0E0AB7EE000AFDF712FD84ED0D8A82
:1048F00097ED0D0A484689ED000A98ED060A89ED04
:10490000010AB7EE000AFDF79BFD96ED0D0A504631
:104910008AED000A98ED070A8AED010AB7EE000A4F
:10492000BDEC028BBDE8F047FDF78ABD000000003A
:1049300000003443ACB04E4F22A84C4D4D4C4E4E6F
:10494000A7F1080807F1080907F1100A2B90834620
:104950002A902990494B4A4A4A494B48009501F010
:10496000C9F8464B464A47494748009500F0B4FF0E
:104970003F493E48FFF7C8FE3D49083901F1220092
:10498000FFF7DAFE3A48083000F09AF8384810305D
:1049900000F0AEF8202237491FA8FBF781FD14F87C
:1049A000200F8DF89C00606828901C2207976846AD
:1049B0002B99FBF775FD0DF17C0C40F223109CE860
:1049C0000E00FBF757FE20222A491FA8FBF768FDBF
:1049D00020788DF89C0060682890CDF81C801C22FF
:1049E00068462A99FBF75CFD0DF17C0C40F2213002
:1049F0009CE80E00FBF73EFE20221E491FA8FBF795
:104A00004FFD14F8040B8DF89C0054F824092890ED
:104A10001C2259466846CDF81C90FBF741FD0DF16C
:104A20007C0C40F2FF109CE80E00FBF723FE2022D6
:104A300011491FA8FBF734FD96F820008DF89C0063
:104A4000706A28901C22CDF81CA068462999FBF7B3
:104A500027FD0DF17C0C4FF400709CE80E00FBF775
:104A600009FE022000F087F974E70000404D0020A5
:104A7000BE000020E000002008010020A54C00201E
:104A8000944C00207E4C0020684C0020FCF7AAFCCF
:104A9000FDF704FEFDF728FBFDF7CEFAFDF788FAD7
:104AA000FDF7A8FAFDF7F8FBFDF7DAFBFDF712FCBE
:104AB00000F06EF9FDF7F6FA00F07CF9FEE7000071
:104AC000094991ED0D0ABDEEC00A10EE101A0180E1
:104AD000064991ED0D0ABDEEC00A10EE101A418094
:104AE00000218180C1807047EC4E0020744E002070
:104AF0000C4991ED0D0ABDEEC00A10EE102A02809D
:104B000091ED1C0ABDEEC00A10EE101A4180064954
:104B100091ED0D0ABDEEC00A10EE101A8180002141
:104B2000C1807047D85000200452002070B5044660
:104B30002DED028B164690ED0D0AB0F924009FED85
:104B4000248A00EE900A0D46F8EEE00AB4EEE00A80
:104B5000F1EE10FA0BD2B5EEC00AF1EE10FA06DB58
:104B6000F7EE000A30EE200A84ED0D0A01E084ED34
:104B70000D8A00EE100AD4ED0D0AB8EEC00AF4EE6C
:104B8000400AF1EE10FA12D194ED110A084685EDB3
:104B9000000A94ED140A85ED010A94ED120A85EDE0
:104BA0000E0AB7EE000AFDF74BFC84ED0D8A95ED79
:104BB0000D0A304686ED000A94ED150A86ED010ACD
:104BC000B7EE000ABDEC028BBDE87040FDF738BCC3
:104BD000000000005FF0040100EB8102491E92ED2D
:104BE000150A11F0FF0182ED160AF5D15FF00401FC
:104BF00000EB8102D0ED0C0A92ED160AB5EEC00A68
:104C0000F1EE10FA01DCB1EE400A491E30EE800AE6
:104C100049B2002980ED0C0AEADAD0ED160A90EDCF
:104C2000070AF4EEC00AF1EE10FA0ADBD0ED170A1B
:104C3000F4EEC00AF1EE10FA03DB90ED140A80EDF9
:104C40000A0A7047028852BA00EE102AF8EE400AAB
:104C50009FED120A80EE801A81ED001A428852BA46
:104C600000EE902AF8EE600A80EE801A81ED011ABB
:104C7000828852BA00EE902AF8EE600A80EE801A1E
:104C800081ED021AC08840BA00EE900AF8EE600A80
:104C900080EE801A81ED031A7047000000401C4628
:104CA000028852BA00EE102AB8EE400A81ED080AD6
:104CB000408840BA00EE100AB8EE400A81ED090AB9
:104CC0007047000010B504462DED028B01469FEDA4
:104CD000208A2830B0EE480A00F01CFD2146B0EED4
:104CE000480A04F1340000F015FD94ED001A94ED2B
:104CF000010AF0EE001A21EE012AF7EE000A00EE9A
:104D0000002A52EE210A94ED032A21EE021A94EDB4
:104D1000022A00EE021A21EE210AFDF755FF84ED6A
:104D2000040A94ED010AD4ED030A94ED021A20EE70
:104D3000200AD4ED000A00EEC10AF8EE000A20EEC7
:104D4000200AFDF7ABFE84ED050ABDEC028B10BD19
:104D50000000B442028852BA00EE102AB8EE400AAF
:104D600081ED060A408840BA00EE100AB8EE400A0B
:104D700081ED070A704710B5EFF3058111B16FF0AF
:104D8000050403E0002408B101F0B8F8204610BD86
:104D9000EFF3058010B16FF005007047044801681B
:104DA00011B14FF0FF3070470121016000207047C2
:104DB0007000002010B5EFF3058010B16FF0050012
:104DC00010BD08480168012902D04FF0FF3010BD26
:104DD000054A002182F8141D0221016001F0F6F855
:104DE000002010BD700000200BE000E02DE9FF4125
:104DF0004FEA01034FF00005EFF30581039549BB2E
:104E000040B38027182100244AB3166806B13446FF
:104E100096691EB13146761E382E02D21679F607F3
:104E200003D0002004B0BDE8F081566906B1B70890
:104E3000D2F808C0BCF1000F0DD0D5685C2D18D396
:104E400012693AB136B18DE806103A46214601F0B2
:104E5000FEFC03900DE0D6685EB912694AB903AA58
:104E6000CDE90012BAB2214601F0C4FC012800D0FD
:104E700003950398D6E700002DE9F041134C0F4647
:104E80000546E6682068001D00F004FF681C07D195
:104E900037B12168BDE8F0410D48091D00F04ABF57
:104EA00020683544B5424560216805D2A06BBDE855
:104EB000F041091D00F026BF606B091D00F022FFC4
:104EC000A06A854200D2A562BDE8F08120000020E2
:104ED0006C0800202DE9F041054600F037FF2D4C0D
:104EE000A068401CA06020682B4F10B1606930B3EF
:104EF0002BE02560A068012827D1002606EB86005C
:104F000007EB800000F0F0FE761C382EF6D3234825
:104F100000F0EAFE2148143000F0E6FE1F48283079
:104F200000F0E2FE1D483C3000F0DEFE1B48503031
:104F300000F0DAFE194860631430A06305E02068D1
:104F4000E96AC06A884200D82560606A401C6062D5
:104F50006864E86A2169884200D9206100EB80001A
:104F600007EB8000291D00F0E5FE00F00FFF6069EF
:104F700000280CD02068E96AC06A884207D2084934
:104F80004FF080500860BFF34F8FBFF36F8FBDE8C5
:104F9000F081000020000020BC0300201C0800203D
:104FA00004ED00E038B500F0D1FE104C2068C8B91F
:104FB0000F4800F099FE0E48143000F095FE0C48A2
:104FC000E060143020610A4B0020F03B009003F1B8
:104FD000500210210A2001F0AFF9206010B105A1A4
:104FE00000F056FFBDE8384000F0D0BE5C00002065
:104FF00070090020546D72510000000030B4026C42
:105000000B46002A0BD0C1681144C1608468A142DC
:1050100001D30168C16030BC1846FBF7FCB930BC55
:1050200070472DE9F041856B174604460026026C57
:1050300082B1C7B1E068FBF7EEF9E168206C091AAC
:10504000E1602268914202D2A168081AE060022F52
:1050500016D017E02068A8B9A06801F09BFC0646AE
:105060000020A0600EE06068FBF7D5F9216C606855
:1050700008446060A168884204D32068606001E051
:1050800005B16D1E6D1CA5633046BDE8F08110B5FD
:10509000044690F8590058B101280CD002280FD0CE
:1050A000502080F31188BFF34F8FBFF36F8FFEE75F
:1050B000206B00F07FFE2046BDE8104000F07ABE75
:1050C00010BD000010484FF47051420706D0C01DBB
:1050D0000D4920F00700411AC1F570510B4A002319
:1050E0000144C2E900030839183A21F007011160B0
:1050F0004B600B600B1AC0E9001393604FF0004047
:105100005360506170470000501000208C00002058
:10511000144E154CA6F29C474FF08058DFF84C9087
:1051200012E000BF00F012FEF068C568281D00F014
:10513000B1FDA068401EA0606068401E606000F085
:1051400025FE2846FFF7A3FF60680028EAD13868EB
:105150000128F9D9C9F80080BFF34F8FBFF36F8FD3
:10516000F2E70000580800202000002004ED00E0D5
:1051700070B51D46049C51B1C4F80020C4E90F016C
:105180000121204601F00CF984F84C5070BD2460D8
:10519000F4E700002DE9F05F8846DDE90B94154641
:1051A000834691009A460A9EA522206BFBF7AAF936
:1051B0006FF00301206B01EB8501084420F0070725
:1051C000780707D0502080F31188BFF34F8FBFF3CB
:1051D0006F8FFEE70025B8F1000F0FD05FF00000E1
:1051E000221818F8001082F8341018F8001011B1C5
:1051F000401C1028F4D384F8435001E084F8345064
:10520000382E00D33726E662C4E91365201D00F06E
:1052100076FD04F1180000F072FD2461C6F138003B
:105220006462A061656584F8585052465946384614
:1052300000F05AFA2060B9F1000F01D0C9F800401F
:10524000BDE8F09F30B5114900E011460A6882427E
:10525000FBD34B685C18844203D140681844486013
:10526000084643681C18944209D1084C183C24682D
:10527000A24209D052681A4442600A681268026069
:10528000814200D0086030BD0460F9E78C00002046
:1052900070B5002441600B4D0061914206D8D11ACF
:1052A0008269914206D2011D286907E09A4203D221
:1052B000994201D3012403E0011DE86800F022FDBA
:1052C000204670BD5C00002010B5044600F03EFD95
:1052D000A06B28B15FF0000400F058FD204610BD1F
:1052E0000124F9E730B589B03C4D6EE00498002800
:1052F00006DADDE90601059A90470498002864DB88
:10530000069C606910B1201D00F0C4FC03A800F0E9
:10531000D7F8024604980A2857D2DFE800F00505BE
:10532000052D334A05052D3394F8280040F001007F
:1053300084F828000599A069059B01442046FFF7E1
:10534000A7FF68B3216A2046884794F828004007E1
:105350003BD5002000900598A1690023421819460A
:10536000204601F021FCD8B9502080F31188BFF30A
:105370004F8FBFF36F8FFEE714F8280F20F0010066
:10538000207022E094F8280040F0010084F8280002
:105390000598A06128B1811813462046FFF778FFD1
:1053A00013E0502080F31188BFF34F8FBFF36F8F4E
:1053B000FEE794F82800810703D4204600F0FAFCA9
:1053C00003E020F0010084F82800002204A92868E6
:1053D00001F03AF9002889D109B030BD5C00002005
:1053E0002DE9FC410F46054600F034FE01A800F00F
:1053F00067F80446019818B101F044FBBDE8FC8150
:10540000254EAFB130690068D0B30027291B3A465A
:10541000306800F051FD01F035FB0028EED11F4946
:105420004FF080500860BFF34F8FBFF36F8FE5E7F9
:10543000A542EBD801F026FBF0682746C068C46897
:10544000201D00F027FC94F82800410719D5A06919
:105450002B4641193A462046FFF71AFFA8B1002013
:105460000346014600902A46204601F09DFB60B9A4
:10547000502080F31188BFF34F8FBFF36F8FFEE78B
:1054800007E020F0010084F82800216A20468847C0
:10549000B4E70127BAE700005C00002004ED00E05B
:1054A0000648416B096829B1416BC968C9684968F8
:1054B000816270474FF0FF31FAE7000020000020C2
:1054C00070B5054601F0FCF9064E0446B06884420A
:1054D00003D200F009F8012000E0002028602046F7
:1054E000B46070BD5C000020F8B5194D20E0C068C4
:1054F000C4680668201D00F0CDFB216A204688475D
:1055000094F82800400713D5A0693044B04206D96A
:1055100024616060211DE86800F0F4FB08E00020D1
:105520000346014600903246204601F03DFB38B16B
:10553000E86801680029DAD12969C5E90310F8BDD6
:10554000502080F31188BFF34F8FBFF36F8FFEE7BA
:105550005C00002008484068401C4FF0500080F379
:10556000118804D0BFF34F8FBFF36F8FFEE7BFF3F7
:105570004F8FBFF36F8FFEE794000020074CE06869
:10558000016841B1C0680021D0F80000FFF728FF92
:10559000FFF7A8FEF3E701210020F7E75C000020F9
:1055A0002DE9F041044600F0D1FB94F9455004F197
:1055B000240609E0606A48B1304601F02BFA08B1D0
:1055C00000F0CAFC6D1E6DB2002DF3DC4FF0FF360B
:1055D00084F8456000F0DAFB00F0B8FB94F9445021
:1055E00004F1100709E0206948B1384601F012FAC9
:1055F00008B100F0B1FC6D1E6DB2002DF3DC84F833
:105600004460BDE8F04100F0C1BB00002DE9F0416D
:105610000546002700F01EFD324E306808B9FFF73E
:1056200051FD706905424ED1C5B3083568070ED0EB
:1056300005F00700C0F108000544680707D05020B6
:1056400080F31188BFF34F8FBFF36F8FFEE72DB349
:105650007068854237D82348183001460C6801E04D
:1056600020460C466168A94202D221680029F7D180
:1056700031688C4227D0076821680160606808376C
:10568000411B10290FD96019420708D0502080F320
:105690001188BFF34F8FBFF36F8FFEE713E04160B8
:1056A0006560FFF7CFFD61687068401A7060B2688E
:1056B000904200D2B060706901430020C4E900014B
:1056C000F068401CF06001F0DDF9780707D0502049
:1056D00080F31188BFF34F8FBFF36F8FFEE738461B
:1056E000BDE8F0817400002010B5031F4FF08074F6
:1056F0001C601B1F21F001011960191F044B0B6076
:1057000014390A60091F6FF0020244380A6010BDA4
:105710005555000830B50C462DED028B91B005466D
:10572000B0EE408A20216846FAF7F4FE202108A84E
:10573000FAF7F0FE08A9B0EE480A2846FEF73EFF49
:105740000CA90D4608A800F01DF86A46214608A8D5
:1057500000F058F82946684604AA00F053F80020E3
:105760004FEA0D0101EB800292ED040A04EB800286
:10577000401CC0B282ED000A0428F3D311B0BDEC86
:10578000028B30BD70B50E462DED028B05469FEDA8
:105790001B8B002455F8240002F018F841EC100B84
:1057A000B0EE481AF0EE681AFDF7CAFB51EC100B88
:1057B00001F03AFA641CE4B2042CEBD302F006F8D0
:1057C00041EC100BFEF748FA51EC100B01F02CFAEB
:1057D00000EE100A5FF0000205EB8200D0ED000A37
:1057E00006EB8200521C60EE800AD2B2042AC0EDA1
:1057F000000AF1D3BDEC028B70BD00000000000078
:105800000000004090ED000AD1ED000A91ED011A70
:1058100020EE200AD0ED010A00EEC10AD0ED020A06
:1058200091ED021A00EEC10AD0ED030A91ED031AC0
:1058300000EEC10A82ED000A90ED000AD1ED010AE6
:1058400091ED001A20EE200AD0ED010A00EE810A47
:10585000D0ED020A91ED031A00EE810AD0ED030AA1
:1058600091ED021A00EEC10A82ED010A90ED000AE4
:10587000D1ED020A91ED031A20EE200AD0ED010AC3
:1058800000EEC10AD0ED020A91ED001A00EE810A85
:10589000D0ED030A91ED011A00EE810A82ED020AB1
:1058A00090ED000AD1ED030A91ED021A20EE200AD4
:1058B000D0ED010A00EE810AD0ED020A91ED011A45
:1058C00000EEC10AD0ED030A91ED001A00EE810A44
:1058D00082ED030A704700002DE9F04105462DEDE9
:1058E000068B1F461646B0F9000000EE100AB8EE0F
:1058F000C00A9FED718AC0EE080A9FED700A60EE43
:10590000800ADFED6F1AB5F90C00B6EE001A80EED2
:10591000A12A00EE900AB5F902000C9CF8EEE00A0C
:10592000684942EE010A02EE100AB5F90E00B8EE1F
:10593000C22AC2EE082A22EE800A80EE212A00EE58
:10594000100AB8EEC00A02EE010A94ED021A31EE16
:10595000000A10EE100A884206DA10EE100A5A49C0
:10596000884201D284ED020A94ED030A30EE200A47
:10597000FEF70CFE84ED030A30794FF4FA7110FB48
:1059800001F0B1786FF07C0211FB02F100EB8100B5
:10599000B5F90410084400EE100A4FF4FA71B8EE9D
:1059A000C00A84ED050A707810FB01F0F17811FB54
:1059B00002F100EB8100B5F90610084400EE100A70
:1059C000B8EEC00A84ED060A7079DFED408A01283E
:1059D00009D1787938B994ED070A30EE280AFEF734
:1059E000D5FD84ED070AB079012809D1B87938B915
:1059F00094ED070A38EEC00AFEF7C8FD84ED070AE9
:105A0000B5F9080000EE100AB8EEC00AC0EE080AA8
:105A10009FED2F0A94ED078A18EE100A60EE808A37
:105A200001F0D4FEB1EE000A9FED2A1A68EE000ADA
:105A300041EC190B80EE810AF0EE000A20EE200AFC
:105A4000DFED250A20EE200A10EE100A01F0BEFE5E
:105A500041EC100BFDF710FA9FED20AB51EC100B51
:105A600053EC1A2B01F0BCFB53EC1A2B01F00EF98E
:105A70009FED1C1B53EC112B01F008F953EC192B73
:105A800001F004F99FED191B53EC112B01F0A8FB59
:105A900001F0CAF800EE100AFEF778FD207C00EE57
:105AA000900AF8EE600A40EE808AC4ED078ABDECE9
:105AB000068BBDE8F0810000000025440000E143B2
:105AC00000007A4400002042000020C2000034425E
:105AD000000096430000B443D00F4940000000008E
