:020000040800F2
:1000000058530020E902000847220008E51E0008B6
:1000100045220008410600083D25000800000000B8
:10002000000000000000000000000000290200089D
:100030007907000800000000850200084922000836
:100040000303000803030008030300080303000878
:1000500003030008030300087B07000803030008EC
:10006000030300088107000887070008030300084E
:10007000CD0600080303000803030008030300087B
:1000800003030008030300080303000851060008E7
:100090004506000803030008030300088D07000855
:1000A0000303000803030008030300080303000818
:1000B0000303000803030008030300080303000808
:1000C00003030008030300080303000803030008F8
:1000D00003030008030300080303000803030008E8
:1000E00003030008030300080303000803030008D8
:1000F00003030008030300080303000803030008C8
:1001000003030008030300080303000803030008B7
:1001100003030008030300080303000803030008A7
:1001200003030008D90600080303000803030008BE
:10013000030300080303000803030008690600081E
:100140005D0600080303000803030008030300081A
:10015000E5060008F1060008030300083125000841
:100160000303000803030008030300080303000857
:100170000303000803030008030300080000000055
:10018000030300080303000800F002F800F03CF845
:100190000AA090E8000C82448344AAF10107DA45E2
:1001A00001D100F031F8AFF2090EBAE80F0013F0F8
:1001B000010F18BFFB1A43F0010318470854000051
:1001C00028540000103A24BF78C878C1FAD85207E2
:1001D00024BF30C830C144BF04680C6070470000C1
:1001E0000023002400250026103A28BF78C1FBD840
:1001F000520728BF30C148BF0B6070471FB505F0DC
:10020000ECF81FBD10B510BD00F0E5F91146FFF781
:10021000F5FF02F09FFE00F003FA03B4FFF7F2FFD0
:1002200003BC00F007FA00002C4B19680868B0E81E
:10023000F04F80F30988BFF36F8F4FF0000080F319
:10024000118870470000000008480068006880F3CB
:1002500008884FF0000080F3148862B661B6BFF3DF
:100260004F8FBFF36F8F00DF00BF00BF08ED00E0CE
:10027000DFF80C00016841F470010160704700BFB5
:1002800088ED00E0EFF30980BFF36F8F134B1A681E
:100290001EF0100F08BF20ED108A20E9F04F10600B
:1002A00009B44FF0500080F31188BFF34F8FBFF3B4
:1002B0006F8F03F061FE4FF0000080F3118809BCDE
:1002C00019680868B0E8F04F1EF0100F08BFB0ECD6
:1002D000108A80F30988BFF36F8F704720000020D9
:1002E000EFF3058070470000094880470948004740
:1002F000FEE7FEE7FEE7FEE7FEE7FEE7FEE7FEE7D6
:10030000FEE7FEE704480549054A064B7047000032
:10031000F522000889010008584D0020585300209C
:10032000584F0020584F002053EA020C00F069801B
:100330002DE9F04B4FF00006002B1FBFB3FA83F5F9
:1003400003FA05F424FA05F65E4012BF1643B2FA2A
:1003500082F502FA05F4C5F120051EBF22FA05FC5C
:1003600044EA0C04203556EA044C4FEA144418BF02
:10037000641C4FF000084FF00009904271EB030C31
:1003800039D3002919BFB1FA81F701FA07F6B0FA9B
:1003900080F700FA07F6C7F120071EBF20FA07FC16
:1003A00046EA0C062037B6FBF4FCA7EB0507103F26
:1003B00007F01F0BCBF120060CFA0BFB2CFA06F60C
:1003C00044BFB3460026202FA4BF5E464FF0000B6B
:1003D0005BEA060C08BF4FF0010B19EB0B09ABFBF6
:1003E000027C48EB0608C01B06FB02CC0BFB03CCCF
:1003F00071EB0C01C1E70B46024641464846BDE899
:10040000F08B13B54FF000004FF00001AFF3008008
:10041000BDE81C407047032A40F2308010F0030C06
:1004200000F0158011F8013BBCF1020F624498BF47
:1004300011F801CB00F8013B38BF11F8013BA2F1E4
:10044000040298BF00F801CB38BF00F8013B11F05F
:10045000030300F02580083AC0F0088051F8043BFF
:10046000083A51F804CBA0E80810F5E7121D5CBF6C
:1004700051F8043B40F8043BAFF30080D20724BF9F
:1004800011F8013B11F801CB48BF11F8012B24BF33
:1004900000F8013B00F801CB48BF00F8012B704782
:1004A00010B5203AC0F00B80B1E81850203AA0E80F
:1004B0001850B1E81850A0E81850BFF4F5AF5FEA43
:1004C000027C24BFB1E81850A0E8185044BF18C9F6
:1004D00018C0BDE810405FEA827C24BF51F8043B9D
:1004E00040F8043B08BF7047D20728BF31F8023BF1
:1004F00048BF11F8012B28BF20F8023B48BF00F885
:10050000012B704702F0FF0343EA032242EA024252
:1005100000F037B84FF0000200B5134694469646F7
:10052000203922BFA0E80C50A0E80C50B1F1200106
:10053000BFF4F7AF090728BFA0E80C5048BF0CC0B4
:100540005DF804EB890028BF40F8042B08BF704712
:1005500048BF20F8022B11F0804F18BF00F8012B84
:10056000704770477047704710B500F02FF800686B
:1005700010BD10B5044600F029F8046010BD4FF01E
:1005800000020429C0F0128010F0030C3FF4C4AF45
:10059000CCF1040CBCF1020F18BF00F8012BA8BF6E
:1005A00020F8022BA1EB0C01FFF7B6BF5FEAC17C7C
:1005B00024BF00F8012B00F8012B48BF00F8012BE5
:1005C0007047000000487047F44C00200048704716
:1005D000F44C002070477546FFF7F4FFAE46050067
:1005E0006946534620F00700854618B020B5FFF74E
:1005F00089FEBDE820404FF000064FF000074FF0A5
:1006000000084FF0000B21F00701AC46ACE8C00930
:10061000ACE8C009ACE8C009ACE8C0098D46704739
:1006200010B50446AFF300802046BDE81040FFF748
:10063000F4BD000001491820ABBEFEE72600020011
:10064000FEE70000014800F089B90000B400002076
:10065000014800F083B90000B4000020014800F018
:100660007DB90000DC000020014800F077B90000EF
:10067000DC0000200FB4134A08B56B460D991060DA
:1006800000209060D060082010610888020A0E489F
:1006900002700A7842704A88120A82708A78C270A0
:1006A0008A88120A02710A794271CA88120A827112
:1006B0008979C1710246034903A800F06CF801B0C2
:1006C0005DF814FB244C0020A1000020014800F03C
:1006D000DDBB000030020020014800F0D7BB000065
:1006E00090020020014800F0D1BB0000D0010020A2
:1006F000014800F0CBBB0000F00200200168182385
:10070000CAB2103AB2FBF3F2054B6FF30901032AA8
:100710009B5CC36500D9091D8165084670470000D0
:100720005C54000810B5014600208B698A6A4FF0BE
:10073000C07453B1B3F5005F15D072B1012A0CD06B
:10074000022A0AD0032A09D104E01AB1012A06D0EC
:10075000022A03D1C96AC90100D5012010BDC96AA6
:10076000A142FAD010BD002AF7D0012AF2D0022A05
:10077000F3D0032AF3D010BD7047012000F0C2BCB3
:10078000082000F0BFBC102000F0BCBC202000F00E
:10079000B9BC72B6FEE7F0B590F820500468A468C2
:1007A000012D05D0022D03D0416A41F480215DE086
:1007B00014F0406F01D1E50055D5C4F30164022C5B
:1007C00003D9416A41F4000150E00125A5401D60B4
:1007D0008D684FF4C0739DB1CE6835434E6845EACD
:1007E000C605066803EB0417F5514FF4C275076898
:1007F00005EB04150E697E51097D012905D009E03C
:100800000E88CD6845EA4655EBE701684E5946F437
:1008100080764E511179D579567941EA05619579FD
:100820002D0445EA062529434FF4C676056806EBF4
:100830000416A9511178D57841EA05619578527866
:100840002D0445EA022211434FF4C475026805EBFA
:1008500004155151006803EB0411425842F00102A3
:1008600042500020F0BD416A41F400114162012074
:10087000F0BD704730B590F82040012C05D0022C17
:1008800003D0416A41F480215DE00468002955D01D
:100890002469A40754D04FF4D874056804EB0114FC
:1008A0002D5915F00405956005682D594ED0ED08B9
:1008B000556005682C5904F00204D4604FF4DA74D2
:1008C000056804EB01142D5905F00F051561056845
:1008D0002D59C5F30725956105682C59240C5461E1
:1008E0004FF4DC72046802EB0112A4581C70046817
:1008F000A458240A5C700468A458240C9C700468F2
:10090000A258120EDA704FF4DE72046802EB011284
:10091000A4581C710468A458240A5C710468A45883
:10092000240C9C710468A258120EDA71006881B11F
:10093000016941F020010161002030BDE468A8E7B1
:10094000416A41F400114162012030BD6D0D156016
:10095000AFE7C16841F02001C160EDE72DE9F05F2C
:100960000546006800244669D0F804908768D0F8EE
:100970000CB0D0F810A0D0F81880F10748D0F907D3
:1009800014D001218160B80703D5284600F01CFA75
:100990000CE0780702D54FF4006407E0380702D571
:1009A0004FF4805402E0284600F00DFAF80516D501
:1009B00029684FF480708860B80503D5284600F098
:1009C00005FA0CE0780502D544F4005407E0380538
:1009D00002D544F4804402E0284600F0F6F9F8031A
:1009E00016D529684FF480308860B80303D52846AF
:1009F00000F0EEF90CE0780302D544F4004407E07F
:100A0000380302D544F4803402E0284600F0DFF9D0
:100A1000300707D55FEACB6004D52968102044F47D
:100A20000074C86070074FF0080707D55FEA0B70C5
:100A300004D52868C760284600F0AAF9B00706D593
:100A40002868C068800702D0284600F0A3F9700625
:100A500007D55FEACA6004D52968102044F4806491
:100A60000861B00607D55FEA0A7004D528680761F7
:100A7000284600F0A5F9F00606D528680069800729
:100A800002D0284600F09DF9B00308D55FEAC9609E
:100A900005D5296810204860284600F093F9F00336
:100AA00007D55FEA097004D528684760284600F03A
:100AB00090F9300446D55FEA497040D5F00504D579
:100AC0005FEAC87001D044F00104B00504D55FEAC4
:100AD000887001D544F00204700504D55FEA4870BF
:100AE00001D544F00404300529D518F0700F26D044
:100AF00008F07000402815D006DC102809D0202806
:100B00000AD0302816D10AE050280ED0602811D122
:100B10000EE044F008040DE044F010040AE044F054
:100B2000200407E044F0400404E044F0800401E0C5
:100B300044F480742868816921F07001816129681A
:100B400004204860002C05D0686A2043686228466B
:100B5000FFF78FFEBDE8F09F70B5040003D094F856
:100B6000200010B104E0012070BD204600F082F8A2
:100B70002068016841F00101016000F0CDFB0546ED
:100B8000052604E000F0C8FB401B0A2811D82068A5
:100B90004068C007F6D02068016821F002010160BA
:100BA00000F0BAFB05460BE000F0B6FB401B0A283C
:100BB00006D9606A40F40030606284F82060D2E7B1
:100BC000206840688007EFD4207E012820680168F3
:100BD0003DD021F080010160607E0128206801681D
:100BE00038D021F040010160A07E01282068016812
:100BF00033D021F020010160E07E012820680168E7
:100C00002ED041F010010160207F0128206801688A
:100C100029D021F008010160607F01282068016867
:100C200024D021F004010160D4E902010843D4E991
:100C30000412114308436168491E08432168C861D2
:100C400000206062012084F82000002070BD41F087
:100C50008001C0E741F04001C5E741F02001CAE74B
:100C600021F01001CFE741F00801D4E741F0040181
:100C7000D9E70000F0B587B0044614216846FFF7B5
:100C800049FC3E4B3E48DFF8F0E01968D4F800C05C
:100C90003B4A03250226092710300024491CF4454D
:100CA0002AD11960012907D1016841F00071016062
:100CB000006800F000700590106840F008001060B7
:100CC0001068CDE9005600F00800CDE904706946CF
:100CD0002C48CDE9024500F021FA0022052113201D
:100CE00000F08CFB132000F07BFB00220521142078
:100CF00000F084FB14203AE0DFF88CE0F44538D1B2
:100D0000D0F800C04CF0806CC0F800C0D0F800C033
:100D100001290CF0806CCDF814C0196007D101686E
:100D200041F000710160006800F0007005901068EB
:100D300040F002001060106802AB00F00200059065
:100D40006020CDE9000683E8B00069460F4800F056
:100D5000E5F9002205213F2000F050FB3F2000F084
:100D60003FFB00220521402000F048FB402000F01E
:100D700037FB07B0F0BD0000006400400C0000200D
:100D800030380240000C024000680040000402407D
:100D90007047000010B58AB0044607AB6A460021D0
:100DA000FFF768FD04492068884202D10349012009
:100DB00008700AB010BD000000640040A0000020D0
:100DC000704770477047704770477047704770476B
:100DD000704770472DE9F0410446876D00F09CFA9A
:100DE000064694F835000025022806D0802060656C
:100DF00084F834500120BDE8F0812068016821F0BA
:100E0000160101602068416921F080014161206C78
:100E100008B9A06C20B12068016821F008010160C8
:100E20002068016821F0010101600CE000F074FA13
:100E3000801B052807D920206065032084F8350031
:100E400084F83450D7E720680068C007EED194F8E2
:100E50005C103F208840B860012084F8350084F899
:100E600034500020C7E790F83510022903D08021C4
:100E7000416501207047052180F835100068016840
:100E800021F0010101600020704700002DE9F843C6
:100E900004464FF00009CDF8009063484FF4165116
:100EA000A56D0068B0FBF1F72E6894F85C1008207F
:100EB00000FA01F131420FD021680A6852070BD5C0
:100EC0000A6822F004020A6094F85C108840A86066
:100ED000606D40F00100606594F85C104FF001080F
:100EE00008FA01F0304208D021684969090604D5A2
:100EF000A860606D40F00200606594F85C1004200A
:100F00008840304208D021680968890704D5A86064
:100F1000606D40F00400606594F85C10102088401B
:100F2000304218D021680968090714D5A8602068E4
:100F30000168490304D50068000308D5A16C07E0E7
:100F40000168C90503D4016821F008010160216C22
:100F500009B12046884794F85C1020208840304230
:100F600031D021680968C9062DD5A86094F83500EC
:100F700005282068016806D0490347D500680003AA
:100F80001DD4616C1CE021F01601016020684169EC
:100F900021F080014161206C08B9A06C20B120686B
:100FA000016821F00801016094F85C103F2088403E
:100FB000A86084F8358084F83490216D1FE0E16BDF
:100FC00009B120468847606D00282BD0606DC007AE
:100FD00014D0052084F835002068016821F0010153
:100FE00001600098401C0090B84203D82068006857
:100FF000C007F6D184F8358084F83490E16C00297C
:1010000010D001B02046BDE8F04308470168C9058B
:10101000D5D4016821F01001016084F8358084F88E
:101020003490CCE7BDE8F8831C0000202DE9F041A6
:10103000044600F071F906465CB1022084F83500E0
:10104000002584F834502068016821F00101016016
:101050000DE00120BDE8F08100F05EF9801B05285D
:1010600005D920206065032084F83500F2E7206868
:101070000068C007F0D12268116820480140D4E917
:1010800001031843D4E90336334318436369184313
:10109000A3691843E3691843236A18430843616A44
:1010A000042903D1D4E90B131943084310602068C5
:1010B0004069666A20F0070130460E430127042884
:1010C0000CD1A06A0643E06A40B12046FFF72AFB34
:1010D00020B14020606584F83570BAE72068466129
:1010E0002046FFF70BFB94F85C203F219140816084
:1010F000656584F835700020ACE700003F8010F093
:1011000070470000044910B50A68024202D0086026
:10111000FFF7F6FF10BD0000143C01402DE9F84F29
:10112000DFF8BCA1002201250AF1040B03264FF0D1
:101130000F090BF1040E00BF0B6805FA02F42340FF
:10114000A34270D10F7907F00307012F01D0022FBE
:1011500016D187684FEA420806FA08FC27EA0C070E
:10116000D1F80CC00CFA08FC4CEA070CC0F808C017
:101170004768A7430C79C4F3001494403C4344608F
:101180000C79E443A4070AD0C4684FEA420C06FA7B
:101190000CF7BC438F6807FA0CF72743C7600C793C
:1011A00004F00304022C12D1D40800EB840CDCF808
:1011B00020405707FF0E09FA07F824EA0804D1F87F
:1011C000108008FA07F848EA0408CCF82080046880
:1011D0004FEA420C06FA0CF7BC430F7907F00307FD
:1011E00007FA0CF7274307604C6814F4403F70D0AF
:1011F0003C4C276847F480472760246822F00307A7
:1012000004F480440094384C07EB040CDCF80848E4
:1012100097074FEA177809FA08F7BC43334FB842EB
:1012200002D1002724E054E0314FB84201D1012718
:101230001EE0304FB84201D1022719E02E4FB842CC
:1012400001D1032714E02D4FB84201D104270FE04C
:101250002B4FB84201D105270AE02A4FB84201D1ED
:10126000062705E0284FB84201D1072700E00827EC
:1012700007FA08F72743CCF80878DAF80040574611
:10128000D1F804C09C435FEACC3C00D51C433C60D1
:10129000DBF800405F46D1F804C09C435FEA8C3C19
:1012A00000D51C433C60DEF800407746D1F804C00E
:1012B0009C435FEACC2C00D51C433C60084F0C37A4
:1012C0003C68D1F804C09C435FEA8C2C00D51C43D9
:1012D0003C60521C102AFFF42FAFBDE8F88F0000CD
:1012E000003C014044380240003001400000024010
:1012F0000004024000080240000C024000100240BE
:101300000014024000180240001C02400AB1816132
:1013100070470904FBE7000001488068704700003F
:1013200010000020024881680278114481607047F3
:10133000100000200B4810B5016841F400710160F5
:10134000016841F480610160016841F480710160CD
:10135000032000F073F80F2000F006F800F024F8E6
:10136000002010BD003C024070B50D4D04464FF406
:101370007A712878B1FBF0F00A490968B1FBF0F006
:1013800000F010FB48B9102C07D200222146501E55
:1013900000F034F800206C6070BD012070BD0000CA
:1013A000100000201C0000200C4882B0016841F4AD
:1013B00080410160006800F4804000900748001FF1
:1013C000016841F0805101600068002200F0805007
:1013D00000900F21901E02B000F010B84438024077
:1013E000002809DB00F01F02012191404009800024
:1013F00000F1E020C0F8001170470000F0B40E4B7F
:101400001B680C46C3F30223C3F10705042D00D962
:101410000425191D072901D2002300E0DB1E012647
:1014200006FA05F1491E214099409E40761E16405D
:101430003143F0BC01F09BB80CED00E0064900F030
:10144000070208684FF6FF03184040EA0220034AEB
:1014500010430860704700000CED00E00000FA0542
:101460002DE9F0470E46050065D0DFF81481D8F865
:101470000000F7B200F00700B04207D288F8007011
:10148000D8F8000000F00700B04254D128683D4C65
:10149000810712D5400703D5206840F4E050206052
:1014A0002878000703D5206840F460402060206859
:1014B000A96820F0F000084320602878C0072DD0EC
:1014C000304968680839012812D0022813D003284F
:1014D00011D00968890700292DDA216821F003015C
:1014E00001432160FFF718FF814641F2883A0EE080
:1014F00009688903EFE709688901ECE7FFF70CFF4A
:10150000A0EB0901514502D90320BDE8F08720680E
:10151000696800F00C00B0EB810FEFD1D8F8001033
:10152000404601F00701B14207D90770006800F09A
:101530000700B04201D00120E7E72878400705D531
:101540002068E96820F4E05008432060287800070C
:1015500006D52068296920F4604040EAC100206077
:1015600000F038F82168084AC1F30311515CC84003
:101570000649086006480068FFF7F6FE0020C4E749
:10158000003C024008380240645400081C0000205F
:10159000140000200448054900680968044AC1F3A2
:1015A0008221515CC84070471C000020083802406E
:1015B000745400080448054900680968044AC1F3E6
:1015C0004231515CC84070471C000020083802407E
:1015D00074540008154810B5006810F00C02144847
:1015E00013D01449042A0FD0082A0ED10F4C241FFF
:1015F0002268236802F03F025B0207D52068C0F32F
:101600008810A0FB010106E0084610BD2168C1F367
:101610008811A1FB00010023FEF786FE2168C1F3BB
:101620000141491C4900B0FBF1F010BD08380240EF
:101630000024F400001BB7002DE9F84F04006ED021
:101640002078DFF84C93C007A9F104054AD009F1CE
:1016500004000168C1F38101012908D00068C0F3CA
:10166000810002280AD1D9F80000400206D5286876
:10167000800337D560680028E1D033E06068B0F5BA
:10168000803F10D0B0F5A02F286810D020F4803013
:101690002860286820F4802028606068A8B1FFF7DF
:1016A0003BFE06460DE0286840F48030F4E740F445
:1016B00080202860F7E700BFFFF72EFE801B64281C
:1016C00073D828688003F7D50CE0FFF725FE06469F
:1016D00005E000BFFFF720FE801B6428F0D82868D3
:1016E0008003F7D42078DFF8AC8280074FF0000A3F
:1016F0003ED5A748001D016811F00C0F08D0006806
:10170000C0F3810002280BD1D9F80000400207D4B1
:101710002868800716D5E068012800D112E033E17F
:10172000E068B8B10120C8F80000FFF7F5FD0646F3
:1017300005E000BFFFF7F0FD801B0228C0D8286835
:101740008007F7D52868216920F0F80040EAC10039
:1017500028600DE0C8F800A0FFF7DEFD064604E0B3
:10176000FFF7DAFD801B02281FD828688007F7D40E
:101770002078000722D5864F87486169703771B19C
:1017800001210160FFF7C8FD064604E0FFF7C4FD34
:10179000801B022809D838688007F7D50EE0C0F80A
:1017A00000A0FFF7B9FD064605E082E0FFF7B4FDB3
:1017B000801B02287DD838688007F7D4207840073E
:1017C00068D5DFF8CCB100270BF13C0BDBF800004B
:1017D000C0000BD4DBF8001041F08051CBF80010B2
:1017E000DBF80000012700F0805000906B4E30685D
:1017F000C00510D4306840F480703060FFF78CFD75
:10180000009005E0FFF788FD0099401A022850D8A3
:101810003068C005F6D55E4EA0686C3601280FD042
:101820000528306810D020F001003060306820F0CA
:1018300004003060A068B8B1FFF76EFD00900FE0C3
:10184000306840F00100F4E740F004003060F7E752
:10185000FFF762FD0099411A41F28830814266D853
:1018600030688007F4D50EE0FFF756FD009007E0E2
:10187000FFF752FD0099411A41F28830814256D853
:1018800030688007F4D42FB1DBF8001021F08051CC
:10189000CBF80010A069C8B33D49091D0968C1F320
:1018A000810102294AD00228504607D0C8F86000BA
:1018B00000E03CE0FFF730FD04463BE04746C8F857
:1018C0006000FFF729FD064605E000BFFFF724FD95
:1018D000801B02282BD828688001F7D4D4E907019F
:1018E0000843A16A2E4A490802EB0141626A41EAB3
:1018F0008211084394F82C1040EA0161C9F80010E5
:1019000001203866FFF708FD044606E03EE000BF10
:10191000FFF702FD001B022809D828688001F7D5CF
:1019200034E000BFFFF7F8FC001B022802D90320B7
:10193000BDE8F88F28688001F4D427E00128F7D0AB
:10194000D9F80000E26900F4800191421CD1226ABA
:1019500000F03F01914217D147F6C071626A014021
:10196000B1EB821F10D1A26A4FF0FF3300F4403177
:1019700003EB5202B1EB024F06D194F82C1000F0A9
:101980007060B0EB016F01D00120D1E70020CFE7FC
:101990000438024000004742800E47420070004079
:1019A0000000FFFF10B5401EB0F1807F01D3012081
:1019B00010BD4FF0E02460610F21601700F0D7FDEB
:1019C0000020A06107202061002010BD70477047F3
:1019D000F8B5016804460868CA684B6910F00F0F33
:1019E0004FF0000559D003F0010602F49077374319
:1019F00065D0C10705D0D10503D5216C41F00101A7
:101A00002164410705D5D90703D0216C41F00201BB
:101A10002164810705D5D90703D0216C41F0040169
:101A20002164010707D502F02001314303D0216C66
:101A300041F008012164216C00293AD0800604D5C8
:101A4000900602D5204600F08CFC20684069216C8D
:101A5000C0F38010090700D460B3204600F05AFCA0
:101A600020684069400621D52068143050E8001FE6
:101A700021F0400140E80012002AF5D1A06BA8B186
:101A80006C490165A06BFFF7EEF9002811D0A06B3F
:101A9000016D01B0BDE8F040084783060FD59306FD
:101AA0000DD52046BDE8F84000F05BBC2046FFF7AE
:101AB0008EFFF8BD2046FFF78AFF2564F8BD266B30
:101AC0002023012E79D1C60677D5D60675D50868AC
:101AD000486800904869400640D5A16B0868406896
:101AE0000004000CEAD0A28D8242E7D9E085C869E3
:101AF000B0F5807F2DD020680C3050E8001F21F415
:101B0000807140E80012002AF5D12068143050E8B6
:101B1000001F21F0010140E80012002AF5D12068E1
:101B2000143050E8001F21F0400140E80012002A64
:101B3000F5D184F83E30256320680C3050E8001F52
:101B400021F0100140E80012002AF5D1A06BFFF748
:101B500041F9A08DE18D401A81B229E0A08DE18D7F
:101B6000401A81B2E08D0028A8D00029A6D02068B4
:101B70000C3050E8002F22F4907240E80026002E2E
:101B8000F5D12068143050E8002F22F0010240E81F
:101B90000026002EF5D184F83E30256320680C30F5
:101BA00050E8002F22F0100240E80023002BF5D16E
:101BB0002046FFF70BFFF8BDFFE705062BD51506FE
:101BC00029D594F83D002128F5D1A068B0F5805FB3
:101BD00001D12069B0B1206A411C216221680078DE
:101BE0004860E08C401E0004000CE084E3D12068D3
:101BF000C16821F08001C1602068C16841F04001E6
:101C0000C160D8E7206A0088C0F308004860206AF5
:101C1000801C2062E5E74006CDD55006CBD5CA68CA
:101C2000204622F04002CA6084F83D3000F059F9A5
:101C3000C1E700000523000870B5040004D094F843
:101C40003D00002510B106E0012070BD84F83C5035
:101C5000204600F023F8242084F83D002068C16865
:101C600021F40051C160204600F0DCFB20680169CE
:101C700021F4904101612068416921F02A0141610C
:101C80002068C16841F40051C1602564202084F8B7
:101C90003D0084F83E00002070BD00002DE9F04FAB
:101CA00087B0054614216846FEF734FC8148DFF80A
:101CB00000821438D5F800C07E4B02210322002494
:101CC000071586154FF0070E4FF44039C4454CD127
:101CD000D3F800C04CF0100CC3F800C01B6803F030
:101CE00010030593036843F002030360036803F0E5
:101CF00002030593036843F00103036000688B4609
:101D000000F0010005908020CDE9000BCDE90242F2
:101D10009246F0466946CDF810E06748FFF7FEF9B5
:101D20007000CDE9000BCDE9024A6946CDF810807C
:101D30006248FFF7F3F9DFF88C816149404602C041
:101D4000F104E0E80214E0E8034740F8044C80E8BE
:101D500050024046C8F824403DE000BFC5F8388036
:101D6000C8F8385007B0BDE8F08FDFF85C81C44593
:101D700038D1504B1B1FD3F800C04CF4802CC3F853
:101D800000C01B6803F480230593036843F0040339
:101D90000360006800F0040005904FF440608DE897
:101DA0001300CDE9032E69464848FFF7B7F9DFF87D
:101DB0001481474908F16008404602C04FF00061B5
:101DC000E0E80214E0E8034740F8044C80E85002E1
:101DD0004046C8F82440FFF729F90028BED0FEF796
:101DE000D8FCBBE7DFF8EC80C445BBD1D3F800C01A
:101DF000A2464CF0200CC3F800C01B6803F020037F
:101E00000593036843F040030360006800F040005E
:101E100005904FF484408DE813000820CDE903209D
:101E200069462D48FFF77AF9DFF89880244908F1D0
:101E3000C0084046603902C08905E0E80214BB468C
:101E4000E0E803474F4640F8044C80E8D0004046A5
:101E5000C8F82440FFF7EAF808B1FEF79AFC1848E2
:101E60001E4CC5F838801830C8F8385020604FF044
:101E7000206060604020A060C4E903AB04F1180159
:101E80005046C4F814A081E8C1002046C4F824A03C
:101E9000FFF7CCF808B1FEF77CFC6C63002205214B
:101EA0004720A563FFF7AAFA4720FFF799FA59E7F9
:101EB000001001404438024000040240000002408B
:101EC00088640240D0010020004800400008024021
:101ED000286002400014014000180240F002002077
:101EE00070477047FEE700000F4810B50D490160CC
:101EF0000321416000214FF410228160C0E90312E8
:101F00004FF400124261017641768176C176017705
:101F10004177FEF721FE002803D0BDE81040FEF710
:101F200038BC10BD00640040B40000200F4810B55C
:101F30000D4901600321416000214FF410228160AE
:101F4000C0E903124FF400124261017641768176B6
:101F5000C17601774177FEF7FFFD002803D0BDE889
:101F60001040FEF716BC10BD00680040DC000020E9
:101F7000194808B5016841F480010160016801F465
:101F800080010091016841F40011016000680022A5
:101F900000F40010009005210C20FFF72FFA0C2010
:101FA000FFF71EFA002205213920FFF727FA392012
:101FB000FFF716FA002205214420FFF71FFA4420FC
:101FC000FFF70EFA002205214520FFF717FABDE8BA
:101FD00008404520FFF704BA3038024010B50B4ADC
:101FE00000210B4801F022F80A4C084A0021206029
:101FF0002432094801F01AF8044A6060483200218E
:10200000064801F013F8A06010BD0000F05300086E
:10201000D52E000800000020C92E0008DD3F000872
:102020002DE9F04387B014216846FEF773FA54484F
:10203000016841F002010160016801F002010591AF
:10204000016841F040010160016801F04001059123
:10205000016841F001010160016801F00101059191
:10206000016841F008010160016801F00801059173
:10207000016841F004010160016801F0040105916B
:10208000016841F080010160016801F08001059163
:10209000016841F02001016000683A4F00F0200023
:1020A0000590012240213846FFF730F9DFF8D8804B
:1020B000012210214046FFF729F9DFF8D0900122D4
:1020C00011464846FFF722F901244025CDE9005486
:1020D0000294694638460394FFF720F800950225DC
:1020E000CDE901540320CDE9035069462848FFF7A4
:1020F00015F809204FF40416CDE90006694602944C
:102100003846FFF70BF81020CDE900046946404639
:10211000CDE90245FFF702F83020CDE90006694617
:1021200002941C48FEF7FAFF009469464846019461
:10213000CDE90245FEF7F2FF062100220846FFF72F
:102140005DF90620FFF74CF9002205210920FFF771
:1021500055F90920FFF744F9002205210A20FFF76D
:102160004DF90A20FFF73CF9002205211720FFF75F
:1021700045F91720FFF734F907B0BDE8F0830000F8
:1021800030380240001802400000024000040240C3
:1021900000140240000802400C4810B50A490160D2
:1021A0004FF461214160002181600C22C160C0E9CF
:1021B00004128161C161FFF73FFD002803D0BDE833
:1021C0001040FEF7E6BA10BD0010014004010020E7
:1021D0000C4810B50A4901600B494160002181603B
:1021E0000C22C160C0E904128161C161FFF724FDC6
:1021F000002803D0BDE81040FEF7CBBA10BD0000A8
:102200000048004048010020A08601000C4810B59D
:102210000A4901604FF4E1314160002181600C22E4
:10222000C160C0E904128161C161FFF705FD0028AA
:1022300003D0BDE81040FEF7ACBA10BD0014014059
:102240008C010020FEE7FEE710B5FFF76BF802F007
:1022500011FA012803D0BDE8104001F03FBF10BDC6
:1022600030B593B030216846FEF754F914210CA81C
:10227000FEF750F91D480025016841F080510160CA
:10228000006800F0805011901948016841F48041C5
:1022900001600068022400F4804011900120009049
:1022A000000401908001CDE9064006200890A82096
:1022B000CDE9090404200B906846FFF7BDF908B189
:1022C00072B6FEE70CA90F2081E831004FF4A05050
:1022D0000F904FF48050109005210CA8FFF7C0F824
:1022E000002801D072B6FEE713B030BD403802407E
:1022F000007000400248016841F4700101607047BD
:1023000088ED00E010B5806B0021C185C184FFF726
:102310005EFB10BD01680C3151E8002F22F4907271
:1023200041E80023002BF5D10168143151E8002F5A
:1023300022F0010241E80023002BF5D1016B0129B5
:1023400009D101680C3151E8002F22F0100241E858
:102350000023002BF5D1202180F83E1000210163DD
:10236000704708B590F83E10222901D0022008BD20
:1023700082684FF480539A4201D1016921B1816A88
:102380009A421BD04AB10AE00268816A5268C2F3DD
:1023900008020A80816A891C08E0026972B1026839
:1023A000526802F07F020A70816A491C8162C18D05
:1023B000491E0904090CC18503D019E0026852685E
:1023C000F1E70168CA6822F02002CA600168CA68A1
:1023D00022F48072CA6001684A6922F001024A61EF
:1023E000202180F83E10016B012903D0FFF778FD12
:1023F000002008BD0021016301680C3151E8002F65
:1024000022F0100241E80023002BF5D101680A6890
:10241000D20602D50A6849680091818DFFF7D6FA85
:10242000E6E7000070B5044600680169E26821F43F
:102430004051114301612169A068E2690843616963
:10244000114308432168CA6849F20C639A43024366
:10245000CA6020684169A26921F440711143416159
:1024600031492068884202D03049884202D1FFF7C2
:10247000A1F801E0FFF78EF8E26900231921642535
:102480003226B2F5004F626828D0A0FB0101930FFD
:102490009200FDF749FF0146B0FBF5F06FF018021E
:1024A000504301EB800006EB0010B0FBF5F000F0AC
:1024B000F002B1FBF5F002EB0012B1FBF5F06FF0AA
:1024C0001803584301EB800006EB0010B0FBF5F059
:1024D00000F00F0021681044886070BDA0FB01016E
:1024E00092185B41FDF720FF0146B0FBF5F00201B9
:1024F000B1FBF5F06FF01803584301EB800006EBD9
:10250000C000B0FBF5F000F0F80002EB4002B1FBB8
:10251000F5F0584301EB800006EBC000B0FBF5F08E
:1025200000F00700D6E70000001001400014014051
:102530000148FFF74DBA00008C010020FEE703B40C
:1025400001984100009850EAC12018BF04204A0DAC
:1025500018BF40F0010040F2FF72B2EB515F08BFBC
:1025600040F00200012808BF052002B070470907AB
:10257000090E002804DB00F1E02080F80014704709
:1025800000F00F0000F1E02080F8141D70470000FB
:1025900010B52F499FED2C1B2DED020B84B0059833
:1025A00020F000408842D8BF9DED040B2DDD294965
:1025B000884209D1049840B94FF00100FDF7D9FFD6
:1025C00000F03EFC06B010BD05DB9DED040B00F0F5
:1025D0002BFC06B010BD68469DED040B00F03CF8E6
:1025E00010F0030004BF9DED021B9DED000B0CD00D
:1025F00001280ED09DED021B9DED000B022817D087
:10260000012000F079FB06B010BD00F041FA06B0E1
:1026100010BD9DED021B9DED000B012000F06CFB39
:1026200051EC100B02F0DCF906B041EC100B10BDC0
:1026300000F02EFA51EC100B02F0D2F906B041EC8A
:10264000100B10BD000000000000000000000000A2
:10265000FB21E93F0000F07F2DE9F14F04462DED0D
:10266000020B2DED088B8AB09FEDE70B80ED020B7E
:10267000139EE74826F0004585420ADC9DED120BCB
:10268000002084ED000B0AB0BDEC088B03B0BDE860
:10269000F08FE0489FEDE0AB9FEDE1BBA84247DD46
:1026A000E14F9FEDE39B9FEDE48B9DED120B53EC0F
:1026B0001A2B51EC100B002E1CDD02F033FD41EC07
:1026C000100BBD4208D053EC1B2B51EC100B02F049
:1026D00029FDC4E900010BE053EC192B51EC100B60
:1026E00002F020FD53EC182B02F01CFDC4E90001A0
:1026F0000120C8E702F0B2F941EC100BBD4208D04E
:1027000053EC1B2B51EC100B02F0A8F9C4E90001AB
:102710000BE053EC192B51EC100B02F09FF953EC2A
:10272000182B02F09BF9C4E900014FF0FF30AAE733
:10273000C348A84279DB9DED120B51EC100B00F061
:10274000B7FB41EC180B9FEDC00B53EC102B02F0C4
:10275000DFFB9FEDBF1B53EC112B02F07FF902F062
:102760007DFB074602F0A9FB41EC190B53EC1A2B39
:1027700002F0CEFB53EC182B02F0C8FC41EC180B16
:1027800053EC1B2B51EC190B02F0C2FBDFF8C8A273
:1027900041EC100B4FEA15580125FA4453EC102B6D
:1027A00051EC180B02F0BEFC032DC4E900013DD032
:1027B000C1F30A5005EB4511A8EB00001139814225
:1027C00034DA0AEB051BB0EE48AA9BED000BF0EEE5
:1027D00068AA53EC102B51EC190B02F099FB41EC59
:1027E0001B0B51EC1A0B53EC1B2B02F09BFC41EC26
:1027F000180B51EC1A0B53EC182B02F093FC53EC12
:102800001B2B02F08FFC9BED020B41EC1A0B53ECDF
:10281000102B51EC190B02F07BFB53EC1A2B02F03E
:1028200081FC41EC100B6D1CB8E70EE0002EA8BF38
:102830003846BFF628AF94ED000B51EC100B02F0B8
:10284000CFF8C4E9000178421DE7C6F3130040F455
:10285000801EC6F30A50A0F2F530471100F01F05A4
:10286000C5F12000DDF848B00890002006900790E0
:102870000520EC467949002D07EB0002794408BF9A
:1028800051F8221009D051F8223001EB8201AB40FF
:102890004A68089922FA01F11943A1FB0E26A1FB0F
:1028A0000B131A449A4234BF0123002303EB06089A
:1028B0000CEB8003D3E901A60E448E4234BF012104
:1028C000002192448A4411B1924502D903E0924515
:1028D00001D2012100E00021C3E901A641444CF8E6
:1028E0002010011EA0F10100C4DC029800F100508C
:1028F000850F0298DDE903678000DDF8148002F09F
:10290000DCFA41EC1A0B304602F0EEFA9FED541B54
:1029100053EC112B02F0FCFA41EC1B0B384602F091
:10292000E3FA9FED511B53EC112B02F0F1FA41EC4D
:10293000180B404602F0D8FA9FED4D1B53EC112BBB
:1029400002F0E6FA41EC190B51EC180B53EC192B81
:1029500002F084F853EC1B2B02F080F853EC1A2B96
:1029600002F07CF8CDE90801002008909DED080BED
:1029700053EC1A2B51EC100B02F0D4FB53EC1B2B35
:1029800002F0D0FB53EC182B02F0CCFB53EC192BCC
:1029900002F0BCFB9FED381B53EC112B02F0B8FA90
:1029A0009FED370B41EC180B53EC102B9DED080BF2
:1029B00051EC100B02F0ACFA53EC182B02F04EF86D
:1029C0009FED310B41EC180B53EC102B9DED080BD8
:1029D00051EC100B02F09CFA53EC182B02F03EF86D
:1029E00041EC100B139810F0004F06D06D4251ECE3
:1029F000100B01F0F5FF41EC100B284684ED000BA5
:102A000041E600000000000000000000000000009F
:102A1000FB21E93F7CD9024000004054FB21F93FF3
:102A20003163621A61B4D03DFB21F93F0000000020
:102A30000000601A61B4D03D7370032E8A19A33B65
:102A4000FB2139410000000083C8C96D305FE43FBD
:102A5000000000000000E03F122D0000602C00008C
:102A6000000000000000103E000000000000103CCC
:102A7000000000000000103A182D4454FB21F93DDD
:102A80003326A611460B113C00000054FB21F93DF2
:102A900010B52DED040B2DED088B82B0B0EE419AF0
:102AA000F0EE619A0B9820F000449FED4BABB4F12F
:102AB000795F11DA9DED0A0B51EC100B02F0CEF9A3
:102AC000002801BFB0EE4A0AF0EE6A0A02B0BDEC7F
:102AD000088B04BF04B010BD9DED0A0B53EC102B06
:102AE00051EC100B02F014FA41EC180B3C48062193
:102AF000B0EE480AF0EE680A784400F081F853EC32
:102B0000182B51EC100B02F003FA9DED0A0B41EC6F
:102B10001B0B53EC192B51EC100B02F0F9F941ECA3
:102B2000190B53EC1B2B51EC180B02F0F1F953EC81
:102B3000192B02F0F7FA9FED2C0B41EC190B53EC1B
:102B4000102B51EC180B02F0E3F941EC100B284864
:102B5000844210DA53EC192B51EC100B02F0E2FA1C
:102B600053EC1A2B02F0D2FA41EC100B02B0BDEC80
:102B7000088B04B010BD1F48A042BCBF9FED1E1BB8
:102B80008DED001B06DBA4F50010019000200090E5
:102B90009DED001B51EC100B53EC112B02F0C2FA0F
:102BA0009DED000B41EC180B53EC102B51EC1A0B64
:102BB00002F0B8FA41EC1A0B53EC192B51EC180B3C
:102BC00002F0B0FA53EC1A2B02F0A0FA41EC100B11
:102BD000CCE7000000000000000000000000F03F13
:102BE0008429000000000000000000000000E03F19
:102BF0003333D33F0000E93F000000000000D23F24
:102C000070B504462DED028B4D1E00EBC500B0EEF5
:102C1000408AF0EE608A90ED000B35F0060017D088
:102C200053EC182B51EC100B02F072F941EC100B25
:102C30006D1E04EBC50090ED001B51EC100B53EC26
:102C4000112B01F00BFF41EC100B35F00600E7D122
:102C5000022D36D0042D1CD0062D1CBFBDEC028BDE
:102C600070BD53EC182B51EC100B02F051F994EDA0
:102C70000A1B53EC112B01F0F1FE53EC182B02F060
:102C800047F994ED081B53EC112B01F0E7FE41ECE2
:102C9000100B53EC182B51EC100B02F039F994ED9A
:102CA000061B53EC112B01F0D9FE53EC182B02F04C
:102CB0002FF994ED040B53EC102B01F0CFFE41ECF7
:102CC000100B53EC182B51EC100B02F021F994ED82
:102CD000021B53EC112B01F0C1FE53EC182B02F038
:102CE00017F994ED001B53EC112B01F0B7FEBDEC6E
:102CF000028B41EC100B70BD31B504462DED040B79
:102D00002DED0A8BB0EE41BAF0EE61BA0B989DED55
:102D10000A0B20F00040B0F1795F0DDA51EC100B96
:102D2000FFF70DFC042808BF00F09AF89DED0A0B90
:102D3000BDEC0A8B05B030BD53EC102B51EC100BE1
:102D400002F0E6F841EC180B9DED0A0B53EC182B42
:102D500051EC100B02F0DCF841EC190B2C48B0EEF2
:102D6000480AF0EE680A05217844FFF749FF9FED15
:102D70002ACBB0EE40AAF0EE60AA9CB353EC1C2B19
:102D800051EC190B02F0C4F841EC1C0B53EC1A2B5C
:102D900051EC190B02F0BCF89FED210B41EC190B23
:102DA00053EC102B51EC1B0B02F0B2F853EC192B27
:102DB00002F0B8F953EC182B02F0AAF853EC1B2BD5
:102DC00002F0B0F953EC1C2B02F0ACF99DED0A1B9C
:102DD00053EC112B02F09AF9BDEC0A8B05B041ECD3
:102DE000100B30BDFFE753EC1A2B51EC180B02F01F
:102DF0008FF853EC1C2B01F031FE53EC192B02F031
:102E000087F89DED0A1B53EC112B01F027FEE3E739
:102E10000C28000000000000495555555555C5BF08
:102E2000000000000000E03F10B553EC102B51EC07
:102E3000100B01F013FE41EC100B10BD0000000060
:102E40009FED050B10B553EC102B51EC100B01F05E
:102E5000ADFE41EC100B10BD0000000000000000B2
:102E60009FED050B10B553EC102B51EC100B02F03D
:102E70004FF841EC100B10BD0000000000000010E6
:102E800010EE100A0749DFED080A884202DD30EE35
:102E9000600A704710EE100A04498842F9D930EEF2
:102EA000200A7047000034430000B443000034C3DC
:102EB00082B0CDE9000121F0004001909DED000BB2
:102EC00002B051EC100B704710B5012000F073F800
:102ED000FBE7000092B0184C184F194D0BAE40F2B2
:102EE0002318184B184A19491948009400F014FE89
:102EF000144B154A15491648009400F02BFD0F4954
:102F00000D4800F040F820220D4908A8FDF7C8FA46
:102F100095F820008DF84000686A11901C22314617
:102F200068460797FDF7BCFA0DF1200C40469CE877
:102F30000E00FDF79FFBD4E7D44C0020AA00002030
:102F4000B4000020794C0020684C0020524C002036
:102F50003C4C0020FEF7EEF9FFF782F9FFF760F82E
:102F6000FFF706F8FEF7C0FFFEF7E0FFFFF730F9C6
:102F7000FFF712F9FFF74AF900F02AF8FFF72EF8E9
:102F800000F038F8FEE7027C0A8090ED050ABDEEFD
:102F9000C00A10EE102A4A8090ED060ABDEEC00A63
:102FA00010EE102A8A8090ED070ABDEEC00A10EEDE
:102FB000100AC880704710B5EFF3058111B16FF0AA
:102FC000050403E0002408B100F022FF204610BDF4
:102FD000EFF3058010B16FF00500704704480168F9
:102FE00011B14FF0FF3070470121016000207047A0
:102FF0007000002010B5EFF3058010B16FF00500F0
:1030000010BD08480168012902D04FF0FF3010BD03
:10301000054A002182F8141D0221016000F060FFC2
:10302000002010BD700000200BE000E02DE9FF4102
:103030004FEA01034FF00005EFF30581039549BB0B
:1030400040B38027182100244AB3166806B13446DD
:1030500096691EB13146761E382E02D21679F607D1
:1030600003D0002004B0BDE8F081566906B1B7086E
:10307000D2F808C0BCF1000F0DD0D5685C2D18D374
:1030800012693AB136B18DE806103A46214601F090
:10309000C6FA03900DE0D6685EB912694AB903AA70
:1030A000CDE90012BAB2214601F08CFA012800D015
:1030B00003950398D6E700002DE9F041134C0F4625
:1030C0000546E6682068001D00F06FFD681C07D10A
:1030D00037B12168BDE8F0410D48091D00F0B4BDCD
:1030E00020683544B5424560216805D2A06BBDE833
:1030F000F041091D00F090BD606B091D00F08CFDD2
:10310000A06A854200D2A562BDE8F08120000020BF
:10311000400800202DE9F041054600F0A1FD2D4CAE
:10312000A068401CA06020682B4F10B1606930B3CC
:103130002BE02560A068012827D1002606EB860039
:1031400007EB800000F05AFD761C382EF6D323489A
:1031500000F054FD2148143000F050FD1F48283085
:1031600000F04CFD1D483C3000F048FD1B4850303D
:1031700000F044FD194860631430A06305E0206846
:10318000E96AC06A884200D82560606A401C6062B3
:103190006864E86A2169884200D9206100EB8000F8
:1031A00007EB8000291D00F04FFD00F079FD6069FC
:1031B00000280CD02068E96AC06A884207D2084912
:1031C0004FF080500860BFF34F8FBFF36F8FBDE8A3
:1031D000F08100002000002090030020F007002074
:1031E00004ED00E038B500F03BFD104C2068C8B994
:1031F0000F4800F003FD0E48143000F0FFFC0C48AF
:10320000E060143020610A4B0020F03B009003F195
:10321000500210210A2000F077FF206010B105A1B4
:1032200000F0C0FDBDE8384000F03ABD5C00002071
:1032300044090020546D72510000000030B4026C4B
:103240000B46002A0BD0C1681144C1608468A142BA
:1032500001D30168C16030BC1846FDF7DCB830BC52
:1032600070472DE9F041856B174604460026026C35
:1032700082B1C7B1E068FDF7CEF8E168206C091AA9
:10328000E1602268914202D2A168081AE060022F30
:1032900016D017E02068A8B9A06801F063FA0646C6
:1032A0000020A0600EE06068FDF7B5F8216C606852
:1032B00008446060A168884204D32068606001E02F
:1032C00005B16D1E6D1CA5633046BDE8F08110B5DB
:1032D000044690F8590058B101280CD002280FD0AC
:1032E000502080F31188BFF34F8FBFF36F8FFEE73D
:1032F000206B00F0E9FC2046BDE8104000F0E4BC83
:1033000010BD000010484FF47051420706D0C01D98
:103310000D4920F00700411AC1F570510B4A0023F6
:103320000144C2E900030839183A21F0070111608D
:103330004B600B600B1AC0E9001393604FF0004024
:103340005360506170470000241000208C00002062
:10335000144E154CA6F29C474FF08058DFF84C9065
:1033600012E000BF00F07CFCF068C568281D00F08A
:103370001CFCA068401EA0606068401E606000F0F9
:103380008FFC2846FFF7A3FF60680028EAD1386861
:103390000128F9D9C9F80080BFF34F8FBFF36F8FB1
:1033A000F2E700002C0800202000002004ED00E0DF
:1033B00070B51D46049C51B1C4F80020C4E90F014A
:1033C0000121204600F0D4FE84F84C5070BD2460EA
:1033D000F4E700002DE9F05F8846DDE90B9415461F
:1033E000834691009A460A9EA522206BFDF78AF833
:1033F0006FF00301206B01EB8501084420F0070703
:10340000780707D0502080F31188BFF34F8FBFF3A8
:103410006F8FFEE70025B8F1000F0FD05FF00000BE
:10342000221818F8001082F8341018F8001011B1A2
:10343000401C1028F4D384F8435001E084F8345041
:10344000382E00D33726E662C4E91365201D00F04C
:10345000E0FB04F1180000F0DCFB2461C6F1380049
:103460006462A061656584F85850524659463846F2
:1034700000F05AFA2060B9F1000F01D0C9F80040FD
:10348000BDE8F09F30B5114900E011460A6882425C
:10349000FBD34B685C18844203D1406818444860F1
:1034A000084643681C18944209D1084C183C24680B
:1034B000A24209D052681A4442600A681268026047
:1034C000814200D0086030BD0460F9E78C00002024
:1034D00070B5002441600B4D0061914206D8D11AAD
:1034E0008269914206D2011D286907E09A4203D2FF
:1034F000994201D3012403E0011DE86800F08CFB30
:10350000204670BD5C00002010B5044600F0A8FB0A
:10351000A06B28B15FF0000400F0C2FB204610BD94
:103520000124F9E730B589B03C4D6EE004980028DD
:1035300006DADDE90601059A90470498002864DB65
:10354000069C606910B1201D00F02FFB03A800F05D
:10355000D7F8024604980A2857D2DFE800F005059C
:10356000052D334A05052D3394F8280040F001005D
:1035700084F828000599A069059B01442046FFF7BF
:10358000A7FF68B3216A2046884794F828004007BF
:103590003BD5002000900598A169002342181946E8
:1035A000204601F0E9F9D8B9502080F31188BFF323
:1035B0004F8FBFF36F8FFEE714F8280F20F0010044
:1035C000207022E094F8280040F0010084F82800E0
:1035D0000598A06128B1811813462046FFF778FFAF
:1035E00013E0502080F31188BFF34F8FBFF36F8F2C
:1035F000FEE794F82800810703D4204600F064FB1E
:1036000003E020F0010084F82800002204A92868C3
:1036100000F002FF002889D109B030BD5C00002015
:103620002DE9FC410F46054600F09EFC01A800F084
:1036300067F80446019818B101F00CF9BDE8FC8167
:10364000254EAFB130690068D0B30027291B3A4638
:10365000306800F0BBFB01F0FDF80028EED11F49F7
:103660004FF080500860BFF34F8FBFF36F8FE5E7D7
:10367000A542EBD801F0EEF8F0682746C068C468B0
:10368000201D00F092FA94F82800410719D5A0698E
:103690002B4641193A462046FFF71AFFA8B10020F1
:1036A0000346014600902A46204601F065F960B9BC
:1036B000502080F31188BFF34F8FBFF36F8FFEE769
:1036C00007E020F0010084F82800216A204688479E
:1036D000B4E70127BAE700005C00002004ED00E039
:1036E0000648416B096829B1416BC968C9684968D6
:1036F000816270474FF0FF31FAE7000020000020A0
:1037000070B5054600F0C4FF064E0446B06884421A
:1037100003D200F009F8012000E0002028602046D4
:10372000B46070BD5C000020F8B5194D20E0C068A1
:10373000C4680668201D00F038FA216A20468847D0
:1037400094F82800400713D5A0693044B04206D948
:1037500024616060211DE86800F05EFA08E0002046
:103760000346014600903246204601F005F938B183
:10377000E86801680029DAD12969C5E90310F8BDB4
:10378000502080F31188BFF34F8FBFF36F8FFEE798
:103790005C00002008484068401C4FF0500080F357
:1037A000118804D0BFF34F8FBFF36F8FFEE7BFF3D5
:1037B0004F8FBFF36F8FFEE794000020074CE06847
:1037C000016841B1C0680021D0F80000FFF728FF70
:1037D000FFF7A8FEF3E701210020F7E75C000020D7
:1037E0002DE9F041044600F03BFA94F9455004F10C
:1037F000240609E0606A48B1304600F0F3FF08B1E2
:1038000000F034FB6D1E6DB2002DF3DC4FF0FF367F
:1038100084F8456000F044FA00F022FA94F944502C
:1038200004F1100709E0206948B1384600F0DAFFDA
:1038300008B100F01BFB6D1E6DB2002DF3DC84F8A7
:103840004460BDE8F04100F02BBA00002DE9F041E2
:103850000546002700F088FB324E306808B9FFF7B4
:1038600051FD706905424ED1C5B3083568070ED0C9
:1038700005F00700C0F108000544680707D0502094
:1038800080F31188BFF34F8FBFF36F8FFEE72DB327
:103890007068854237D82348183001460C6801E02B
:1038A00020460C466168A94202D221680029F7D15E
:1038B00031688C4227D0076821680160606808374A
:1038C000411B10290FD96019420708D0502080F3FE
:1038D0001188BFF34F8FBFF36F8FFEE713E0416096
:1038E0006560FFF7CFFD61687068401A7060B2686C
:1038F000904200D2B060706901430020C4E9000129
:10390000F068401CF06000F0A5FF780707D0502059
:1039100080F31188BFF34F8FBFF36F8FFEE73846F8
:10392000BDE8F0817400002010B5031F4FF08074D3
:103930001C601B1F21F001011960191F044B0B6053
:1039400014390A60091F6FF0020244380A6010BD82
:103950009537000870B52DED068BB0F90C10B0F955
:1039600000500A9C294400EE101AB0F90E10B0F96C
:103970000250F8EEC00A294400EE101A94ED021A23
:10398000584DB8EEC00A31EE000A10EE101AA942E6
:1039900006DA10EE101A544DA94201D284ED020A43
:1039A00094ED030A4FF4FA7530EE200A84ED030A11
:1039B000117911FB05F195786FF07C0615FB06F582
:1039C00001EB8501B0F90450294400EE101A4FF4C0
:1039D000FA75B8EEC00A84ED050A517811FB05F1BD
:1039E000D57815FB06F501EB8501B0F906502944A1
:1039F00000EE101AB8EEC00A84ED060A51799FED68
:103A00003B0A012907D1597929B9D4ED070A70EE8B
:103A1000800AC4ED070A9179012907D1997929B95A
:103A2000D4ED070A30EEC00A84ED070AB0F90800A9
:103A30009FED2F1A00EE100A94ED078AB8EEC00A27
:103A400018EE100AC0EE010A9FED2A0A60EE808A85
:103A500001F052FCB1EE000A9FED271A68EE000A51
:103A600041EC190B80EE810AF0EE000A20EE200AEC
:103A7000DFED220A20EE200A10EE100A01F03CFCD5
:103A800041EC100BFEF784FD9FED1DAB51EC100BCC
:103A900053EC1A2B01F03CFA53EC1A2B00F0DEFF2A
:103AA0009FED191B53EC112B00F0D8FF53EC192B91
:103AB00000F0D4FF9FED161B53EC112B01F028FAF8
:103AC00000F09AFF00EE100AFFF7DAF9207C00EE12
:103AD000900AF8EE600A40EE808AC4ED078ABDECD9
:103AE000068B70BD00002042000020C2000034425E
:103AF00000002544000096430000B443D00F494025
:103B000000000000000059400000000000C06240BA
:103B1000000000000000004070B5867A00240125F6
:103B2000049B012E0DD1C67A012E03D11C70867A1A
:103B3000012E06D1C67A032E10D1C97A02290DD1E1
:103B40001D70817A032909D1C17A012903D11C7121
:103B5000817A032902D1C17A022902D0817C01290C
:103B600000D11D71817A02290AD1C17A012903D1BC
:103B70001C74817A022903D1C17A032900D11D74F2
:103B8000117A01290DD0817A022902D1C07A022846
:103B900007D0D079012803D1187C40F02000187498
:103BA00070BD187C40F01000F9E7D0E901320169DE
:103BB0009A60D0E901235A604A68824201D1826842
:103BC0004A60002202610868401E08600868704769
:103BD000034B036003F15C000860802010607047B5
:103BE0006C090020044B036003F15C0008604FF493
:103BF0008070106070470000C80B002000F10801C1
:103C00004FF0FF32C0E90112C16001610021016083
:103C1000704700210161704730B50B685A1C02D013
:103C200000F1080202E0026904E0224654682568B7
:103C30009D42FAD953684B6099608A60516008616F
:103C40000168491C016030BD42684A6093688B601E
:103C500093685960916008610168491C0160704770
:103C6000502080F31188BFF34F8FBFF36F8F0A4945
:103C70004868401C486001280CD10848006810F0D2
:103C8000FF0F07D0502080F31188BFF34F8FBFF391
:103C90006F8FFEE7704700009400002004ED00E005
:103CA0000849486828B1401E486001D180F3118856
:103CB0007047502080F31188BFF34F8FBFF36F8F91
:103CC000FEE700009400002070B500282AD0164DB1
:103CD000A0F1080460686969084207D1502080F3A8
:103CE0001188BFF34F8FBFF36F8FFEE722683AB1A1
:103CF000502080F31188BFF34F8FBFF36F8FFEE723
:103D00008843606000F030F9606869680844686062
:103D10002046FFF7B7FB2869401C2861BDE87040CA
:103D200000F098BD70BD0000740000204FF0E0204E
:103D300000210161816105494FF47A720968B1FB84
:103D4000F2F1491E41610721016170471C0000200A
:103D500010B5FCF7C5FA114910280ED300F1E02088
:103D600090F8F0030A78904207D2502080F311882F
:103D7000BFF34F8FBFF36F8FFEE709480068896874
:103D800000F4E060884207D9502080F31188BFF327
:103D90004F8FBFF36F8FFEE710BD0000940000202F
:103DA0000CED00E010B5084B002200BF53F8324084
:103DB0001CB1521C082AF9D310BD43F8321003EB92
:103DC000C201486010BD00005003002070B51546C8
:103DD0000E460446FFF744FF94F944100020491CA6
:103DE00001D184F8440094F94510491C01D184F8AC
:103DF0004500FFF755FFA06B28B92A46314604F16C
:103E0000240000F051F82046BDE87040FFF7E8BC00
:103E100010B5020014D00F48006B38B1502080F369
:103E20001188BFF34F8FBFF36F8FFEE700F09CF850
:103E300000211046FFF740F900F00CFD002807D1E3
:103E400005494FF080500860BFF34F8FBFF36F8F6D
:103E500010BD00002000002004ED00E002490A6AC5
:103E60000260C968416070472000002001490120BC
:103E7000C86170472000002010B50C4650B10949B8
:103E800009681831FFF7C8FE2046BDE8104001213F
:103E9000FFF712B9502080F31188BFF34F8FBFF3A3
:103EA0006F8FFEE72000002070B514460D4668B104
:103EB0000A4909681831FFF7C7FE0CB14FF0FF350A
:103EC00021462846BDE87040FFF7F6B8502080F341
:103ED0001188BFF34F8FBFF36F8FFEE720000020E4
:103EE00030B587B00024039405AA04A903A804945C
:103EF000FFF76EFEDDE903010094CDE90110002318
:103F000015A11748059A00F08AFB164D0028E862B3
:103F10001FD000F001FD012809D0401C19D150200C
:103F200080F31188BFF34F8FBFF36F8FFEE75020F0
:103F300080F31188BFF34F8FBFF36F8F4FF0FF30C7
:103F4000A86201206861EC6007B0BDE8304000F075
:103F50004BB807B030BD000049444C45000000009C
:103F600051330008200000200248016B491C016306
:103F70007047000020000020164810B5016B11B1F9
:103F80000121C16110BD0021C1610169124A01E036
:103F9000B9B1491E01EB810352F82330002BF7D051
:103FA00001EB810302EB830202F1080453685B68B2
:103FB0005360A34201D15B685360DA68026001611B
:103FC00010BD502080F31188BFF34F8FBFF36F8F68
:103FD000FEE70000200000209003002010B5012023
:103FE000FEF7E9FFFBE700001CB537480168374AD8
:103FF000914207D1502080F31188BFF34F8FBFF358
:104000006F8FFEE700683149491E884207D1502072
:1040100080F31188BFF34F8FBFF36F8FFEE72C49FA
:1040200008780190FF20087008788DF800009DF84E
:1040300000009DF8002000F0F000904207D05020D2
:1040400080F31188BFF34F8FBFF36F8FFEE79DF8AA
:104050000000204C00F0500020700720A06005E018
:104060009DF8002052008DF80020401E9DF8002091
:104070001206F5D4A060032807D0502080F31188E1
:10408000BFF34F8FBFF36F8FFEE74FF44070A06018
:10409000019808700C482030016841F470010160FB
:1040A000016841F070410160FFF740FE0020606050
:1040B000FCF7DEF80848016841F040410160FCF778
:1040C000C3F800201CBD000000ED00E071C20F41EC
:1040D00000E400E09400002034EF00E010B5502030
:1040E00080F31188BFF34F8FBFF36F8F00F0D6FAC4
:1040F00018B104494FF080500860002080F3118807
:1041000010BD000004ED00E038B5049D18B153B1B6
:10411000CAB181B120E0502080F31188BFF34F8FE6
:10412000BFF36F8FFEE7502080F31188BFF34F8FEE
:10413000BFF36F8FFEE7502080F31188BFF34F8FDE
:10414000BFF36F8FFEE739B1502080F31188BFF3C2
:104150004F8FBFF36F8FFEE750241C46012384F876
:1041600046302B460094FFF723F9204638BD000067
:1041700070B50D46040025D0FFF772FDD4E90F207D
:10418000216802FB0011A1600021A1632168616028
:104190000A46D4E90F01401E00FB0121E1602146DF
:1041A0004FF0FF3001F8440F487004F110008DB15A
:1041B000FFF724FD04F12400FFF720FDFFF770FD59
:1041C000012070BD502080F31188BFF34F8FBFF3E3
:1041D0006F8FFEE721690029F0D000F003FB002873
:1041E000ECD004494FF080500860BFF34F8FBFF30D
:1041F0006F8FE3E704ED00E02DE9FF4782B01D4635
:104200008A464FF00008040003D0BAF1000F08D02E
:1042100011E0502080F31188BFF34F8FBFF36F8FF1
:10422000FEE7206C38B1502080F31188BFF34F8F28
:10423000BFF36F8FFEE7022D0AD1E06B012807D094
:10424000502080F31188BFF34F8FBFF36F8FFEE7CD
:1042500000F010FA3F4F4FF000094FF0805648B978
:10426000049838B1502080F31188BFF34F8FBFF30B
:104270006F8FFEE7FFF7F4FCA06BE16B884207D37A
:10428000022D05D00498D0B1B8F1000F1AD01EE06D
:104290002A4651462046FEF7E4FF616A19B104F14F
:1042A000240000F09FFA20B13E60BFF34F8FBFF3B0
:1042B0006F8FFFF7F5FC012006B0BDE8F087FFF730
:1042C000EFFC22E06846FFF7C9FD4FF00108FFF759
:1042D000E7FCFFF749FEFFF7C3FC94F94400401CDC
:1042E00001D184F8449094F94500401C01D184F830
:1042F0004590FFF7D5FC04A9684600F029F930B1D4
:104300002046FFF76DFA00F0A5FA0020D4E7FFF78A
:10431000A7FCA06BE16B884213D1FFF7C1FC04F14D
:1043200010000499FFF7A8FD2046FFF759FA00F0A6
:1043300091FA00289ED13E60BFF34F8FBFF36F8F7D
:1043400098E7FFF7ADFC2046FFF74AFA00F082FA43
:1043500090E7000004ED00E02DE9F0471F4690468D
:104360008946040003D0B9F1000F08D011E05020B5
:1043700080F31188BFF34F8FBFF36F8FFEE7206C80
:1043800038B1502080F31188BFF34F8FBFF36F8F88
:10439000FEE7022F0AD1E06B012807D0502080F3FE
:1043A0001188BFF34F8FBFF36F8FFEE7FFF7D0FC8D
:1043B0005020EFF3118680F31188BFF34F8FBFF3C6
:1043C0006F8FA06BE16B884206D3022F04D00020D0
:1043D00086F31188BDE8F08794F94550A06B3A4602
:1043E00049462046FEF73DFF681C04D06D1C84F84A
:1043F00045500120ECE7606A0028FAD004F124005F
:1044000000F0F0F90028F4D0B8F1000FF1D001214C
:10441000C8F80010EDE700002DE9F747002683B04B
:104420008A46040003D0BAF1000F08D011E05020F2
:1044300080F31188BFF34F8FBFF36F8FFEE7206CBF
:1044400038B1502080F31188BFF34F8FBFF36F8FC7
:10445000FEE700F00FF9DFF8F4804FF000094FF0AD
:10446000805748B9059838B1502080F31188BFF3C0
:104470004F8FBFF36F8FFEE7FFF7F2FBA56BC5B160
:1044800051462046FEF7DAFE6D1EA563206950B145
:1044900004F1100000F0A6F928B1C8F80070BFF3CD
:1044A0004F8FBFF36F8FFFF7FBFB012006B0BDE816
:1044B000F087059808B11EB106E0FFF7F1FB27E091
:1044C0006846FFF7CBFC0126FFF7EAFBFFF74CFD40
:1044D000FFF7C6FB94F94400401C01D184F84490D6
:1044E00094F94500401C01D184F84590FFF7D8FBB2
:1044F00005A9684600F02CF8002820460AD0FFF7EE
:104500006FF900F0A7F92046FEF7FEFF0028B3D0B0
:104510000020CBE7FEF7F8FF90B104F124000599E5
:10452000FFF7AAFC2046FFF75BF900F093F900289B
:10453000A2D1C8F80070BFF34F8FBFF36F8F9BE716
:104540002046FFF74DF900F085F995E704ED00E00E
:104550002DE9F0410C46050011D0C4B1FFF780FBF6
:10456000174BDA686E682068911B471C17D02F68BC
:104570001B6A9F4219D0964217D8012410E05020A0
:1045800080F31188BFF34F8FBFF36F8FFEE750208A
:1045900080F31188BFF34F8FBFF36F8FFEE70024C6
:1045A000FFF77EFB2046BDE8F081884205D9401A1E
:1045B00020602846FFF752FCF1E700202060DCE78E
:1045C000200000202DE9FF5F8346DDE90E87994634
:1045D00016468A469000FFF739F905001CD05C208A
:1045E000FFF734F9040014D00020256384F8590043
:1045F000CDE90240CDE900874B4632465146584648
:10460000FEF7E8FE2046FEF785FD012004B0BDE878
:10461000F09F2846FFF758FB4FF0FF30F6E7F0B564
:1046200085B0DDE90B640A9DA6B1DCB15C2700977B
:104630002663022684F85960002604AFCDE90246BD
:10464000CDE90057FEF7C6FE2046FEF763FD04984D
:1046500005B0F0BD502080F31188BFF34F8FBFF33A
:104660006F8FFEE7502080F31188BFF34F8FBFF3A9
:104670006F8FFEE70548416919B1006B18B1002042
:104680007047012070470220704700002000002082
:104690000148C06870470000200000202DE9F0416B
:1046A0002E4C0027206B28B1A069401CA061384621
:1046B000BDE8F081E668761CE66013D1606B0068A7
:1046C00038B1502080F31188BFF34F8FBFF36F8F45
:1046D000FEE7606BA16B6163A063206A401C2062EF
:1046E000FEF7FEFFA06ADFF87880864209D3606B90
:1046F0000068A0B1606BC068C5686868864211D266
:10470000A0622068C06A00EB800158F821000128EF
:1047100000D90127E0690028C9D00127C7E74FF079
:10472000FF30EDE7281DFFF740FAA86A18B105F140
:104730001800FFF73AFAE86A2169884200D9206137
:1047400000EB800108EB8100291DFFF77DFAE86A84
:104750002168C96A8842CAD30127C8E7200000201F
:104760009003002070B504004FF0000133D01B4DC2
:104770002868844207D0502080F31188BFF34F8F00
:10478000BFF36F8FFEE7206D38B1401E2065E36CEC
:10479000E26A9A421FD040B11DE0502080F3118898
:1047A000BFF34F8FBFF36F8FFEE7201DFFF7FDF9BB
:1047B000E06CE062C0F13800A061E06A29698842DB
:1047C00000D92861064900EB800001EB8000211D23
:1047D000FFF73AFA0121084670BD000020000020D2
:1047E0009003002070B5C068C46854B104F118008B
:1047F0000646FFF7DAF9144D286B50B131461348DD
:1048000015E0502080F31188BFF34F8FBFF36F8FF7
:10481000FEE7201DFFF7C9F9E06A2969884200D93F
:1048200028610B4900EB800001EB8000211DFFF7A0
:104830000BFAE06A2968C96A884202D90120E86156
:1048400070BD002070BD000020000020180800206E
:10485000900300202DE9F0472C4D00242746286BBB
:1048600038B1FFF7FDF9286B401E2863286B40B173
:1048700046E0502080F31188BFF34F8FBFF36F8F56
:10488000FEE7A968224E0120D1B3A6F591698046C2
:104890003068E0B1F068C46804F11800FFF785F9EA
:1048A000201DFFF782F9E06A2969884200D9286152
:1048B00000EB800109EB8100211DFFF7C5F9E06ADB
:1048C0002968C96A8842E3D3C5F81C80E0E70CB1C7
:1048D000FEF706FFAC694CB14FEA0806FFF7DEFEB3
:1048E00000B1EE61641EF9D10020A861E86938B119
:1048F0000849012738070860BFF34F8FBFF36F8F58
:10490000FFF7CEF93846BDE8F08700002000002010
:104910001808002004ED00E010B586B0FEF762FC38
:10492000114C2068B8B100200390049005AA04A996
:1049300003A8FFF757F9DDE9032102208DE80700FE
:1049400000230AA10B48059AFFF769FE606010B1C9
:1049500006B0012010BD502080F31188BFF34F8FA7
:10496000BFF36F8FFEE700005C000020546D7220E3
:1049700053766300BD3700082DE9FF411E461346FC
:1049800002000A9D4FF0000016D0144C2768002F3B
:104990000FD0CDE900130292062917DAFFF76AFE5D
:1049A00002284FF000030FD0002269462068FFF76D
:1049B00023FC04B0BDE8F081502080F31188BFF3E0
:1049C0004F8FBFF36F8FFEE72A46EEE70023324694
:1049D00069463846FFF7C0FCEBE700005C000020AA
:1049E00081F00041704780F00040704721F00041A5
:1049F000704720F00040704721F00042A2F1605261
:104A0000B2F5801F01F0004328BFD2F17F6C0BD9B3
:104A10005FEA001C43EAC20242EB507018BF7047C5
:104A200028BF20F001007047B2F5801FBCBF1846B8
:104A300070474FEA410C1CF5001F02D2084600F0F7
:104A4000D1BC70B500F00EFB00000089FFF7F6BF87
:104A50004FF00040A0F580007047000010B591EACB
:104A6000030F48BF83F0004300F16483841A71EBA5
:104A7000030C05D2121943EB0C03001B61EB0C0174
:104A8000DFF824E14FEA1154A4EB135C1EEA430F54
:104A900018BF9EEA445F73D023EA0E03DCF1200EB8
:104AA00021EA045143F4801332D322FA0CFE10EBB6
:104AB0000E0023FA0CFE41EB0E01CCF1200E03FA9E
:104AC0000EFE10EB0E0051F10001B1F5801FCCF18C
:104AD000200E32D201EB045112FA0EF2BDE8104062
:104AE00058BF7047401C38BF5FEA420218BF70478A
:104AF000002814BF20F0010041F100014FEA4103FA
:104B000013F5001F38BF7047A1F1C04100F0F8BA9B
:104B1000012A43EB0302ACF1200CDCF11F0E32BF83
:104B20004FF0000E23FA0CF310EB030041EB04519D
:104B3000B4EB115FD0D0A1EB045101F5801149080D
:104B40005FEA300001EB04510ED350F1000038BF92
:104B500012FA0EFE08D1BDE81040C9E7401C38BF6C
:104B60005FEA4202CAD1C3E7BDE810404FEA410301
:104B700013F5001F38BF7047A1F1C04100F0C0BA63
:104B80009EEA445F08D011EA5E0FBDE8104004BF02
:104B900001F0004100207047BDE8104070B500F002
:104BA00061FA00BF64FBBE3E0000E0FF2DE9C0419A
:104BB00030B4DFF8A0C23CEA111418BF3CEA131469
:104BC00000F0EC8081EA03051CEA111444EAD57474
:104BD00018BF1CEA131500F0C780A4EB05044FF0C2
:104BE000004545EAC12145EAC32341EA505143EA61
:104BF000525304F17F74994204F500344FEAC02007
:104C00004FEAC22208BF904200F09C804FEA136531
:104C10000FF24016765D4FEA134506FB05F7C7F124
:104C2000807706FB07F74FEAD737A7FB0368764282
:104C3000C8F58038A7FB06CE38BFA8F1010807FBEE
:104C400008E64FF0000EA6FB028CE6FB03CEDCF17B
:104C5000000CCEF1004E38BFAEF1010EA6FB0C5891
:104C60004FF000074FF00005E6FB0E87A1FB08C6DA
:104C7000A0FB07CE16EB0E0645F10005E1FB07652C
:104C800015F1E04E7EBFA4F580345FEA46066D4123
:104C900016F1800745F100054FEA17274FEA06662F
:104CA00047EA0567A6F1DE46B6F1805F4FEA1525B3
:104CB0001FD9384624F0010C05EBC471BCF1FE6F1E
:104CC00001EB0C1102D8F0BCBDE8008124425CBFAE
:104CD00001F5801E9EEAC47F02D4F0BCBDE80081CD
:104CE000244238D4F0BCA1F1C041BDE8004100F03D
:104CF00007BA4FEAD22242EA43524FEAD323A7FB34
:104D000002864FEAD02040EA415007FB03661EEAC4
:104D10000E0F4FEAD12105FB026658BFA6EB0056E5
:104D2000B6EB00564FEA520E4EEAC37E18EB0E0E5B
:104D300056EB530EBDD518EB02085E417F1C55F1B2
:104D40000005B6E74FF480154FF000074FF000065E
:104D50004FF00008ADE7F0BC4FF0000001F1C0419A
:104D600001F00041BDE8008111EA0C1F0CEA1315A7
:104D700000D00CE013EA0C1F00F025804FF000007B
:104D8000F0BC81EA030101F00041BDE80081F0BC04
:104D9000BDE8004181EA030100F0B2B9F0BCBDE812
:104DA000004170B500F05EF9097EFC3E00F007B8E6
:104DB00081EA03014FF0000001F00041704781EAF1
:104DC000030100F09DB9F0BCBDE800414FF00000C8
:104DD00021497047FFFDFBF9F7F5F4F2F0EEEDEB3A
:104DE000E9E8E6E4E3E1E0DEDDDBDAD8D7D5D4D3E9
:104DF000D1D0CFCDCCCBCAC8C7C6C5C4C2C1C0BF35
:104E0000BEBDBCBBBAB9B8B7B6B5B4B3B2B1B0AF3A
:104E1000AEADACABAAA9A8A8A7A6A5A4A3A3A2A11E
:104E2000A09F9F9E9D9C9C9B9A99999897979695D9
:104E300095949393929191908F8F8E8E8D8C8C8B75
:104E40008B8A8989888887878685858484838382FD
:104E5000828181800000FF070000F87F4FEA410354
:104E60004FEA5353A3F58063D3F11E03C8BFD3F1B8
:104E7000210C0CDD4FF0004242EAC12242EA5052BE
:104E800032FA03FC8CEAE17CACEBE1707047102B4A
:104E9000C4BF0020704703F5787CBCF1FF3F04D00D
:104EA0006FF0004282EA2100704770B500F0DAF836
:104EB0004992248000207047F2E710F0004248BF7A
:104EC0004042B0FA80F310FA03F10AD0C3F11D0397
:104ED00003F580634FEA415002EB035202EBD1210C
:104EE00070474FF000007047B0FA80F310FA03F1FA
:104EF0000AD0C3F11D0303F580634FEA41504FEA26
:104F0000035202EBD12170474FF0000070470000C0
:104F1000DFF848C170B51CEA111E1EBF1CEA13154C
:104F20009EEA0C0F95EA0C0F00F06F8081EA0304F3
:104F300023EA4C134EEAD47E21EA4C1141F480114D
:104F400043F48013AE44A1FB024CA0FB0365AEF119
:104F50007F7E361955EB0C05A1FB034C4CF1000389
:104F6000A0FB021C16EB0C06654153F1000309423D
:104F700018BF46F0010613F4007F0BD14FEA03314E
:104F80004FEA0530340341EA155140EA16506FF0FC
:104F900003020AE04FEAC3214FEAC520F40241EAC6
:104FA000555140EA56506FF0020202EB2E4201EBDF
:104FB000025585EACE710AD05FEA440C18BF24F08E
:104FC000004450F1000041F1000120EAD47040F2A9
:104FD000FE7C624500D270BDA84214BF4FF08044F1
:104FE0004FF04044002E08BF0024BEF1806FA8BFE0
:104FF000A1F1C041BDE8704080F282804FF0000016
:1050000001F1C04101F0004170479EEA0C0F0CEA2B
:10501000131518BF95EA0C0F06D04FF0000081EA77
:10502000030E0EF0004170BD00F01CF88900013E37
:1050300000F007B800F009B84FEA430C5FEA5C5C87
:1050400008D081EA030100F05BB84FEA410C5FEA47
:105050005C5CF6D14FF00000014970470000FF078B
:105060000000F87F0EF1020E2EF0030E5EF8046BC6
:10507000364205D4012A43EB030515F5001F12D86B
:10508000012841EB010C1CF5001F0CD80ED14FEA92
:10509000D17C15F5001F0CEB4C0C0CF1020C08BF79
:1050A0004CEBD37C04E04FF0080C01E04FEAD37CDA
:1050B0000CEB4C0526FA05F606F00706B6F1040CD3
:1050C00006D20EEB860CBDE870404CF0010C604738
:1050D000DFE80CF0090B02024FF000414FF0000036
:1050E000A1F5002170BD19461046012851EB0104BD
:1050F00018BFD4F5001484BF002001F0004170BD3A
:105100000808A0F500114FEA3101704791EA030F3A
:1051100010B581F000413FF5A9AC83F0004300F0E9
:1051200009B8000010B591EA030F48BF83F00043AF
:105130003FF59CAC841A71EB030C07D212198CF06A
:10514000004C43EB0C03001B61EB0C01DFF8A4E106
:105150004FEA1154A4EB135C1EEA430F18BF9EEAFA
:10516000445F00F0B08023EA6E03524221EA04510A
:10517000C3EB6E0338BF5B1EDCF1200E25D322FA91
:105180000CFE10EB0E0043FA0CFE41EB0E01CCF1CD
:10519000200E03FA0EFE10EB0E0051F10001CCF1CF
:1051A000200E29D412FA0EF201EB0451BDE8104092
:1051B00058BF7047401C1CBFB2F1004F7047002819
:1051C0000CBF491C20F00100704712EB020E43EBAC
:1051D000030218BF4FF0010E4EEA4202ACF1200C60
:1051E000DCF11E0E54D943FA0CFE10EB0E0051F107
:1051F000FF31CCF11E0ED5D50EF1010E12FA0EFEC6
:10520000404141EB010101EB445C5FEA5C5C10D979
:1052100010EBDE7001EB045138BFBEF1004FBDE86A
:10522000104018BF704700280CBF491C20F0010037
:10523000704730D24FEAD42C11F5001124F40064E9
:105240001BD0B1FA81F20B3AA41AA41ED2F12003AA
:10525000914030FA03F31943904001EBCC71002CDC
:1052600001EB0451BDE81040A8BF704701F1C041F7
:105270004FF0000001F000417047B0FA80F310FADF
:1052800003F100D110BDE41A173C4805C90AE4E750
:1052900001EB045110BD491001EB0451BDE8104071
:1052A0004FEA300002E04FF0000170474A0008BFAB
:1052B0000042F8D0B2F5001F28BF704701F000414E
:1052C0004FF0000070479EEA445F07D011EA5E0F7E
:1052D000BDE8104004BF002100207047BDE8104029
:1052E00070B5FFF7BFFE00BF40DFF63E83F0004120
:1052F000104670470000E0FF43004FEAD30C4FEA2E
:105300003C0C43401FBF40070CF1605113F0FE4FAF
:1053100070471CF0006F03D100200CF00041704773
:105320000CF0004343EA507010B540EACC0000F0A6
:105330000EF800BF000000924FEA0001FFF7E0BE48
:105340004FF000414FF00000A1F5002170470EF131
:10535000020E2EF0030E5EF8044B244204D44FEAF2
:105360004102B2F17F4F11D84FEA4003B3F17F4FB2
:105370000CD80ED14FEAD07CB2F17F4F0CEB4C0C25
:105380000CF1020C08BF4CEBD17C04E04FF0080C90
:1053900001E04FEAD17C0CEB4C0324FA03F404F057
:1053A0000704B4F1040C06D20EEB840CBDE81040E7
:1053B0004CF0010C6047DFE80CF0070802024FF0E8
:1053C0000040A0F5800010BD0846420018BFD2F191
:1053D000807288BF00F0004010BD4FF04070E1EED9
:1053E000100A7047FF2141EAD050C0057047000005
:1053F000B855000800000000000000000000000098
:105400000000000000020000180000000000000082
:1054100000000000A055000800000000000000008F
:105420000000000000000000000200001800000062
:105430000000000000000000AC5500080000000063
:10544000000000000000000000000000000200005A
:105450001800000000000000000000000006101608
:105460000006101600000000000000000102030406
:105470000607080900000000010203040000000004
:105480004C5555555555A53F7751C1166CC156BF62
:105490009015CB19A001FA3EAD529C804F7E92BE72
:1054A000C4B1B4BD9EEE213ED43888BEE9FAA8BD91
:1054B00000004054FB21F93F3163621A61B4D03DD2
:1054C0000000601A61B4D03D7370032E8A19A33BAB
:1054D0000000002E8A19A33BC14920259A837B39FD
:1054E00000000000000000006E83F9A22915444E60
:1054F000D15727FCC0DD34F5999562DB4190433CE0
:10550000AB6351FE61C5BBDE3A6E24B7E0D24D42BB
:10551000EA2E49061C92D1091CEB1DFE3EA729B1BB
:10552000F53582E88444BB2E26709CE9417E5FB449
:1055300039D69139F43953838B5F849C3B28F9BD6C
:10554000FF97F81F0F9805DE8B112FEF1F6D0A5A7A
:10555000CF7E366DB709CB27663F464F2DEA5F9E5B
:10556000C7BA27757BF1E5EBF739073DEA92528A16
:10557000B15FFB6B085D8D1FA6F810111111813F03
:10558000D561C119A0012ABF7DFEB157E31DC73EF9
:10559000EB9C2B8AE6E55ABE7CD5CF5A3AD9E53D3D
:1055A00067696D62616C7461736B0000776561702F
:1055B0006F6E7461736B0000696E666F7461736BFC
:1055C00000000000E455000800000020B4000000C6
:1055D000C401000898560008B4000020A45200003E
:1055E000E0010008000000000000000000000000D2
:1055F000000000000100000010000000000000009A
:105600000024F40000000000000000000000000082
:10561000000000000000000000000000000000008A
:10562000000000000000000000000000000000007A
:10563000000000000000000000000000000000006A
:10564000000000000000000000000000000000005A
:10565000000000000000000000000000000000004A
:10566000000000000000000000000000000000003A
:10567000000000000000000000000000AAAAAAAA82
:10568000000000000000000000000000000000001A
:08569000000000000000000012
:040000050800018965
:00000001FF
