:020000040800F2
:10000000185F00200D030008832300080921000861
:100010008123000865060008C929000800000000C7
:100020000000000000000000000000004D02000879
:100030001108000800000000A9020008D9250008E6
:1000400027030008270300082703000827030008E8
:1000500027030008270300082703000827030008D8
:1000600027030008270300082703000827030008C8
:10007000F106000827030008FD0600082703000812
:100080002703000827030008270300087506000857
:100090006906000827030008270300082703000853
:1000A0002703000827030008270300082703000888
:1000B0002703000827030008270300082703000878
:1000C0002703000827030008270300082703000868
:1000D00027030008BD29000827030008270300089C
:1000E0001508000827030008270300082703000855
:1000F0002703000827030008270300082703000838
:100100002703000827030008270300082703000827
:100110002703000827030008270300082703000817
:100120002703000827030008090700082703000821
:100130002703000827030008270300088D0600088E
:10014000810600082703000827030008270300088A
:1001500027030008270300082703000827030008D7
:1001600027030008270300082703000827030008C7
:1001700027030008270300082703000800000000E9
:1001800027030008270300082703000827030008A7
:100190002703000827030008270300082703000897
:1001A00000000000000000002703000800F002F833
:1001B00000F03CF80AA090E8000C82448344AAF1C5
:1001C0000107DA4501D100F031F8AFF2090EBAE8C3
:1001D0000F0013F0010F18BFFB1A43F0010318477B
:1001E000FC6500001C660000103A24BF78C878C186
:1001F000FAD8520724BF30C830C144BF04680C602D
:10020000704700000023002400250026103A28BF74
:1002100078C1FBD8520728BF30C148BF0B60704778
:100220001FB506F036F81FBD10B510BD00F0E5F99A
:100230001146FFF7F5FF03F00DFC00F003FA03B4DD
:10024000FFF7F2FF03BC00F007FA00002C4B19681F
:100250000868B0E8F04F80F30988BFF36F8F4FF064
:10026000000080F311887047000000000848006813
:10027000006880F308884FF0000080F3148862B6AD
:1002800061B6BFF34F8FBFF36F8F00DF00BF00BFBA
:1002900008ED00E0DFF80C00016841F47001016036
:1002A000704700BF88ED00E0EFF30980BFF36F8F68
:1002B000134B1A681EF0100F08BF20ED108A20E9BA
:1002C000F04F106009B44FF0500080F31188BFF375
:1002D0004F8FBFF36F8F04F06BFC4FF0000080F383
:1002E000118809BC19680868B0E8F04F1EF0100FBB
:1002F00008BFB0EC108A80F30988BFF36F8F704796
:1003000028000020EFF3058070470000094880476F
:1003100009480047FEE7FEE7FEE7FEE7FEE7FEE7E7
:10032000FEE7FEE7FEE7FEE704480549054A064BFF
:100330007047000091260008AD0100081859002000
:10034000185F0020185B0020185B002053EA020CA5
:1003500000F069802DE9F04B4FF00006002B1FBF25
:10036000B3FA83F503FA05F424FA05F65E4012BFEA
:100370001643B2FA82F502FA05F4C5F120051EBF54
:1003800022FA05FC44EA0C04203556EA044C4FEAF4
:10039000144418BF641C4FF000084FF0000990424D
:1003A00071EB030C39D3002919BFB1FA81F701FAB7
:1003B00007F6B0FA80F700FA07F6C7F120071EBF6C
:1003C00020FA07FC46EA0C062037B6FBF4FCA7EB44
:1003D0000507103F07F01F0BCBF120060CFA0BFBB3
:1003E0002CFA06F644BFB3460026202FA4BF5E4673
:1003F0004FF0000B5BEA060C08BF4FF0010B19EB46
:100400000B09ABFB027C48EB0608C01B06FB02CCC9
:100410000BFB03CC71EB0C01C1E70B4602464146D6
:100420004846BDE8F08B13B54FF000004FF00001D7
:10043000AFF30080BDE81C407047032A40F23080D3
:1004400010F0030C00F0158011F8013BBCF1020F15
:10045000624498BF11F801CB00F8013B38BF11F896
:10046000013BA2F1040298BF00F801CB38BF00F8AD
:10047000013B11F0030300F02580083AC0F008802A
:1004800051F8043B083A51F804CBA0E80810F5E70E
:10049000121D5CBF51F8043B40F8043BAFF30080F1
:1004A000D20724BF11F8013B11F801CB48BF11F866
:1004B000012B24BF00F8013B00F801CB48BF00F836
:1004C000012B704710B5203AC0F00B80B1E81850EE
:1004D000203AA0E81850B1E81850A0E81850BFF42E
:1004E000F5AF5FEA027C24BFB1E81850A0E81850CD
:1004F00044BF18C918C0BDE810405FEA827C24BF21
:1005000051F8043B40F8043B08BF7047D20728BFAE
:1005100031F8023B48BF11F8012B28BF20F8023BFD
:1005200048BF00F8012B704702F0FF0343EA0322A3
:1005300042EA024200F002B84FF000020429C0F083
:10054000128010F0030C00F01B80CCF1040CBCF105
:10055000020F18BF00F8012BA8BF20F8022BA1EB57
:100560000C0100F00DB85FEAC17C24BF00F8012B3C
:1005700000F8012B48BF00F8012B70474FF0000234
:1005800000B5134694469646203922BFA0E80C5089
:10059000A0E80C50B1F12001BFF4F7AF090728BF64
:1005A000A0E80C5048BF0CC05DF804EB890028BFE0
:1005B00040F8042B08BF704748BF20F8022B11F009
:1005C000804F18BF00F8012B704770477047704785
:1005D00010B500F00DF8006810BD10B5044600F02D
:1005E00007F8046010BD000000487047B8580020AC
:1005F00000487047B858002070477546FFF7F4FF71
:10060000AE4605006946534620F00700854618B0FF
:1006100020B5FFF789FEBDE820404FF000064FF0FF
:1006200000074FF000084FF0000B21F00701AC4627
:10063000ACE8C009ACE8C009ACE8C009ACE8C00946
:100640008D46704710B50446AFF300802046BDE8E4
:100650001040FFF7F4BD000001491820ABBEFEE7D3
:1006600026000200FEE70000014800F0CAB90000C1
:1006700004010020014800F0C4B90000040100207A
:10068000014800F0BEB900002C010020014800F034
:10069000B8B900002C0100200FB4134A08B56B460E
:1006A0000D99106000209060D060082010610888CB
:1006B000020A0E4802700A7842704A88120A827052
:1006C0008A78C2708A88120A02710A794271CA88CD
:1006D000120A82718979C1710246034903A800F0A8
:1006E000ADF801B05DF814FBD04B0020A90000204C
:1006F000014800F06BBC00003C020020014800F003
:1007000065BC00009C020020014800F05FBC0000B6
:10071000DC01002001681823CAB2103AB2FBF3F2E0
:10072000054B6FF30901032A9B5CC36500D9091DC2
:1007300081650846704700005C63000810B50146FB
:1007400000208B698A6A4FF0C07453B1B3F5005F23
:1007500015D072B1012A0CD0022A0AD0032A09D17D
:1007600004E01AB1012A06D0022A03D1C96AC901DC
:1007700000D5012010BDC96AA142FAD010BD002ADF
:10078000F7D0012AF2D0022AF3D0032AF3D010BD09
:1007900070B50468049D666946F0400666610468A9
:1007A000E66846F01006E660846B2468266826F04A
:1007B000010626600C682468E407F5D104680E6819
:1007C000241DB4600C68E2600A6813610A68556011
:1007D00009680A6842F480220A60806B0068016838
:1007E00041F00101016070BD30B50468256825F451
:1007F00080252560046863608368402B036803D00C
:1008000099600068C26030BD9A600068C16030BD08
:100810007047000010B54FF4805000F049FDBDE86E
:100820001040024A0249034804F0D8BFFC000020EF
:100830004C4C00205C4F002072B6FEE7F0B590F8FB
:1008400020500468A468012D05D0022D03D0416A10
:1008500041F480215DE014F0406F01D1E50055D5F1
:10086000C4F30164022C03D9416A41F4000150E051
:100870000125A5401D608D684FF4C0739DB1CE6801
:1008800035434E6845EAC605066803EB0417F55183
:100890004FF4C275076805EB04150E697E51097D9A
:1008A000012905D009E00E88CD6845EA4655EBE7F9
:1008B00001684E5946F480764E511179D5795679B2
:1008C00041EA056195792D0445EA062529434FF44F
:1008D000C676056806EB0416A9511178D57841EA69
:1008E0000561957852782D0445EA022211434FF4B0
:1008F000C475026805EB04155151006803EB04113F
:10090000425842F0010242500020F0BD416A41F4D9
:10091000001141620120F0BD704730B590F82040D1
:10092000012C05D0022C03D0416A41F480215DE006
:100930000468002955D02469A40754D04FF4D87412
:10094000056804EB01142D5915F004059560056840
:100950002D594ED0ED08556005682C5904F002045D
:10096000D4604FF4DA74056804EB01142D5905F0D6
:100970000F05156105682D59C5F3072595610568B3
:100980002C59240C54614FF4DC72046802EB011200
:10099000A4581C700468A458240A5C700468A45805
:1009A000240C9C700468A258120EDA704FF4DE72A8
:1009B000046802EB0112A4581C710468A458240AAC
:1009C0005C710468A458240C9C710468A258120E2F
:1009D000DA71006881B1016941F0200101610020F4
:1009E00030BDE468A8E7416A41F40011416201208A
:1009F00030BD6D0D1560AFE7C16841F02001C160E9
:100A0000EDE72DE9F05F0546006800244669D0F85F
:100A100004908768D0F80CB0D0F810A0D0F81880F7
:100A2000F10748D0F90714D001218160B80703D538
:100A3000284600F069FA0CE0780702D54FF400640C
:100A400007E0380702D54FF4805402E0284600F052
:100A50005AFAF80516D529684FF480708860B805F1
:100A600003D5284600F052FA0CE0780502D544F48C
:100A7000005407E0380502D544F4804402E02846DB
:100A800000F043FAF80316D529684FF480308860E7
:100A9000B80303D5284600F03BFA0CE0780302D5F2
:100AA00044F4004407E0380302D544F4803402E003
:100AB000284600F02CFA300707D55FEACB6004D552
:100AC0002968102044F40074C86070074FF00807CC
:100AD00007D55FEA0B7004D52868C760284600F088
:100AE000A9F9B00706D52868C068800702D0284653
:100AF00000F0A2F9700607D55FEACA6004D529683C
:100B0000102044F480640861B00607D55FEA0A70DB
:100B100004D528680761284600F0F2F9F00606D5EA
:100B200028680069800702D0284600F0EAF9B0037F
:100B300008D55FEAC96005D52968102048602846B5
:100B400000F0E0F9F00307D55FEA097004D52868E2
:100B50004760284600F0DDF9300446D55FEA497069
:100B600040D5F00504D55FEAC87001D044F0010417
:100B7000B00504D55FEA887001D544F00204700521
:100B800004D55FEA487001D544F00404300529D546
:100B900018F0700F26D008F07000402815D006DC41
:100BA000102809D020280AD0302816D10AE0502871
:100BB0000ED0602811D10EE044F008040DE044F09E
:100BC00010040AE044F0200407E044F0400404E08C
:100BD00044F0800401E044F480742868816921F0C5
:100BE00070018161296804204860002C05D0686A82
:100BF000204368622846FFF78FFEBDE8F09F70B57E
:100C0000040003D094F8200010B104E0012070BD6E
:100C1000204600F081F82068016841F00101016080
:100C200000F072FC0546052604E000F06DFC401B58
:100C30000A2811D820684068C007F6D020680168EB
:100C400021F00201016000F05FFC05460BE000F0BE
:100C50005BFC401B0A2806D9606A40F400306062E1
:100C600084F82060D2E7206840688007EFD4207EB7
:100C70000128206801683DD021F080010160607E7C
:100C800001282068016838D021F040010160A07E71
:100C900001282068016833D021F020010160E07E46
:100CA0000128206801682ED041F010010160207FEA
:100CB00001282068016829D021F008010160607FC7
:100CC00001282068016824D021F004010160D4E9E2
:100CD00002010843D4E90412114308436168491E24
:100CE00008432168C86100206062012084F8200068
:100CF000002070BD41F08001C0E741F04001C5E730
:100D000041F02001CAE721F01001CFE741F00801CE
:100D1000D4E741F00401D9E7F0B587B004461421C7
:100D20006846FFF72BFC3E4B3E48DFF8F0E01968C1
:100D3000D4F800C03B4A03250226092710300024BE
:100D4000491CF4452AD11960012907D1016841F0F5
:100D500000710160006800F000700590106840F0BC
:100D6000080010601068CDE9005600F00800CDE9D9
:100D7000047069462C48CDE9024500F0A5FA00222E
:100D80000521132000F032FC132000F021FC00228A
:100D90000521142000F02AFC14203BE0DFF88CE051
:100DA000F44539D1D0F800C04CF0806CC0F800C0D8
:100DB000D0F800C001290CF0806CCDF814C0196087
:100DC00007D1016841F000710160006800F0007017
:100DD0000590106840F002001060106802AB00F04F
:100DE000020005904FF44050CDE9000683E8B000C2
:100DF00069460F4800F068FA002205213F2000F004
:100E0000F5FB3F2000F0E4FB00220521402000F02C
:100E1000EDFB402000F0DCFB07B0F0BD00640040BB
:100E20001400002030380240000C024000680040EE
:100E3000000402407047000010B58AB004466B46BB
:100E400002AA0021FFF769FD2649206888421DD1CA
:100E50000298A0F58070233805D0E2280DD0B0F5B7
:100E6000FF7F0ED104E069461F4802F0BCFB08E09A
:100E700069461D4802F09CFB03E069461B4802F0EE
:100E8000ABFA1B49012008700AB010BD194988420D
:100E9000FAD1029840F20322A0F20321904219D025
:100EA0000BDCA0F50070013810D00128ECD11248FD
:100EB000694600BF02F090FAE6E701290ED00E293C
:100EC000E2D169460D4802F0CAFADDE70A486946F0
:100ED0006C38EFE7084869466C30EBE7064869462E
:100EE000D830E7E7006400404C4C00205C4F002005
:100EF000A800002000680040EC4C00206C58002046
:100F00007047704770477047704770477047704729
:100F1000704770472DE9F0410446876D00F0F4FA00
:100F2000064694F835000025022806D0802060652A
:100F300084F834500120BDE8F0812068016821F078
:100F4000160101602068416921F080014161206C37
:100F500008B9A06C20B12068016821F00801016087
:100F60002068016821F0010101600CE000F0CCFA7A
:100F7000801B052807D920206065032084F83500F0
:100F800084F83450D7E720680068C007EED194F8A1
:100F90005C103F208840B860012084F8350084F858
:100FA00034500020C7E790F83510022903D0802183
:100FB000416501207047052180F8351000680168FF
:100FC00021F0010101600020704700002DE9F84385
:100FD00004464FF00009CDF8009063484FF41651D5
:100FE000A56D0068B0FBF1F72E6894F85C1008203E
:100FF00000FA01F131420FD021680A6852070BD57F
:101000000A6822F004020A6094F85C108840A86024
:10101000606D40F00100606594F85C104FF00108CD
:1010200008FA01F0304208D021684969090604D560
:10103000A860606D40F00200606594F85C100420C8
:101040008840304208D021680968890704D5A86023
:10105000606D40F00400606594F85C1010208840DA
:10106000304218D021680968090714D5A8602068A3
:101070000168490304D50068000308D5A16C07E0A6
:101080000168C90503D4016821F008010160216CE1
:1010900009B12046884794F85C10202088403042EF
:1010A00031D021680968C9062DD5A86094F83500AB
:1010B00005282068016806D0490347D50068000369
:1010C0001DD4616C1CE021F01601016020684169AB
:1010D00021F080014161206C08B9A06C20B120682A
:1010E000016821F00801016094F85C103F208840FD
:1010F000A86084F8358084F83490216D1FE0E16B9E
:1011000009B120468847606D00282BD0606DC0076C
:1011100014D0052084F835002068016821F0010111
:1011200001600098401C0090B84203D82068006815
:10113000C007F6D184F8358084F83490E16C00293A
:1011400010D001B02046BDE8F04308470168C9054A
:10115000D5D4016821F01001016084F8358084F84D
:101160003490CCE7BDE8F883240000202DE9F0415D
:10117000044600F0C9F906465CB1022084F8350047
:10118000002584F834502068016821F001010160D5
:101190000DE00120BDE8F08100F0B6F9801B0528C4
:1011A00005D920206065032084F83500F2E7206827
:1011B0000068C007F0D12268116820480140D4E9D6
:1011C00001031843D4E903363343184363691843D2
:1011D000A3691843E3691843236A18430843616A03
:1011E000042903D1D4E90B13194308431060206884
:1011F0004069666A20F0070130460E430127042843
:101200000CD1A06A0643E06A40B12046FFF796FA87
:1012100020B14020606584F83570BAE720684661E7
:101220002046FFF777FA94F85C203F2191408160D7
:10123000656584F835700020ACE700003F8010F051
:101240002DE9F0410446866D90F834000025012810
:101250000DD0012084F8340094F835700020012F5F
:1012600007D084F8340002252846BDE8F08102202A
:10127000FBE7022784F8357060652046FFF7B4FA73
:1012800094F85C103F208840B0602068016841F00D
:1012900016010160206C20B12068016841F008014E
:1012A00001602068016841F001010160DCE77047DE
:1012B000044910B50A68024202D00860FFF7F7FF40
:1012C00010BD0000143C01402DE9F84FDFF8F8A1F3
:1012D000002201240AF1040B03254FF00F090BF142
:1012E000040E00BF0B6804FA02F63340B34270D11B
:1012F0000F7907F00307012F01D0022F16D187685D
:101300004FEA420805FA08FC27EA0C07D1F80CC09E
:101310000CFA08FC4CEA070CC0F808C04768B74351
:101320000E79C6F3001696403E4346600E79F643AA
:10133000B6070AD0C7684FEA420C05FA0CF6B74365
:101340008E6806FA0CF63E43C6600E7906F0030678
:10135000022E10D1D60800EB8608D8F82060570777
:101360004FEAD76C09FA0CF7BE430F6907FA0CF77E
:101370003743C8F8207006684FEA420C05FA0CF7AC
:10138000BE430F7907F0030707FA0CF737430760EE
:101390004E6816F4403F1CD04C4E376847F48047E7
:1013A0003760366822F0030706F480460096484E00
:1013B00007EB060CDCF8086897073F0F09FA07F8F7
:1013C00026EA0806DFF80C81404503D14FF00008FB
:1013D00041E072E0DFF80081404502D14FF00108A2
:1013E00039E0DFF8F880404502D14FF0020832E0E2
:1013F000DFF8EC80404502D14FF003082BE0DFF826
:10140000E480404502D14FF0040824E0DFF8D880A2
:10141000404502D14FF005081DE0DFF8D08040457F
:1014200002D14FF0060816E0DFF8C480404502D133
:101430004FF007080FE0DFF8BC80404502D14FF0C5
:10144000080808E0DFF8B080404502D14FF00908F5
:1014500001E04FF00A0808FA07F848EA0608CCF855
:101460000888DAF800605746D1F804C09E435FEA66
:10147000CC3C00D51E433E60DBF800605F46D1F8EF
:1014800004C09E435FEA8C3C00D51E433E60DEF8FC
:1014900000607746D1F804C09E435FEACC2C00D5AB
:1014A0001E433E60084F0C373E68D1F804C09E438F
:1014B0005FEA8C2C00D51E433E60521C102AFFF4BC
:1014C00011AFBDE8F88F0000003C014044380240F5
:1014D00000300140000002400004024000080240C9
:1014E000000C0240001002400014024000180240AC
:1014F000001C024000200240002402400069084015
:1015000000D001207047000001488068704700004B
:1015100018000020024881680278114481607047F9
:10152000180000200B4810B5016841F400710160FB
:10153000016841F480610160016841F480710160DB
:10154000032000F073F80F2000F006F800F024F8F4
:10155000002010BD003C024070B50D4D04464FF414
:101560007A712878B1FBF0F00A490968B1FBF0F014
:1015700000F048FB48B9102C07D200222146501E2B
:1015800000F034F800206C6070BD012070BD0000D8
:1015900018000020240000200C4882B0016841F4AB
:1015A00080410160006800F4804000900748001FFF
:1015B000016841F0805101600068002200F0805015
:1015C00000900F21901E02B000F010B84438024085
:1015D000002809DB00F01F02012191404009800032
:1015E00000F1E020C0F8001170470000F0B40E4B8D
:1015F0001B680C46C3F30223C3F10705042D00D971
:101600000425191D072901D2002300E0DB1E012655
:1016100006FA05F1491E214099409E40761E16406B
:101620003143F0BC01F0E9B90CED00E0064900F0EF
:10163000070208684FF6FF03184040EA0220034AF9
:1016400010430860704700000CED00E00000FA0550
:101650002DE9F8431748016841F0805101600068A6
:10166000154F00F08050012600903E64FFF74CFFBC
:1016700005464FF47A78114C05E000BFFFF744FFB0
:10168000401B40450DD86068C003F7D57E64FFF766
:101690003BFF0546464607E0FFF736FF401BB042DA
:1016A00002D90320BDE8F88360688003F4D50020E8
:1016B000F8E700004038024000000E420070004091
:1016C0002DE9F0470E46050065D0DFF81481D8F803
:1016D0000000F7B200F00F00B04207D288F80070A7
:1016E000D8F8000000F00F00B04254D128683D4CFB
:1016F000810712D5400703D5206840F4E0502060F0
:101700002878000703D5206840F4604020602068F6
:10171000A96820F0F000084320602878C0072DD089
:10172000304968680839012812D0022813D00328EC
:1017300011D00968890700292DDA216821F00301F9
:1017400001432160FFF7E0FE814641F2883A0EE056
:1017500009688903EFE709688901ECE7FFF7D4FE20
:10176000A0EB0901514502D90320BDE8F0872068AC
:10177000696800F00C00B0EB810FEFD1D8F80010D1
:10178000404601F00F01B14207D90770006800F030
:101790000F00B04201D00120E7E72878400705D5C7
:1017A0002068E96820F4E0500843206028780007AA
:1017B00006D52068296920F4604040EAC100206015
:1017C00000F038F82168084AC1F30311515CC840A1
:1017D0000649086006480068FFF7BEFE0020C4E71F
:1017E000003C0240083802406463000824000020E6
:1017F0001C0000200448054900680968044AC1F338
:101800008221515CC8407047240000200838024003
:10181000746300080448054900680968044AC1F374
:101820004231515CC8407047240000200838024013
:1018300074630008154810B5006810F00C021448D5
:1018400013D01449042A0FD0082A0ED10F4C241F9C
:101850002268236802F03F025B0207D52068C0F3CC
:101860008810A0FB010106E0084610BD2168C1F305
:101870008811A1FB00010023FEF768FD2168C1F378
:101880000141491C4900B0FBF1F010BD083802408D
:101890000024F400001BB7002DE9F84F04006ED0BF
:1018A0002078DFF84C93C007A9F104054AD009F16C
:1018B00004000168C1F38101012908D00068C0F368
:1018C000810002280AD1D9F80000400206D5286814
:1018D000800337D560680028E1D033E06068B0F558
:1018E000803F10D0B0F5A02F286810D020F48030B1
:1018F0002860286820F4802028606068A8B1FFF77D
:1019000003FE06460DE0286840F48030F4E740F41A
:1019100080202860F7E700BFFFF7F6FD801B6428F2
:1019200073D828688003F7D50CE0FFF7EDFD064675
:1019300005E000BFFFF7E8FD801B6428F0D82868A9
:101940008003F7D42078DFF8AC8280074FF0000ADC
:101950003ED5A748001D016811F00C0F08D00068A3
:10196000C0F3810002280BD1D9F80000400207D44F
:101970002868800716D5E068012800D112E033E11D
:10198000E068B8B10120C8F80000FFF7BDFD0646C9
:1019900005E000BFFFF7B8FD801B0228C0D828680B
:1019A0008007F7D52868216920F0F80040EAC100D7
:1019B00028600DE0C8F800A0FFF7A6FD064604E089
:1019C000FFF7A2FD801B02281FD828688007F7D4E4
:1019D0002078000722D5864F87486169703771B13A
:1019E00001210160FFF790FD064604E0FFF78CFD42
:1019F000801B022809D838688007F7D50EE0C0F8A8
:101A000000A0FFF781FD064605E082E0FFF77CFDC0
:101A1000801B02287DD838688007F7D420784007DB
:101A200068D5DFF8CCB100270BF13C0BDBF80000E8
:101A3000C0000BD4DBF8001041F08051CBF800104F
:101A4000DBF80000012700F0805000906B4E3068FA
:101A5000C00510D4306840F480703060FFF754FD4A
:101A6000009005E0FFF750FD0099401A022850D879
:101A70003068C005F6D55E4EA0686C3601280FD0E0
:101A80000528306810D020F001003060306820F068
:101A900004003060A068B8B1FFF736FD00900FE099
:101AA000306840F00100F4E740F004003060F7E7F0
:101AB000FFF72AFD0099411A41F28830814266D829
:101AC00030688007F4D50EE0FFF71EFD009007E0B8
:101AD000FFF71AFD0099411A41F28830814256D829
:101AE00030688007F4D42FB1DBF8001021F080516A
:101AF000CBF80010A069C8B33D49091D0968C1F3BE
:101B0000810102294AD00228504607D0C8F8600057
:101B100000E03CE0FFF7F8FC04463BE04746C8F82D
:101B20006000FFF7F1FC064605E000BFFFF7ECFCA4
:101B3000801B02282BD828688001F7D4D4E907013C
:101B40000843A16A2E4A490802EB0141626A41EA50
:101B50008211084394F82C1040EA0161C9F8001082
:101B600001203866FFF7D0FC044606E03EE000BFE7
:101B7000FFF7CAFC001B022809D828688001F7D5A6
:101B800034E000BFFFF7C0FC001B022802D903208D
:101B9000BDE8F88F28688001F4D427E00128F7D049
:101BA000D9F80000E26900F4800191421CD1226A58
:101BB00000F03F01914217D147F6C071626A0140BF
:101BC000B1EB821F10D1A26A4FF0FF3300F4403115
:101BD00003EB5202B1EB024F06D194F82C1000F047
:101BE0007060B0EB016F01D00120D1E70020CFE79A
:101BF0000438024000004742800E47420070004017
:101C00000000FFFF10B5401EB0F1807F01D301201E
:101C100010BD4FF0E02460610F21601700F0EDFE71
:101C20000020A06107202061002010BD7047704790
:101C3000F8B5016804460868CA684B6910F00F0FD0
:101C40004FF0000559D003F0010602F490773743B6
:101C500065D0C10705D0D10503D5216C41F0010144
:101C60002164410705D5D90703D0216C41F0020159
:101C70002164810705D5D90703D0216C41F0040107
:101C80002164010707D502F02001314303D0216C04
:101C900041F008012164216C00293AD0800604D566
:101CA000900602D5204600F083FD20684069216C33
:101CB000C0F38010090700D460B3204600F043FD54
:101CC00020684069400621D52068143050E8001F84
:101CD00021F0400140E80012002AF5D1A06BA8B124
:101CE0006C490165A06BFFF75EF9002811D0A06B6D
:101CF000016D01B0BDE8F040084783060FD593069B
:101D00000DD52046BDE8F84000F052BD2046FFF753
:101D10008EFFF8BD2046FFF78AFF2564F8BD266BCD
:101D20002023012E79D1C60677D5D60675D5086849
:101D3000486800904869400640D5A16B0868406833
:101D40000004000CEAD0A28D8242E7D9E085C86980
:101D5000B0F5807F2DD020680C3050E8001F21F4B2
:101D6000807140E80012002AF5D12068143050E854
:101D7000001F21F0010140E80012002AF5D120687F
:101D8000143050E8001F21F0400140E80012002A02
:101D9000F5D184F83E30256320680C3050E8001FF0
:101DA00021F0100140E80012002AF5D1A06BFFF7E6
:101DB000B1F8A08DE18D401A81B229E0A08DE18DAE
:101DC000401A81B2E08D0028A8D00029A6D0206852
:101DD0000C3050E8002F22F4907240E80026002ECC
:101DE000F5D12068143050E8002F22F0010240E8BD
:101DF0000026002EF5D184F83E30256320680C3093
:101E000050E8002F22F0100240E80023002BF5D10B
:101E10002046FFF70BFFF8BDFFE705062BD515069B
:101E200029D594F83D002128F5D1A068B0F5805F50
:101E300001D12069B0B1206A411C2162216800787B
:101E40004860E08C401E0004000CE084E3D1206870
:101E5000C16821F08001C1602068C16841F0400183
:101E6000C160D8E7206A0088C0F308004860206A93
:101E7000801C2062E5E74006CDD55006CBD5CA6868
:101E8000204622F04002CA6084F83D3000F03AF962
:101E9000C1E70000A126000870B5040004D094F842
:101EA0003D00002510B106E0012070BD84F83C50D3
:101EB000204600F023F8242084F83D002068C16803
:101EC00021F40051C160204600F0D2FC2068016975
:101ED00021F4904101612068416921F02A014161AA
:101EE0002068C16841F40051C1602564202084F855
:101EF0003D0084F83E00002070BD00002DE9F04F49
:101F000087B0064614216846FEF738FBDFF844C167
:101F100002223168504803230725002497064FF416
:101F200080684FF480794FF4403B61453CD14A4989
:101F30001431D1F800C04CF0100CC1F800C0096891
:101F400001F010010591016841F002010160006893
:101F5000694600F002000590C0208DE81500CDE92B
:101F600003353E48FFF7B0F93E4D3D4805F11801F5
:101F70002860C5E90174C5E903486C6181E8100A6D
:101F800028466C62FFF7F2F808B1FEF755FCB5631E
:101F9000002205212520AE63FFF728FB2520FFF74F
:101FA00017FB07B0BDE8F08FDFF8BCC06145F8D182
:101FB00029491031D1F800C04CF4802CC1F800C080
:101FC000096801F480210591016841F00801016070
:101FD0000068694600F0080005904FF440708DE8F5
:101FE0001500CDE903352148FFF76EF91D4D204856
:101FF0006035BA462860C5E90174C5E9034847461B
:10200000C84605F11801D9466C6181E810032846DD
:102010006C62FFF7ABF808B1FEF70EFCB563AE6378
:10202000104D1348C0353030E5E8020A402091C514
:1020300045F8144905F1180080E8100309486C625E
:10204000C030FFF793F808B1FEF7F6FB7563AE6397
:10205000A7E70000001001403038024000040240B1
:1020600040640240DC01002000480040000C0240B7
:10207000286002407047000070B5044690F83D00AB
:10208000202836D191B38AB394F83C00012830D08F
:10209000012084F83C002162A284E28400252564AA
:1020A000212084F83D00636B1348D863636B1348A9
:1020B0001864636B1248D864606B13460565266824
:1020C000606B321DFFF7BCF821686FF040000860BC
:1020D00084F83C502068143050E8001F41F0800123
:1020E00040E80012002AF5D1002070BDFFE7012072
:1020F000FBE70220F9E70000FB2600083D27000867
:10210000B126000870477047FEE700000F4810B581
:102110000D4901600521416000214FF400328160CA
:10212000C0E9031252014261017641768176C1769F
:1021300001774177FEF763FD002803D0BDE810402A
:10214000FEF77ABB10BD00000064004004010020CF
:102150000F4810B50D4901600521416000214FF481
:1021600000328160C0E9031252014261017641767A
:102170008176C17601774177FEF741FD002803D0D3
:10218000BDE81040FEF758BB10BD000000680040DD
:102190002C010020154808B5016841F48001016058
:1021A000016801F480010091016841F400110160AF
:1021B0000068002200F40010009005210C20FFF7B9
:1021C00015FA0C20FFF704FA002205210E20FFF774
:1021D0000DFA0E20FFF7FCF9002205213A20FFF747
:1021E00005FABDE808403A20FFF7F2B9303802405E
:1021F00010B5124A0021124801F0D0FC114C0F4AD0
:10220000002120602432104801F0C8FC0B4A6060B5
:10221000483200210D4801F0C1FC084AA0606C3230
:1022200000210B4801F0BAFC044AE0609032002122
:10223000084801F0B3FC206110BD0000A86200084E
:10224000B538000800000020B53400087D290008DA
:10225000B94700085534000810B586B01421684607
:10226000FEF78CF926480024016841F00101016065
:10227000016801F001010591016841F0020101606E
:10228000016801F002010591016841F00801016057
:10229000016801F008010591016841F080010160C9
:1022A000016801F080010591016841F010010160B1
:1022B0000068694600F0100005904FF480500090CF
:1022C0004FF44410CDE901040E48FEF7FDFF4FF432
:1022D000C07000900220CDE9010403200390082083
:1022E000049069460848FEF7EFFF002205212820E8
:1022F000FFF77CF92820FFF76BF906B010BD00004E
:1023000030380240000C0240001002400C4810B56A
:102310000A4901600B494160002181600C22C160C3
:10232000C0E904128161C161FFF7B6FD002803D046
:10233000BDE81040FEF780BA10BD0000001001405B
:1023400054010020A08601000C4810B50A49016024
:102350004FF4E1314160002181600C22C160C0E98D
:1023600004128161C161FFF797FD002803D0BDE829
:102370001040FEF761BA10BD0048004098010020EF
:10238000FEE7FEE790ED032A80ED022A90EC021AA8
:1023900031EE611A80ED031ADFED451AB4EEE01A52
:1023A000F1EE10FA02DD71EE610A08E0F1EE600A6A
:1023B000B4EEE01AF1EE10FA03D271EE210AC0ED8C
:1023C000030AD0ED040AD0ED031A60EEA10AC0EDB5
:1023D000070A90ED051A61EE212A90ED081A71EEB8
:1023E000C21A02EE801A80ED081A90ED062A61EEFC
:1023F000821A21EE800A80ED090AD0ED0A1AB1EEA8
:10240000612AF4EEC20AF1EE10FA02D2F0EE420AAC
:1024100006E0F4EEE10AF1EE10FA01DDF0EE610AF9
:10242000C0ED070AD0ED0B1AB1EE612AB4EEC21A64
:10243000F1EE10FA02D2B0EE421A06E0B4EEE11A62
:10244000F1EE10FA01DDB0EE611A80ED081AD0ED60
:102450000C1AB1EE612AB4EEC20AF1EE10FA02D201
:10246000B0EE420A06E0B4EEE10AF1EE10FA01DD48
:10247000B0EE610A70EE810A80ED090A30EE800A42
:1024800080ED0D0AD0ED0E0AB1EE601AB4EEC10A6D
:10249000F1EE10FA02D2B0EE410A06E0B4EEE00A24
:1024A000F1EE10FA01DDB0EE600A80ED0D0A704722
:1024B0000000B44390ED032A80ED022AD0EC020A1A
:1024C00070EEC11AC0ED031AD0ED040A60EEA10A45
:1024D000C0ED070A90ED051A61EE212A90ED081A69
:1024E00071EEC21A02EE801A80ED081A90ED062AEB
:1024F00061EE821A21EE800A80ED090AD0ED0A1AF7
:10250000B1EE612AF4EEC20AF1EE10FA02D2F0EE58
:10251000420A06E0F4EEE10AF1EE10FA01DDF0EE17
:10252000610AC0ED070AD0ED0B1AB1EE612AB4EED4
:10253000C21AF1EE10FA02D2B0EE421A06E0B4EE80
:10254000E11AF1EE10FA01DDB0EE611A80ED081A21
:10255000D0ED0C1AB1EE612AB4EEC20AF1EE10FA17
:1025600002D2B0EE420A06E0B4EEE10AF1EE10FA51
:1025700001DDB0EE610A70EE810A80ED090A30EEED
:10258000800A80ED0D0AD0ED0E0AB1EE601AB4EEAD
:10259000C10AF1EE10FA02D2B0EE410A06E0B4EE42
:1025A000E00AF1EE10FA01DDB0EE600A80ED0D0AEE
:1025B0007047000008B54FF40070044B0090A3F57D
:1025C000007203490348FEF7E3F808BDC851002034
:1025D0003C0200209801002010B5FEF79BFF02F09E
:1025E000AFFE012803D0BDE8104002F0DDBB10BDF6
:1025F00030B593B030216846FDF7C0FF14210CA818
:10260000FDF7BCFF20480025016841F080510160C2
:10261000006800F0805011901C48016841F440416E
:1026200001600068022400F44040119001200090F5
:10263000000401908001CDE9064006200890B420F6
:10264000CDE9090404200B906846FFF725F908B18D
:1026500072B6FEE7FEF7FCFF08B172B6FEE70CA902
:102660000F2081E831004FF4A0500F904FF48050BC
:10267000109005210CA8FFF723F8002801D072B6AE
:10268000FEE713B030BD000040380240007000404B
:102690000248016841F470010160704788ED00E074
:1026A00010B5806B0021C185C184FFF7C0FA10BD51
:1026B00070B5846B2068406994F83D10C0F3C01079
:1026C0000025212904D118B1E584204600F062F8E4
:1026D0002068406994F83E10C0F38010222904D18C
:1026E00018B1E585204600F02EF8206C40F010006F
:1026F00020642046FFF79BFA70BD10B50146806B41
:1027000009680968C90516D40021C184016814311B
:1027100051E8002F22F0800241E80023002BF5D180
:1027200001680C3151E8002F42F0400241E80023DB
:10273000002BF5D110BDFFF7E5FC10BD10B5806B87
:10274000FFF7E1FC10BD01680C3151E8002F22F4C5
:10275000907241E80023002BF5D10168143151E853
:10276000002F22F0010241E80023002BF5D1016B7C
:10277000012909D101680C3151E8002F22F0100223
:1027800041E80023002BF5D1202180F83E100021E4
:102790000163704701680C3151E8002F22F0C0023C
:1027A00041E80023002BF5D1202180F83D1070472F
:1027B00008B590F83E10222901D0022008BD826899
:1027C0004FF480539A4201D1016921B1816A9A4242
:1027D0001BD04AB10AE00268816A5268C2F308025B
:1027E0000A80816A891C08E0026972B10268526835
:1027F00002F07F020A70816A491C8162C18D491E04
:102800000904090CC18503D019E002685268F1E798
:102810000168CA6822F02002CA600168CA6822F40E
:102820008072CA6001684A6922F001024A6120216F
:1028300080F83E10016B012903D0FFF71BFC00203C
:1028400008BD0021016301680C3151E8002F22F01E
:10285000100241E80023002BF5D101680A68D20676
:1028600002D50A6849680091818DFFF7DFF9E6E734
:1028700070B5044600680169E26821F440511143D3
:1028800001612169A068E269084361691143084355
:102890002168CA6849F20C639A430243CA602068FF
:1028A0004169A26921F440711143416131492068B5
:1028B000884202D03049884202D1FEF7ABFF01E0E6
:1028C000FEF798FFE2690023192164253226B2F54C
:1028D000004F626828D0A0FB0101930F9200FDF722
:1028E00035FD0146B0FBF5F06FF01802504301EBE7
:1028F000800006EB0010B0FBF5F000F0F002B1FB39
:10290000F5F002EB0012B1FBF5F06FF0180358433D
:1029100001EB800006EB0010B0FBF5F000F00F00BB
:1029200021681044886070BDA0FB010192185B41D2
:10293000FDF70CFD0146B0FBF5F00201B1FBF5F02F
:102940006FF01803584301EB800006EBC000B0FBAA
:10295000F5F000F0F80002EB4002B1FBF5F058434F
:1029600001EB800006EBC000B0FBF5F000F00700C3
:10297000D6E7000000100140001401400C4800F0B0
:10298000B5FE0B480F3800F0B1FE09481E3000F0CC
:10299000ADFE07480F3000F0A9FE0649044800F0DC
:1029A0007BFD034804491E3000F0D4FDF5E700002C
:1029B0008B5800206C5800204C4C00200148FFF739
:1029C00037B9000054010020FEE703B4019841002C
:1029D000009850EAC12018BF04204A0D18BF40F0EB
:1029E000010040F2FF72B2EB515F08BF40F00200FD
:1029F000012808BF052002B070470907090E00280A
:102A000004DB00F1E02080F80014704700F00F00B4
:102A100000F1E02080F8141D704700000000000065
:102A200010B52F499FED2C1B2DED020B84B005989E
:102A300020F000408842D8BF9DED040B2DDD2949D0
:102A4000884209D1049840B94FF00100FDF7C5FD57
:102A500000F0A2FC06B010BD05DB9DED040B00F0FC
:102A60008FFC06B010BD68469DED040B00F0A0F889
:102A700010F0030004BF9DED021B9DED000B0CD078
:102A800001280ED09DED021B9DED000B022817D0F2
:102A9000012000F0DDFB06B010BD00F0A5FA06B085
:102AA00010BD9DED021B9DED000B012000F0D0FB41
:102AB00051EC100B02F0F0FE06B041EC100B10BD13
:102AC00000F092FA51EC100B02F0E6FE06B041EC79
:102AD000100B10BD0000000000000000000000000E
:102AE000FB21E93F0000F07F10B52F499FED2C1B23
:102AF0002DED020B84B0059820F000408842DCBF29
:102B000000209DED040B32DD2849884209D104984C
:102B100040B94FF00100FDF760FD00F03DFC06B04C
:102B200010BD05DB9DED040B00F02AFC06B010BDC6
:102B300068469DED040B00F03BF810F0030011D047
:102B4000012818D09DED021B9DED000B02281AD024
:102B500000F04AFA51EC100B02F09EFE06B041EC78
:102B6000100B10BD9DED021B9DED000B012000F030
:102B70006FFB06B010BD9DED021B9DED000B00F03C
:102B800033FA06B010BD012000F062FB51EC100BCF
:102B900002F082FE06B041EC100B10BD00000000F8
:102BA0000000000000000000FB21E93F0000F07F72
:102BB0002DE9F14F04462DED020B2DED088B8AB067
:102BC0009FEDE70B80ED020B139EE74826F00045D2
:102BD00085420ADC9DED120B002084ED000B0AB04B
:102BE000BDEC088B03B0BDE8F08FE0489FEDE0AB93
:102BF0009FEDE1BBA84247DDE14F9FEDE39B9FEDD9
:102C0000E48B9DED120B53EC1A2B51EC100B002EA4
:102C10001CDD03F0E3F941EC100BBD4208D053EC8E
:102C20001B2B51EC100B03F0D9F9C4E900010BE0A8
:102C300053EC192B51EC100B03F0D0F953EC182B7B
:102C400003F0CCF9C4E900010120C8E702F062FEFC
:102C500041EC100BBD4208D053EC1B2B51EC100B78
:102C600002F058FEC4E900010BE053EC192B51ECC3
:102C7000100B02F04FFE53EC182B02F04BFEC4E990
:102C800000014FF0FF30AAE7C348A84279DB9DED71
:102C9000120B51EC100B00F0B7FC41EC180B9FED40
:102CA000C00B53EC102B03F08FF89FEDBF1B53ECC0
:102CB000112B02F02FFE03F02DF8074603F059F810
:102CC00041EC190B53EC1A2B03F07EF853EC182B44
:102CD00003F078F941EC180B53EC1B2B51EC190B5A
:102CE00003F072F8DFF8C8A241EC100B4FEA155858
:102CF0000125FA4453EC102B51EC180B03F06EF93C
:102D0000032DC4E900013DD0C1F30A5005EB451184
:102D1000A8EB00001139814234DA0AEB051BB0EE52
:102D200048AA9BED000BF0EE68AA53EC102B51EC77
:102D3000190B03F049F841EC1B0B51EC1A0B53EC47
:102D40001B2B03F04BF941EC180B51EC1A0B53EC15
:102D5000182B03F043F953EC1B2B03F03FF99BEDC9
:102D6000020B41EC1A0B53EC102B51EC190B03F036
:102D70002BF853EC1A2B03F031F941EC100B6D1CBE
:102D8000B8E70EE0002EA8BF3846BFF628AF94ED96
:102D9000000B51EC100B02F07FFDC4E900017842FA
:102DA0001DE7C6F3130040F4801EC6F30A50A0F2DC
:102DB000F530471100F01F05C5F12000DDF848B0DF
:102DC00008900020069007900520EC467949002DD8
:102DD00007EB0002794408BF51F8221009D051F8DE
:102DE000223001EB8201AB404A68089922FA01F1D6
:102DF0001943A1FB0E26A1FB0B131A449A4234BFC0
:102E00000123002303EB06080CEB8003D3E901A6A2
:102E10000E448E4234BF0121002192448A4411B1F4
:102E2000924502D903E0924501D2012100E0002140
:102E3000C3E901A641444CF82010011EA0F1010095
:102E4000C4DC029800F10050850F0298DDE90367A9
:102E50008000DDF8148002F08CFF41EC1A0B304644
:102E600002F09EFF9FED541B53EC112B02F0ACFFC0
:102E700041EC1B0B384602F093FF9FED511B53ECC6
:102E8000112B02F0A1FF41EC180B404602F088FF25
:102E90009FED4D1B53EC112B02F096FF41EC190BEB
:102EA00051EC180B53EC192B02F034FD53EC1B2B97
:102EB00002F030FD53EC1A2B02F02CFDCDE9080195
:102EC000002008909DED080B53EC1A2B51EC100BD1
:102ED00003F084F853EC1B2B03F080F853EC182B11
:102EE00003F07CF853EC192B03F06CF89FED381BC2
:102EF00053EC112B02F068FF9FED370B41EC180BE0
:102F000053EC102B9DED080B51EC100B02F05CFF05
:102F100053EC182B02F0FEFC9FED310B41EC180B2B
:102F200053EC102B9DED080B51EC100B02F04CFFF5
:102F300053EC182B02F0EEFC41EC100B139810F040
:102F4000004F06D06D4251EC100B02F0A5FC41EC95
:102F5000100B284684ED000B41E600000000000045
:102F60000000000000000000FB21E93F7CD9024086
:102F700000004054FB21F93F3163621A61B4D03D37
:102F8000FB21F93F000000000000601A61B4D03D51
:102F90007370032E8A19A33BFB2139410000000006
:102FA00083C8C96D305FE43F000000000000E03FCF
:102FB000BA39000008390000000000000000103E8F
:102FC000000000000000103C000000000000103A6B
:102FD000182D4454FB21F93D3326A611460B113C14
:102FE00000000054FB21F93D10B52DED040B2DED33
:102FF000088B82B0B0EE419AF0EE619A0B9820F007
:1030000000449FED4BABB4F1795F11DA9DED0A0BF3
:1030100051EC100B02F07EFE002801BFB0EE4A0A10
:10302000F0EE6A0A02B0BDEC088B04BF04B010BD1C
:103030009DED0A0B53EC102B51EC100B02F0C4FE6B
:1030400041EC180B3C480621B0EE480AF0EE680A45
:10305000784400F081F853EC182B51EC100B02F07F
:10306000B3FE9DED0A0B41EC1B0B53EC192B51ECFD
:10307000100B02F0A9FE41EC190B53EC1B2B51EC89
:10308000180B02F0A1FE53EC192B02F0A7FF9FEDE5
:103090002C0B41EC190B53EC102B51EC180B02F0DC
:1030A00093FE41EC100B2848844210DA53EC192BA4
:1030B00051EC100B02F092FF53EC1A2B02F082FF3E
:1030C00041EC100B02B0BDEC088B04B010BD1F48E2
:1030D000A042BCBF9FED1E1B8DED001B06DBA4F5BF
:1030E00000100190002000909DED001B51EC100B92
:1030F00053EC112B02F072FF9DED000B41EC180B0D
:1031000053EC102B51EC1A0B02F068FF41EC1A0B38
:1031100053EC192B51EC180B02F060FF53EC1A2BF7
:1031200002F050FF41EC100BCCE700000000000063
:10313000000000000000F03F2C36000000000000FE
:10314000000000000000E03F3333D33F0000E93FC0
:10315000000000000000D23F70B504462DED028B48
:103160004D1E00EBC500B0EE408AF0EE608A90ED97
:10317000000B35F0060017D053EC182B51EC100B58
:1031800002F022FE41EC100B6D1E04EBC50090ED29
:10319000001B51EC100B53EC112B02F0BBFB41EC6C
:1031A000100B35F00600E7D1022D36D0042D1CD0CF
:1031B000062D1CBFBDEC028B70BD53EC182B51ECDF
:1031C000100B02F001FE94ED0A1B53EC112B02F0E0
:1031D000A1FB53EC182B02F0F7FD94ED081B53EC08
:1031E000112B02F097FB41EC100B53EC182B51EC18
:1031F000100B02F0E9FD94ED061B53EC112B02F0CD
:1032000089FB53EC182B02F0DFFD94ED040B53EC1B
:10321000102B02F07FFB41EC100B53EC182B51EC00
:10322000100B02F0D1FD94ED021B53EC112B02F0B8
:1032300071FB53EC182B02F0C7FD94ED001B53EC0F
:10324000112B02F067FBBDEC028B41EC100B70BD43
:1032500031B504462DED040B2DED0A8BB0EE41BACD
:10326000F0EE61BA0B989DED0A0B20F00040B0F132
:10327000795F0DDA51EC100BFFF7A7FB042808BFAC
:1032800000F09AF89DED0A0BBDEC0A8B05B030BD3D
:1032900053EC102B51EC100B02F096FD41EC180B87
:1032A0009DED0A0B53EC182B51EC100B02F08CFD2A
:1032B00041EC190B2C48B0EE480AF0EE680A0521E3
:1032C0007844FFF749FF9FED2ACBB0EE40AAF0EE1D
:1032D00060AA9CB353EC1C2B51EC190B02F074FD4B
:1032E00041EC1C0B53EC1A2B51EC190B02F06CFD4A
:1032F0009FED210B41EC190B53EC102B51EC1B0BE8
:1033000002F062FD53EC192B02F068FE53EC182B0F
:1033100002F05AFD53EC1B2B02F060FE53EC1C2B09
:1033200002F05CFE9DED0A1B53EC112B02F04AFEED
:10333000BDEC0A8B05B041EC100B30BDFFE753EC40
:103340001A2B51EC180B02F03FFD53EC1C2B02F032
:10335000E1FA53EC192B02F037FD9DED0A1B53ECFB
:10336000112B02F0D7FAE3E7B434000000000000AC
:10337000495555555555C5BF000000000000E03FB8
:1033800010B553EC102B51EC100B02F0C3FA41ECCA
:10339000100B10BD000000009FED050B10B553ECA5
:1033A000102B51EC100B02F05DFB41EC100B10BD2B
:1033B00000000000000000009FED050B10B553EC6D
:1033C000102B51EC100B02F0FFFC41EC100B10BD68
:1033D000000000000000001010B503460888DFED73
:1033E0001A0A40BA00EE100A16480C46B8EE400A17
:1033F00083ED100A90ED100A20EE200ADFED130A8B
:1034000080EE201A9FED120A31EE400A83ED140A75
:103410006188D0ED060A49BA09B200EE101A1846C2
:10342000B8EEC00A80EE201A83ED151A00F042FBB8
:10343000A08840BA00B200EE100AB8EEC00A83EDD0
:10344000160A10BD5C4F00200000B44300F8FF4591
:103450000000344310B5012000F064FBFBE70A884C
:1034600000EE102AB8EE400A80ED000A0A8800EE4D
:10347000102AB8EE400A80ED010A0A8800EE102AF0
:10348000B8EE400A80ED020A098800EE101AB8EE84
:10349000400A80ED030A7047B0F80D20002161F367
:1034A0004F12A0F80D20C17821F00701891CC170CE
:1034B00000F01CB90D49A1F5357002F0CDF90C49A9
:1034C000A1F1340002F0F2F808490948F03901F09E
:1034D000D2FB064B074AF03BA3F5F271044800F01B
:1034E000A3FB022000F01EFBE4E70000204F0020B9
:1034F000804C00206C58002010B591ED140AD1EDDD
:10350000080A00F12C02044630EE600A80ED090A38
:1035100091ED150A111D80ED080A283000F0C8F859
:10352000207800090DD001280ED0022808D194ED92
:103530000B0AF6EE000A00BF20EE200A84ED050A11
:1035400010BD94ED0B0AF9E794ED0B0AF0EE000ABA
:10355000F2E7000091ED090ADFED130A9FED131A5F
:10356000838830EE200A30EE410ABCEEC00A10EE2D
:10357000102A62F38E13838091ED090AB0F80520BA
:1035800030EE200A30EE010ABCEEC00A10EE101A2E
:1035900061F3CF12A0F80520C17821F00701891C42
:1035A000C17000F0A3B80000000034430000B44133
:1035B0004A7802704A8852BA00EE102AB8EE400AE1
:1035C00080ED010A8A8852BA00EE102AB8EE400A4D
:1035D00080ED020AC98849BA00EE101AB8EE400A16
:1035E00080ED040A70470A8852BA00EE102AB8EE3D
:1035F000400A80ED060A498849BA00EE101AB8EE72
:10360000400A80ED070A704782B0CDE9000121F041
:10361000004001909DED000B02B051EC100B704783
:10362000EFF3108172B6436802699A4201D90268C9
:10363000026112F8013B02618268521C8260C2681A
:10364000521E81F31088C260184670478B185B1EAB
:103650000160C0E901320022C0E903214161104646
:103660007047C0687047000010B558B1084C491E3B
:103670000BD310F8013B5340DBB234F8133083EA2C
:103680001222F4E74FF6FF7010BD104610BD000087
:103690007C64000810B5054C04E000BF10F8013B45
:1036A0005340E25C491EF9D2104610BD7C6300080D
:1036B0000A4B10B55C680460188900EE100AA3F18B
:1036C0001B00B8EE400A81ED000A008B00EE100AE4
:1036D000B8EE400A82ED000A10BD00001F4C002029
:1036E0000148007870470000044C002010B586B0F7
:1036F0000446FFF7F5FF01228DF800208DF8012028
:10370000030A8DF8023040F001018DF80300080A29
:103710008DF804008DF8051020788DF8060060788B
:103720008DF80700A0788DF80800E07800F0070118
:10373000C0F3C200032801D2012000E000200143B1
:10374000B4F80300C0F38310062801D2012000E082
:10375000002001438DF80910B4F80300C0F3831072
:10376000022801D9012000E000202179C1F3830162
:10377000022901D2012100E000210843A188C1F300
:103780008811062901D2012100E0002108438DF8AB
:103790000A00A088C0F38810022801D9012000E0A7
:1037A0000020B4F805100723B3EBD11F01D9012184
:1037B00000E0002108438DF80B00B4F80500B2EBDF
:1037C000D01F01D2012000E000208DF80C00E0792C
:1037D0008DF80D00B4F80700C0F30900082801D9DE
:1037E000012000E000202189C1F38A01022901D2D1
:1037F000012100E0002108438DF80E002089C0F36C
:103800008A00062801D9012000E00020B4F8092030
:103810000521B1EB521F01D9012200E00022104323
:103820008DF80F00B4F809200320B0EB521F01D22D
:10383000012200E000228DF81020E27A8DF811209C
:10384000B4F80B20C2F30902082A01D9012200E0D2
:103850000022A389C3F38A03022B01D2012300E0D3
:1038600000231A438DF81220A289C2F38A02062A85
:1038700001D9012200E00022B4F80D30B1EB531F52
:1038800001D9012100E000210A438DF81320B4F88A
:103890000D10B0EB511F01D2012000E000208DF887
:1038A0001400152269460248FEF7E6FB06B010BD7B
:1038B00098010020ACB0DFF818A121A80AF108088F
:1038C000444D40F2FF16444C08F1080B08F1100972
:1038D0002B90771C2A902990289040494048FFF768
:1038E0000BFE3B4800F0CDF83948083000F0D5F821
:1038F0003748103000F0CBF83548183000F0D3F8D6
:10390000202234491EA8FCF7DDFD95F820008DF833
:103910009800686A27901C22CDF81CA068462B9955
:10392000FCF7D0FD0DF1780C30469CE80E00FCF75A
:10393000B3FE202227491EA8FCF7C4FD95F82000FD
:103940008DF89800686A2790CDF81CB01C22684654
:103950002A99FCF7B7FD0DF1780C38469CE80E006B
:10396000FCF79AFE20221C491EA8FCF7ABFD94F838
:1039700020008DF89800606A27901C22CDF81C80EA
:1039800068462999FCF79EFD0DF1780C30469CE8BD
:103990000E00FCF781FE20220F491EA8FCF792FDC5
:1039A00094F820008DF89800606A27901C22CDF8CA
:1039B0001C9068462899FCF785FD0DF1780C384677
:1039C0009CE80E00FCF768FE022000F0ABF884E7EC
:1039D000DA000020040100202C0100205C4F0020B0
:1039E0004C4C002070B5194D00241C21C5F8164020
:1039F000AC76C5F81B40EC772C81AC722C70144867
:103A0000FCF79AFDC5F80E40C5F81240A5F80B402A
:103A10000F486C73AC801B211C30FCF78DFD0C48EB
:103A200010213730FCF788FD094810214730FCF79A
:103A300083FD6C70EC80AC702C620548AC84EC703B
:103A400040F8574F4460846070BD0000B100002012
:103A5000E84B0020FDF766FDFEF7CAFDFEF7FCFB14
:103A6000FEF754FBFEF774FBFEF794FBFEF74EFCEB
:103A7000FEF76AFC00F064F8FEF7BAFB00F072F89B
:103A8000FEE70021018041808180C18070470021D4
:103A9000018041808180C180704700210180418088
:103AA0008180C18070470021018041808180C18078
:103AB000704700005FF0040100EB8102491E92EDA7
:103AC000150A11F0FF0182ED160AF5D15FF004012D
:103AD00000EB8102D0ED0C0A92ED160AB5EEC00A99
:103AE000F1EE10FA01DCB1EE400A491E30EE800A18
:103AF00049B2002980ED0C0AEADAD0ED160A90ED01
:103B0000070AF4EEC00AF1EE10FA0ADBD0ED170A4C
:103B1000F4EEC00AF1EE10FA03DB90ED140A80ED2A
:103B20000A0A704710B5EFF3058111B16FF0050473
:103B300003E0002408B100F087FF204610BD00001C
:103B4000EFF3058010B16FF005007047044801687D
:103B500011B14FF0FF307047012101600020704724
:103B60007800002010B5EFF3058010B16FF005006C
:103B700010BD08480168012902D04FF0FF3010BD88
:103B8000054A002182F8141D0221016000F0C4FFE3
:103B9000002010BD780000200BE000E02DE9FF417F
:103BA0004FEA01034FF00005EFF30581039549BB90
:103BB00040B38027182100244AB3166806B1344662
:103BC00096691EB13146761E382E02D21679F60756
:103BD00003D0002004B0BDE8F081566906B1B708F3
:103BE000D2F808C0BCF1000F0DD0D5685C2D18D3F9
:103BF00012693AB136B18DE806103A46214601F015
:103C000074FB03900DE0D6685EB912694AB903AA45
:103C1000CDE90012BAB2214601F03AFB012800D0EA
:103C200003950398D6E7000030B5DFED300A002495
:103C3000B0EE600A04EBC40505EB450500EB850515
:103C400095ED161AB5EEC01AF1EE10FA01DCB1EEE0
:103C5000411A641C71EE200A64B2042CEADB92ED76
:103C6000011A234C11EE100A61EE200AA04202DD77
:103C700091ED051A07E091ED0B1AF6EE081A21EE08
:103C8000211A81ED051AB4EEE01AF1EE10FA2BD2EA
:103C90005FF00000C0EB001403EB8404D4ED0D0AC8
:103CA000F5EEC00AF1EE10FA01DCF1EE600A401CFC
:103CB00030EE800A40B20428ECDB0020C0EB001498
:103CC00003EB8404401C94ED0D1A40B20428C1EEAD
:103CD000000A91ED051A60EE810A92ED011AC0EE1C
:103CE000811AC4ED0D1AE9DB30BD000000000000B0
:103CF000000040412DE9F041134C0F460546E668AF
:103D00002068001D00F06CFD681C07D137B12168E8
:103D1000BDE8F0410D48091D00F0B2BD20683544F2
:103D2000B5424560216805D2A06BBDE8F041091D90
:103D300000F08EBD606B091D00F08AFDA06A85420F
:103D400000D2A562BDE8F08128000020EC07002029
:103D50002DE9F041054600F09FFD2D4CA068401C68
:103D6000A06020682B4F10B1606930B32BE0256054
:103D7000A068012827D1002606EB860007EB80000B
:103D800000F058FD761C382EF6D3234800F052FD83
:103D90002148143000F04EFD1F48283000F04AFD45
:103DA0001D483C3000F046FD1B48503000F042FDFD
:103DB000194860631430A06305E02068E96AC06AAE
:103DC000884200D82560606A401C60626864E86AC6
:103DD0002169884200D9206100EB800007EB800058
:103DE000291D00F04DFD00F077FD606900280CD022
:103DF0002068E96AC06A884207D208494FF08050BB
:103E00000860BFF34F8FBFF36F8FBDE8F0810000F4
:103E1000280000203C0300209C07002004ED00E067
:103E200038B500F039FD104C2068C8B90F4800F0D3
:103E300001FD0E48143000F0FDFC0C48E060143029
:103E400020610A4B0020F03B009003F1500210214A
:103E50000A2000F0BFFF206010B105A100F0BEFDF8
:103E6000BDE8384000F038BD64000020F0080020B4
:103E7000546D72510000000030B4026C0B46002AF1
:103E80000BD0C1681144C1608468A14201D30168AC
:103E9000C16030BC1846FCF7D0BA30BC70472DE981
:103EA000F041856B174604460026026C82B1C7B10B
:103EB000E068FCF7C2FAE168206C091AE160226848
:103EC000914202D2A168081AE060022F16D017E0D2
:103ED0002068A8B9A06801F0ABFA06460020A060EF
:103EE0000EE06068FCF7A9FA216C60680844606025
:103EF000A168884204D32068606001E005B16D1EAE
:103F00006D1CA5633046BDE8F08110B5044690F8FD
:103F1000590058B101280CD002280FD0502080F34E
:103F20001188BFF34F8FBFF36F8FFEE7206B00F058
:103F3000E7FC2046BDE8104000F0E2BC10BD0000E8
:103F400010484FF47051420706D0C01D0D4920F0B3
:103F50000700411AC1F570510B4A00230144C2E920
:103F600000030839183A21F0070111604B600B601B
:103F70000B1AC0E9001393604FF00040536050618A
:103F800070470000D00F002094000020144E154C04
:103F9000A6F29C474FF08058DFF84C9012E000BF2B
:103FA00000F07AFCF068C568281D00F019FCA068D4
:103FB000401EA0606068401E606000F08DFC2846D6
:103FC000FFF7A3FF60680028EAD138680128F9D913
:103FD000C9F80080BFF34F8FBFF36F8FF2E7000087
:103FE000D80700202800002004ED00E070B51D4631
:103FF000049C51B1C4F80020C4E90F0101212046FE
:1040000000F01CFF84F84C5070BD2460F4E7000001
:104010002DE9F05F8846DDE90B9415468346910053
:104020009A460A9EA522206BFCF77EFA6FF00301E8
:10403000206B01EB8501084420F00707780707D0C3
:10404000502080F31188BFF34F8FBFF36F8FFEE7CF
:104050000025B8F1000F0FD05FF00000221818F80B
:10406000001082F8341018F8001011B1401C10280C
:10407000F4D384F8435001E084F83450382E00D350
:104080003726E662C4E91365201D00F0DEFB04F16B
:10409000180000F0DAFB2461C6F138006462A06108
:1040A000656584F8585052465946384600F05AFA29
:1040B0002060B9F1000F01D0C9F80040BDE8F09FC1
:1040C00030B5114900E011460A688242FBD34B68C3
:1040D0005C18844203D1406818444860084643682D
:1040E0001C18944209D1084C183C2468A24209D0FB
:1040F00052681A4442600A6812680260814200D025
:10410000086030BD0460F9E79400002070B5002419
:1041100041600B4D0061914206D8D11A82699142EB
:1041200006D2011D286907E09A4203D2994201D3C1
:10413000012403E0011DE86800F08AFB204670BD01
:104140006400002010B5044600F0A6FBA06B28B167
:104150005FF0000400F0C0FB204610BD0124F9E729
:1041600030B589B03C4D6EE00498002806DADDE9F0
:104170000601059A90470498002864DB069C606954
:1041800010B1201D00F02CFB03A800F0D7F8024668
:1041900004980A2857D2DFE800F00505052D334AB8
:1041A00005052D3394F8280040F0010084F828001C
:1041B0000599A069059B01442046FFF7A7FF68B356
:1041C000216A2046884794F8280040073BD5002004
:1041D00000900598A169002342181946204601F075
:1041E00031FAD8B9502080F31188BFF34F8FBFF355
:1041F0006F8FFEE714F8280F20F00100207022E0F6
:1042000094F8280040F0010084F828000598A06187
:1042100028B1811813462046FFF778FF13E050209D
:1042200080F31188BFF34F8FBFF36F8FFEE794F8D1
:104230002800810703D4204600F062FB03E020F051
:10424000010084F82800002204A9286800F04AFF31
:10425000002889D109B030BD640000202DE9FC415F
:104260000F46054600F09CFC01A800F067F80446E4
:10427000019818B101F054F9BDE8FC81254EAFB1A9
:1042800030690068D0B30027291B3A46306800F037
:10429000B9FB01F045F90028EED11F494FF08050DD
:1042A0000860BFF34F8FBFF36F8FE5E7A542EBD8F0
:1042B00001F036F9F0682746C068C468201D00F098
:1042C0008FFA94F82800410719D5A0692B464119A7
:1042D0003A462046FFF71AFFA8B1002003460146E0
:1042E00000902A46204601F0ADF960B9502080F3D5
:1042F0001188BFF34F8FBFF36F8FFEE707E020F009
:10430000010084F82800216A20468847B4E7012785
:10431000BAE700006400002004ED00E00648416BAD
:10432000096829B1416BC968C968496881627047E9
:104330004FF0FF31FAE700002800002070B5054675
:1043400001F00CF8064E0446B068844203D200F037
:1043500009F8012000E0002028602046B46070BD0C
:1043600064000020F8B5194D20E0C068C4680668F4
:10437000201D00F035FA216A2046884794F828006D
:10438000400713D5A0693044B04206D9246160606B
:10439000211DE86800F05CFA08E0002003460146B1
:1043A00000903246204601F04DF938B1E8680168C6
:1043B0000029DAD12969C5E90310F8BD502080F33E
:1043C0001188BFF34F8FBFF36F8FFEE764000020AB
:1043D00008484068401C4FF0500080F3118804D01A
:1043E000BFF34F8FBFF36F8FFEE7BFF34F8FBFF366
:1043F0006F8FFEE79C000020074CE068016841B128
:10440000C0680021D0F80000FFF728FFFFF7A8FEE2
:10441000F3E701210020F7E7640000202DE9F041D7
:10442000044600F039FA94F9455004F1240609E0F5
:10443000606A48B1304601F03BF808B100F032FB49
:104440006D1E6DB2002DF3DC4FF0FF3684F8456031
:1044500000F042FA00F020FA94F9445004F11007F9
:1044600009E0206948B1384601F022F808B100F0AF
:1044700019FB6D1E6DB2002DF3DC84F84460BDE8BD
:10448000F04100F029BA00002DE9F041054600276F
:1044900000F086FB324E306808B9FFF751FD7069B5
:1044A00005424ED1C5B3083568070ED005F00700A8
:1044B000C0F108000544680707D0502080F3118838
:1044C000BFF34F8FBFF36F8FFEE72DB37068854248
:1044D00037D82348183001460C6801E020460C46C6
:1044E0006168A94202D221680029F7D131688C4263
:1044F00027D007682168016060680837411B1029D0
:104500000FD96019420708D0502080F31188BFF3FB
:104510004F8FBFF36F8FFEE713E041606560FFF7D9
:10452000CFFD61687068401A7060B268904200D236
:10453000B060706901430020C4E90001F068401CCC
:10454000F06000F0EDFF780707D0502080F311886D
:10455000BFF34F8FBFF36F8FFEE73846BDE8F081A2
:104560007C00002010B5031F4FF080741C601B1FDF
:1045700021F001011960191F044B0B6014390A6006
:10458000091F6FF0020244380A6010BDD1430008D1
:1045900018B40021ADF800104449026840F202242A
:1045A000C1F8162002798A76B0F80520ADF800200F
:1045B00092B2A2F20223A2425CD01FDCB2F5817F4C
:1045C00048D00FDC012A37D0022A3BD0032A3CD046
:1045D000A2F58072013A03D1D0F80700C1F80E00AD
:1045E00018BC7047A2F58072033A38D0012A3DD03A
:1045F000FE2AF5D1C11D1B222D4844E0042B48D0D2
:1046000009DC012B3BD0022B40D0032BE8D1B0F8C2
:104610000700C880E4E7052B3ED0062B42D0FF2BD5
:10462000DED1234950F8072F1C3941F8572F426833
:104630004A6080688860D3E7B0F807200A81407A32
:104640008872CDE7C0790870CAE7C11D18481C22DE
:104650001C3818E0D0F80700C1F81200C0E7B0F825
:104660000720A1F80B20407A4873B9E7B0F807009B
:104670008880B5E7C11D0E4810221B3003E0C11D24
:104680000B4810222B3018BCFBF7D7BEC0794870FE
:10469000A6E7C0798870A3E750F8072F0A628088E0
:1046A00088849DE7C079C8709AE70000B1000020B7
:1046B000044C002070B5A5263D4C002571E03D4816
:1046C000FEF7AEFF94F8861006294BD2DFE801F022
:1046D00003131D2D384DB0420AD1012184F88610F4
:1046E000B4F88710A31D4A1CA4F88720C85458E0CA
:1046F000A4F8875055E0A080B4F88710A31D4A1C89
:10470000A4F88720C854022017E0A188A31D41EA1D
:104710000021A180B4F887104A1CA4F88720C8544F
:10472000A08877281ED2032007E0B4F88710A31DC5
:104730004A1CA4F88720C854042084F8860030E07E
:10474000B4F88710A31D4A1CA4F88720C854B4F8F5
:104750008700052825D10521A01D00F079FA08B1B0
:104760000520EAE784F88650C2E7A288B4F88710EB
:104770000932914204D2A31D4A1CA4F88720C854D0
:10478000A188B4F88700093188420AD384F886509A
:10479000A4F88750A01D00F03DFA10B1A01DFFF74E
:1047A000F7FE0448FEF75DFF002888D170BD0000C9
:1047B000E0570020C8530020FFF714F907494FF4D1
:1047C0008062A1F11800FEF741FFFDF7F3FE00BF84
:1047D000FFF770FF0A20FFF7A5F9F9E7E053002083
:1047E000D0E9013201699A60D0E901235A604A6830
:1047F000824201D182684A60002202610868401E3C
:104800000860086870470000034B036003F15C0018
:10481000086080201060704718090020044B036076
:1048200003F15C0008604FF4807010607047000076
:10483000740B002000F108014FF0FF32C0E90112B3
:10484000C160016100210160704700210161704772
:1048500030B50B685A1C02D000F1080202E0026970
:1048600004E02246546825689D42FAD953684B609B
:1048700099608A60516008610168491C016030BD1F
:1048800042684A6093688B609368596091600861E0
:104890000168491C01607047502080F31188BFF304
:1048A0004F8FBFF36F8F0A494868401C486001284A
:1048B0000CD10848006810F0FF0F07D0502080F39B
:1048C0001188BFF34F8FBFF36F8FFEE77047000073
:1048D0009C00002004ED00E00849486828B1401E13
:1048E000486001D180F311887047502080F311880F
:1048F000BFF34F8FBFF36F8FFEE700009C000020D7
:1049000070B500282AD0164DA0F1080460686969C6
:10491000084207D1502080F31188BFF34F8FBFF3B7
:104920006F8FFEE722683AB1502080F31188BFF301
:104930004F8FBFF36F8FFEE78843606000F030F960
:1049400060686968084468602046FFF7B9FB286919
:10495000401C2861BDE8704000F0E2BD70BD000061
:104960007C0000204FF0E0200021016181610549B9
:104970004FF47A720968B1FBF2F1491E41610721D7
:10498000016170472400002010B5FBF7BBFC114902
:1049900010280ED300F1E02090F8F0030A7890423E
:1049A00007D2502080F31188BFF34F8FBFF36F8F72
:1049B000FEE709480068896800F4E060884207D98A
:1049C000502080F31188BFF34F8FBFF36F8FFEE746
:1049D00010BD00009C0000200CED00E010B5084B5D
:1049E000002200BF53F832401CB1521C082AF9D3F0
:1049F00010BD43F8321003EBC201486010BD000047
:104A0000FC02002070B515460E460446FFF744FF31
:104A100094F944100020491C01D184F8440094F911
:104A20004510491C01D184F84500FFF755FFA06BE4
:104A300028B92A46314604F1240000F051F82046F6
:104A4000BDE87040FFF7EABC10B5020014D00F4873
:104A5000006B38B1502080F31188BFF34F8FBFF344
:104A60006F8FFEE700F09CF800211046FFF742F937
:104A700000F056FD002807D105494FF0805008602E
:104A8000BFF34F8FBFF36F8F10BD000028000020D1
:104A900004ED00E002490A6A0260C968416070479B
:104AA0002800002001490120C8617047280000202B
:104AB00010B50C4650B1094909681831FFF7C8FE16
:104AC0002046BDE810400121FFF714B9502080F3C3
:104AD0001188BFF34F8FBFF36F8FFEE728000020D0
:104AE00070B514460D4668B10A4909681831FFF7D8
:104AF000C7FE0CB14FF0FF3521462846BDE8704097
:104B0000FFF7F8B8502080F31188BFF34F8FBFF341
:104B10006F8FFEE72800002030B587B00024039493
:104B200005AA04A903A80494FFF76EFEDDE90301BA
:104B30000094CDE90110002315A11748059A00F053
:104B4000D4FB164D0028E8621FD000F04BFD012871
:104B500009D0401C19D1502080F31188BFF34F8F2A
:104B6000BFF36F8FFEE7502080F31188BFF34F8FA4
:104B7000BFF36F8F4FF0FF30A86201206861EC60D7
:104B800007B0BDE8304000F095B807B030BD000078
:104B900049444C45000000008D3F000828000020DB
:104BA0000248016B491C0163704700002800002087
:104BB000164810B5016B11B10121C16110BD002172
:104BC000C1610169124A01E0B9B1491E01EB8103DB
:104BD00052F82330002BF7D001EB810302EB830264
:104BE00002F1080453685B685360A34201D15B681B
:104BF0005360DA680260016110BD502080F31188B3
:104C0000BFF34F8FBFF36F8FFEE700002800002037
:104C10003C03002030B50C46050014D0022C12D9FC
:104C20000A48A11E02882846FEF71EFD2919C2B2B5
:104C300011F8023C9A4206D111F8011CB1EB102F79
:104C400001D1012030BD002030BD0000D80000207F
:104C500030B50C4605000CD0022C0AD9FF22611E8B
:104C6000FEF718FD291911F8011C814201D101201C
:104C700030BD002030BD70B50D460646002404EB63
:104C8000C40000EB400006EB8001C4EB041091ED82
:104C9000120A05EB800080ED000A91ED150A80ED07
:104CA000010AB7EE000AFDF705FC641C64B2042C8F
:104CB000E5DB70BD1CB537480168374A914207D122
:104CC000502080F31188BFF34F8FBFF36F8FFEE743
:104CD00000683149491E884207D1502080F311886D
:104CE000BFF34F8FBFF36F8FFEE72C490878019019
:104CF000FF20087008788DF800009DF800009DF8EE
:104D0000002000F0F000904207D0502080F311887E
:104D1000BFF34F8FBFF36F8FFEE79DF80000204C6D
:104D200000F0500020700720A06005E09DF80020F2
:104D300052008DF80020401E9DF800201206F5D488
:104D4000A060032807D0502080F31188BFF34F8F55
:104D5000BFF36F8FFEE74FF44070A06001980870BA
:104D60000C482030016841F470010160016841F095
:104D700070410160FFF7F6FD00206060FBF78AFAE2
:104D80000848016841F040410160FBF76FFA0020DC
:104D90001CBD000000ED00E071C20F4100E400E026
:104DA0009C00002034EF00E010B5502080F3118803
:104DB000BFF34F8FBFF36F8F00F0D6FA18B10449DD
:104DC0004FF080500860002080F3118810BD000073
:104DD00004ED00E038B5049D18B153B1CAB181B1FA
:104DE00020E0502080F31188BFF34F8FBFF36F8F07
:104DF000FEE7502080F31188BFF34F8FBFF36F8F12
:104E0000FEE7502080F31188BFF34F8FBFF36F8F01
:104E1000FEE739B1502080F31188BFF34F8FBFF305
:104E20006F8FFEE750241C46012384F846302B4642
:104E30000094FFF7DBF8204638BD000070B50D4642
:104E4000040025D0FFF728FDD4E90F20216802FBDC
:104E50000011A1600021A163216861600A46D4E9C4
:104E60000F01401E00FB0121E16021464FF0FF30A1
:104E700001F8440F487004F110008DB1FFF7DAFC1F
:104E800004F12400FFF7D6FCFFF726FD012070BDDA
:104E9000502080F31188BFF34F8FBFF36F8FFEE771
:104EA00021690029F0D000F003FB0028ECD0044970
:104EB0004FF080500860BFF34F8FBFF36F8FE3E771
:104EC00004ED00E02DE9FF4782B01D468A464FF011
:104ED0000008040003D0BAF1000F08D011E0502000
:104EE00080F31188BFF34F8FBFF36F8FFEE7206C05
:104EF00038B1502080F31188BFF34F8FBFF36F8F0D
:104F0000FEE7022D0AD1E06B012807D0502080F384
:104F10001188BFF34F8FBFF36F8FFEE700F010FAD9
:104F20003F4F4FF000094FF0805648B9049838B110
:104F3000502080F31188BFF34F8FBFF36F8FFEE7D0
:104F4000FFF7AAFCA06BE16B884207D3022D05D0C6
:104F50000498D0B1B8F1000F1AD01EE02A4651468D
:104F60002046FEF79CFF616A19B104F1240000F0AD
:104F70009FFA20B13E60BFF34F8FBFF36F8FFFF7F3
:104F8000ABFC012006B0BDE8F087FFF7A5FC22E0EE
:104F90006846FFF77FFD4FF00108FFF79DFCFFF724
:104FA000FFFDFFF779FC94F94400401C01D184F81F
:104FB000449094F94500401C01D184F84590FFF7D6
:104FC0008BFC04A9684600F029F930B12046FFF7B0
:104FD00025FA00F0A5FA0020D4E7FFF75DFCA06BEE
:104FE000E16B884213D1FFF777FC04F110000499BC
:104FF000FFF75EFD2046FFF711FA00F091FA002856
:105000009ED13E60BFF34F8FBFF36F8F98E7FFF7DE
:1050100063FC2046FFF702FA00F082FA90E70000F6
:1050200004ED00E02DE9F0471F4690468946040054
:1050300003D0B9F1000F08D011E0502080F311889F
:10504000BFF34F8FBFF36F8FFEE7206C38B1502056
:1050500080F31188BFF34F8FBFF36F8FFEE7022FEE
:105060000AD1E06B012807D0502080F31188BFF3EC
:105070004F8FBFF36F8FFEE7FFF786FC5020EFF3F3
:10508000118680F31188BFF34F8FBFF36F8FA06B32
:10509000E16B884206D3022F04D0002086F31188EA
:1050A000BDE8F08794F94550A06B3A464946204642
:1050B000FEF7F5FE681C04D06D1C84F845500120F5
:1050C000ECE7606A0028FAD004F1240000F0F0F95F
:1050D0000028F4D0B8F1000FF1D00121C8F8001079
:1050E000EDE700002DE9F747002683B08A4604006B
:1050F00003D0BAF1000F08D011E0502080F31188DE
:10510000BFF34F8FBFF36F8FFEE7206C38B1502095
:1051100080F31188BFF34F8FBFF36F8FFEE700F06E
:105120000FF9DFF8F4804FF000094FF0805748B9CD
:10513000059838B1502080F31188BFF34F8FBFF32B
:105140006F8FFEE7FFF7A8FBA56BC5B15146204660
:10515000FEF792FE6D1EA563206950B104F11000A8
:1051600000F0A6F928B1C8F80070BFF34F8FBFF365
:105170006F8FFFF7B1FB012006B0BDE8F0870598FF
:1051800008B11EB106E0FFF7A7FB27E06846FFF76E
:1051900081FC0126FFF7A0FBFFF702FDFFF77CFB78
:1051A00094F94400401C01D184F8449094F94500DE
:1051B000401C01D184F84590FFF78EFB05A9684695
:1051C00000F02CF8002820460AD0FFF727F900F05D
:1051D000A7F92046FEF7B6FF0028B3D00020CBE7A2
:1051E000FEF7B0FF90B104F124000599FFF760FCD1
:1051F0002046FFF713F900F093F90028A2D1C8F870
:105200000070BFF34F8FBFF36F8F9BE72046FFF710
:1052100005F900F085F995E704ED00E02DE9F0418E
:105220000C46050011D0C4B1FFF736FB174BDA6806
:105230006E682068911B471C17D02F681B6A9F421D
:1052400019D0964217D8012410E0502080F311881D
:10525000BFF34F8FBFF36F8FFEE7502080F31188AD
:10526000BFF34F8FBFF36F8FFEE70024FFF734FBD0
:105270002046BDE8F081884205D9401A20602846C2
:10528000FFF708FCF1E700202060DCE728000020A1
:105290002DE9FF5F8346DDE90E87994616468A466B
:1052A0009000FFF7F1F805001CD05C20FFF7ECF848
:1052B000040014D00020256384F85900CDE9024091
:1052C000CDE900874B46324651465846FEF7A0FED0
:1052D0002046FEF73DFD012004B0BDE8F09F2846C2
:1052E000FFF70EFB4FF0FF30F6E7F0B585B0DDE9D4
:1052F0000B640A9DA6B1DCB15C27009726630226E9
:1053000084F85960002604AFCDE90246CDE9005784
:10531000FEF77EFE2046FEF71BFD049805B0F0BDAB
:10532000502080F31188BFF34F8FBFF36F8FFEE7DC
:10533000502080F31188BFF34F8FBFF36F8FFEE7CC
:105340000548416919B1006B18B100207047012070
:105350007047022070470000280000200148C06804
:1053600070470000280000202DE9F0412E4C002756
:10537000206B28B1A069401CA0613846BDE8F081CF
:10538000E668761CE66013D1606B006838B1502087
:1053900080F31188BFF34F8FBFF36F8FFEE7606B11
:1053A000A16B6163A063206A401C2062FEF7B6FF18
:1053B000A06ADFF87880864209D3606B0068A0B1EC
:1053C000606BC068C5686868864211D2A0622068B8
:1053D000C06A00EB800158F82100012800D901279C
:1053E000E0690028C9D00127C7E74FF0FF30EDE79B
:1053F000281DFFF7F5F9A86A18B105F11800FFF7A5
:10540000EFF9E86A2169884200D9206100EB800148
:1054100008EB8100291DFFF733FAE86A2168C96AA1
:105420008842CAD30127C8E7280000203C03002097
:1054300070B504004FF0000133D01B4D2868844242
:1054400007D0502080F31188BFF34F8FBFF36F8FC9
:10545000FEE7206D38B1401E2065E36CE26A9A4297
:105460001FD040B11DE0502080F31188BFF34F8F53
:10547000BFF36F8FFEE7201DFFF7B2F9E06CE0622B
:10548000C0F13800A061E06A2969884200D928612A
:10549000064900EB800001EB8000211DFFF7F0F9C9
:1054A0000121084670BD0000280000203C030020B8
:1054B00070B5C068C46854B104F118000646FFF71F
:1054C0008FF9144D286B50B13146134815E0502028
:1054D00080F31188BFF34F8FBFF36F8FFEE7201D5E
:1054E000FFF77EF9E06A2969884200D928610B49F3
:1054F00000EB800001EB8000211DFFF7C1F9E06A9D
:105500002968C96A884202D90120E86170BD00207B
:1055100070BD000028000020C40700203C030020CC
:105520002DE9F0472C4D00242746286B38B1FFF7B2
:10553000B3F9286B401E2863286B40B146E0502029
:1055400080F31188BFF34F8FBFF36F8FFEE7A96819
:10555000224E0120D1B3A6F5916980463068E0B1B2
:10556000F068C46804F11800FFF73AF9201DFFF74E
:1055700037F9E06A2969884200D9286100EB800187
:1055800009EB8100211DFFF77BF9E06A2968C96AF0
:105590008842E3D3C5F81C80E0E70CB1FEF7BEFEFD
:1055A000AC694CB14FEA0806FFF7DEFE00B1EE61D0
:1055B000641EF9D10020A861E86938B108490127C3
:1055C00038070860BFF34F8FBFF36F8FFFF784F981
:1055D0003846BDE8F087000028000020C4070020FE
:1055E00004ED00E010B586B0FEF71AFC114C2068FF
:1055F000B8B100200390049005AA04A903A8FFF7FE
:105600000DF9DDE9032102208DE8070000230AA13E
:105610000B48059AFFF769FE606010B106B00120E3
:1056200010BD502080F31188BFF34F8FBFF36F8FF1
:10563000FEE7000064000020546D72205376630082
:10564000F94300082DE9FF411E46134602000A9D5A
:105650004FF0000016D0144C2768002F0FD0CDE972
:1056600000130292062917DAFFF76AFE02284FF0AC
:1056700000030FD0002269462068FFF723FC04B026
:10568000BDE8F081502080F31188BFF34F8FBFF346
:105690006F8FFEE72A46EEE700233246694638461A
:1056A000FFF7C0FCEBE700006400002070B50D467A
:1056B0002DED068B044690ED01AAD0ED02AAD0EDA7
:1056C000090A9FED448AF0EE008A80EE880A20EEF7
:1056D000280A9FED419A20EE090A10EE100A00F008
:1056E00067FD41EC100BFDF79BF9D4ED090A80EE44
:1056F000880A20EE280A20EE090A10EE100A00F0AF
:1057000057FD41EC100BFDF7EFF9D4ED090A80EEDF
:10571000880A20EE280A20EE090A10EE100A00F08E
:1057200047FD41EC100BFDF7DFF951EC100B00F0D9
:10573000BFF894ED090A09EE900AC0EE080A20EEBF
:10574000A80A20EE090A10EE100A00F031FD41EC23
:10575000100BFDF765F951EC100B00F0A9F82AEEDB
:10576000290A00EE900A0AEEA00A84ED010AD4ED9F
:10577000020AB1EE400A30EE600AD4ED030A30EEC0
:10578000200A85ED120A94ED020AD4ED010A30EEEA
:10579000600AD4ED030A30EE200A85ED2D0A94ED5F
:1057A000010AD4ED020A30EE200AD4ED030A30EEED
:1057B000200A85ED480A94ED010AD4ED020A30EE84
:1057C000600AD4ED030A30EE200A85ED630ABDECD1
:1057D000068B70BD0000B443D00F49402DE9F04165
:1057E000DFF86C800E4605464FF480572DED028B96
:1057F000144639464046FBF781FE9FED168A012884
:105800001FD039464046FBF779FE002815D195EDAB
:10581000140A84ED010AD4ED000A30EE200AF6EEF7
:10582000000A20EE200A85ED080AD5ED140A30EEB4
:10583000C00A86ED090A84ED008ABDEC028BBDE842
:10584000F08195ED140A84ED000A84ED018AF4E7F5
:10585000000C02400000000070B590ED040A0546FF
:1058600081ED000A90ED090A0C4681ED010A9FEDD9
:10587000080ADFED080A81ED0E0AB7EE000A0846B5
:10588000FCF780FD94ED0D0A85ED030A70BD000064
:105890000000F0420000344381F00041704780F086
:1058A0000040704721F00041704720F000407047F1
:1058B00021F00042A2F16052B2F5801F01F00043D6
:1058C00028BFD2F17F6C0BD95FEA001C43EAC20209
:1058D00042EB507018BF704728BF20F0010070479E
:1058E000B2F5801FBCBF184670474FEA410C1CF54B
:1058F000001F02D2084600F0D1BC70B500F00EFBCC
:1059000000000089FFF7F6BF4FF00040A0F58000CF
:105910007047000010B591EA030F48BF83F00043C1
:1059200000F16483841A71EB030C05D2121943EB66
:105930000C03001B61EB0C01DFF824E14FEA11546A
:10594000A4EB135C1EEA430F18BF9EEA445F73D0BA
:1059500023EA0E03DCF1200E21EA045143F4801304
:1059600032D322FA0CFE10EB0E0023FA0CFE41EBB0
:105970000E01CCF1200E03FA0EFE10EB0E0051F1D9
:105980000001B1F5801FCCF1200E32D201EB0451A1
:1059900012FA0EF2BDE8104058BF7047401C38BFE5
:1059A0005FEA420218BF7047002814BF20F00100D0
:1059B00041F100014FEA410313F5001F38BF704762
:1059C000A1F1C04100F0F8BA012A43EB0302ACF1A7
:1059D000200CDCF11F0E32BF4FF0000E23FA0CF347
:1059E00010EB030041EB0451B4EB115FD0D0A1EBFD
:1059F000045101F5801149085FEA300001EB0451C0
:105A00000ED350F1000038BF12FA0EFE08D1BDE8E7
:105A10001040C9E7401C38BF5FEA4202CAD1C3E761
:105A2000BDE810404FEA410313F5001F38BF70472F
:105A3000A1F1C04100F0C0BA9EEA445F08D011EA6B
:105A40005E0FBDE8104004BF01F000410020704728
:105A5000BDE8104070B500F061FA00BF64FBBE3EC7
:105A60000000E0FF2DE9C04130B4DFF8A0C23CEAFD
:105A7000111418BF3CEA131400F0EC8081EA03050E
:105A80001CEA111444EAD57418BF1CEA131500F07F
:105A9000C780A4EB05044FF0004545EAC12145EA63
:105AA000C32341EA505143EA525304F17F749942AF
:105AB00004F500344FEAC0204FEAC22208BF9042EA
:105AC00000F09C804FEA13650FF24016765D4FEAB6
:105AD000134506FB05F7C7F1807706FB07F74FEA8A
